{"contracts/OracleProviderSample.sol":{"OracleProviderSample":{"abi":[{"inputs":[{"internalType":"address","name":"_nodeAddress","type":"address"},{"internalType":"bytes32","name":"_adapterId","type":"bytes32"}],"stateMutability":"nonpayable","type":"constructor"},{"anonymous":false,"inputs":[{"indexed":false,"internalType":"bytes32","name":"requestId","type":"bytes32"}],"name":"NewOracleRequest","type":"event"},{"inputs":[],"name":"VERSION","outputs":[{"internalType":"string","name":"","type":"string"}],"stateMutability":"view","type":"function"},{"inputs":[],"name":"adapterId","outputs":[{"internalType":"bytes32","name":"","type":"bytes32"}],"stateMutability":"view","type":"function"},{"inputs":[],"name":"fulfilledCount","outputs":[{"internalType":"uint256","name":"","type":"uint256"}],"stateMutability":"view","type":"function"},{"inputs":[],"name":"latestRound","outputs":[{"internalType":"bytes32","name":"answer","type":"bytes32"},{"internalType":"uint256","name":"roundTime","type":"uint256"},{"internalType":"uint256","name":"timestamp","type":"uint256"}],"stateMutability":"view","type":"function"},{"inputs":[{"internalType":"bytes4","name":"callbackFunctionId","type":"bytes4"},{"internalType":"address","name":"callBackContract","type":"address"}],"name":"newOracleRequest","outputs":[{"internalType":"bool","name":"","type":"bool"}],"stateMutability":"nonpayable","type":"function"},{"inputs":[{"internalType":"uint256","name":"roundTime","type":"uint256"},{"internalType":"bytes32","name":"data","type":"bytes32"},{"internalType":"bytes32","name":"dataHash","type":"bytes32"},{"internalType":"bytes","name":"signature","type":"bytes"}],"name":"newRoundData","outputs":[{"internalType":"bool","name":"","type":"bool"}],"stateMutability":"nonpayable","type":"function"},{"inputs":[],"name":"nodeAddress","outputs":[{"internalType":"address","name":"","type":"address"}],"stateMutability":"view","type":"function"},{"inputs":[{"internalType":"bytes32","name":"","type":"bytes32"}],"name":"requests","outputs":[{"internalType":"bytes32","name":"requestId","type":"bytes32"},{"internalType":"address","name":"nodeAddress","type":"address"},{"internalType":"bytes32","name":"adapterId","type":"bytes32"},{"internalType":"bytes4","name":"callbackFunctionId","type":"bytes4"},{"internalType":"address","name":"callBackContract","type":"address"},{"internalType":"bytes32","name":"data","type":"bytes32"},{"internalType":"uint256","name":"timestamp","type":"uint256"}],"stateMutability":"view","type":"function"},{"inputs":[{"internalType":"uint256","name":"","type":"uint256"}],"name":"rounds","outputs":[{"internalType":"bytes32","name":"answer","type":"bytes32"},{"internalType":"uint256","name":"roundTime","type":"uint256"},{"internalType":"uint256","name":"timestamp","type":"uint256"}],"stateMutability":"view","type":"function"}],"evm":{"bytecode":{"linkReferences":{},"object":"60c060405260006001553480156200001657600080fd5b50604051620021533803806200215383398181016040528101906200003c91906200019f565b81816200005a6754bb6b59cbdc27a360c01b620000f460201b60201c565b6200007667e8887d08308a711360c01b620000f460201b60201c565b8173ffffffffffffffffffffffffffffffffffffffff1660808173ffffffffffffffffffffffffffffffffffffffff1681525050620000c667828a09ab38f71c6c60c01b620000f460201b60201c565b8060a081815250505050620000ec67ae13d290cf5c4ea760c01b620000f760201b60201c565b5050620001e6565b50565b50565b600080fd5b600073ffffffffffffffffffffffffffffffffffffffff82169050919050565b60006200012c82620000ff565b9050919050565b6200013e816200011f565b81146200014a57600080fd5b50565b6000815190506200015e8162000133565b92915050565b6000819050919050565b620001798162000164565b81146200018557600080fd5b50565b60008151905062000199816200016e565b92915050565b60008060408385031215620001b957620001b8620000fa565b5b6000620001c9858286016200014d565b9250506020620001dc8582860162000188565b9150509250929050565b60805160a051611f1d620002366000396000818161022e0152818161078a015261085601526000818161020a015281816102bc015281816103d901528181610769015261081a0152611f1d6000f3fe608060405234801561001057600080fd5b50600436106100a35760003560e01c80638c65c81f11610076578063c5c28fd11161005b578063c5c28fd11461019c578063ec2b83f1146101ba578063ffa1ad74146101ea576100a3565b80638c65c81f146101345780639d86698514610166576100a3565b80632aa8481f146100a85780635fb86b01146100c6578063668a0f02146100e457806377f8632f14610104575b600080fd5b6100b0610208565b6040516100bd919061121e565b60405180910390f35b6100ce61022c565b6040516100db9190611252565b60405180910390f35b6100ec610250565b6040516100fb93929190611286565b60405180910390f35b61011e6004803603810190610119919061146f565b610268565b60405161012b919061150d565b60405180910390f35b61014e60048036038101906101499190611528565b6105bd565b60405161015d93929190611286565b60405180910390f35b610180600480360381019061017b9190611555565b6105f7565b60405161019397969594939291906115bd565b60405180910390f35b6101a4610686565b6040516101b1919061162c565b60405180910390f35b6101d460048036038101906101cf919061169f565b61068c565b6040516101e1919061150d565b60405180910390f35b6101f2610a26565b6040516101ff919061175e565b60405180910390f35b7f000000000000000000000000000000000000000000000000000000000000000081565b7f000000000000000000000000000000000000000000000000000000000000000081565b60058060000154908060010154908060020154905083565b600061027e67ad7775a53fe0f6a960c01b610a5f565b610292678566f12b386eae1f60c01b610a5f565b6102a667766e712465820b8960c01b610a5f565b6102ba67cf3f2c9d9c7cc14760c01b610a5f565b7f000000000000000000000000000000000000000000000000000000000000000073ffffffffffffffffffffffffffffffffffffffff163373ffffffffffffffffffffffffffffffffffffffff1614610348576040517f08c379a000000000000000000000000000000000000000000000000000000000815260040161033f906117cc565b60405180910390fd5b61035c67fff7a4a3731643c160c01b610a5f565b610370674ee06fbdebfe160660c01b610a5f565b6103846702449219bfd56cca60c01b610a5f565b60006103998385610a6290919063ffffffff16565b90506103af67d652638afd57d6da60c01b610a5f565b6103c367fbeeb7988a1b2a8560c01b610a5f565b6103d7674e6174c9ad18909260c01b610a5f565b7f000000000000000000000000000000000000000000000000000000000000000073ffffffffffffffffffffffffffffffffffffffff168173ffffffffffffffffffffffffffffffffffffffff1614610465576040517f08c379a000000000000000000000000000000000000000000000000000000000815260040161045c90611838565b60405180910390fd5b6104796768f7d29c25a405dd60c01b610a5f565b61048d67246171f835003a1660c01b610a5f565b6104a1673a3a55195e6613b460c01b610a5f565b600060405180606001604052808781526020018881526020014281525090506104d4671cb39dd58006821d60c01b610a5f565b6104e86768f522a594c9bf2560c01b610a5f565b6004819080600181540180825580915050600190039060005260206000209060030201600090919091909150600082015181600001556020820151816001015560408201518160020155505061054867217884282e61af3b60c01b610a5f565b80600560008201518160000155602082015181600101556040820151816002015590505061058067d972d69cc79eaae560c01b610a5f565b8560028190555061059b6767658eb6b6538e4b60c01b610a5f565b6105af67dece97d36323c94e60c01b610a5f565b600192505050949350505050565b600481815481106105cd57600080fd5b90600052602060002090600302016000915090508060000154908060010154908060020154905083565b60006020528060005260406000206000915090508060000154908060010160009054906101000a900473ffffffffffffffffffffffffffffffffffffffff16908060020154908060030160009054906101000a900460e01b908060030160049054906101000a900473ffffffffffffffffffffffffffffffffffffffff16908060040154908060050154905087565b60015481565b60006106a267166a56ea18cd699760c01b610a5f565b6106b6677f8496fd2017326160c01b610a5f565b6106ca67fc6193001c82881960c01b610a5f565b6106de679ab4bd5988d8318160c01b610a5f565b6106e733610a89565b610726576040517f08c379a000000000000000000000000000000000000000000000000000000000815260040161071d906118ca565b60405180910390fd5b61073a67f506f8bc883d96bd60c01b610a5f565b61074e67723cf841992adfc960c01b610a5f565b6107626712ff2441354e9c5c60c01b610a5f565b60006003547f00000000000000000000000000000000000000000000000000000000000000007f00000000000000000000000000000000000000000000000000000000000000008686600254426040516020016107c59796959493929190611995565b6040516020818303038152906040528051906020012090506107f1675c33cff9cef7921c60c01b610a5f565b61080567930d33680e306a8360c01b610a5f565b60006040518060e001604052808381526020017f000000000000000000000000000000000000000000000000000000000000000073ffffffffffffffffffffffffffffffffffffffff1681526020017f00000000000000000000000000000000000000000000000000000000000000008152602001867bffffffffffffffffffffffffffffffffffffffffffffffffffffffff191681526020018573ffffffffffffffffffffffffffffffffffffffff16815260200160056000015481526020014281525090506108e0670dd4c326bfb73afb60c01b610a5f565b6108f467eede3febf9c4251360c01b610a5f565b7f7a6060117db4511b5ffd88545b9b43962c0ae441d1f07d05c86b869490d88369826040516109239190611252565b60405180910390a161093f677891cc42a409d60c60c01b610a5f565b610953679e5a3b8c60294de360c01b610a5f565b600061095f8383610b8f565b905061097567cc2922c072a5567f60c01b610a5f565b610989671bc7dbce972cbaf960c01b610a5f565b61099d67c1206812772a75ce60c01b610a5f565b806109dd576040517f08c379a00000000000000000000000000000000000000000000000000000000081526004016109d490611a88565b60405180910390fd5b6109f1675d64db2c17f29c3b60c01b610a5f565b610a0567ecc97a6684cb2a9560c01b610a5f565b610a196757506fce5da81f3860c01b610a5f565b6001935050505092915050565b6040518060400160405280600681526020017f76312e302e30000000000000000000000000000000000000000000000000000081525081565b50565b6000806000610a718585610e61565b91509150610a7e81610eb2565b819250505092915050565b6000610a9f67766de5e8f4e976c660c01b611018565b610ab367f8ddbd2f54df185a60c01b611018565b610ac767ed747cd5705625fe60c01b611018565b610adb6708952b7b66543f4560c01b611018565b600073ffffffffffffffffffffffffffffffffffffffff168273ffffffffffffffffffffffffffffffffffffffff1603610b4a576040517f08c379a0000000000000000000000000000000000000000000000000000000008152600401610b4190611af4565b60405180910390fd5b610b5e674b8f21d1c41397c560c01b611018565b610b72672c9d2dc77e40333760c01b611018565b610b86677ba6f694c0e00d5060c01b611018565b60019050919050565b6000610ba5670609d0340e138a2b60c01b610a5f565b610bb96713f761b94dd8dc7660c01b610a5f565b610bcd679212b9728c5cdba860c01b610a5f565b610be167f6156bef2f90ada560c01b610a5f565b610bea8261101b565b610c29576040517f08c379a0000000000000000000000000000000000000000000000000000000008152600401610c2090611b60565b60405180910390fd5b610c3d67bc2e7b454d155b2f60c01b610a5f565b610c5167d8851e774251e7a660c01b610a5f565b816000808581526020019081526020016000206000820151816000015560208201518160010160006101000a81548173ffffffffffffffffffffffffffffffffffffffff021916908373ffffffffffffffffffffffffffffffffffffffff1602179055506040820151816002015560608201518160030160006101000a81548163ffffffff021916908360e01c021790555060808201518160030160046101000a81548173ffffffffffffffffffffffffffffffffffffffff021916908373ffffffffffffffffffffffffffffffffffffffff16021790555060a0820151816004015560c08201518160050155905050610d5567e8b2d4009073c0c160c01b610a5f565b60016000815480929190610d6890611baf565b9190505550610d81677d8051fe12236b2f60c01b610a5f565b610d95670c5f27e3b0f2b2fe60c01b610a5f565b6000826080015173ffffffffffffffffffffffffffffffffffffffff1683606001518460a00151604051602001610dcd929190611bf7565b604051602081830303815290604052604051610de99190611c6a565b6000604051808303816000865af19150503d8060008114610e26576040519150601f19603f3d011682016040523d82523d6000602084013e610e2b565b606091505b50509050610e43676dc6ce2a396b4c6f60c01b610a5f565b610e5767742d90e776c0e7fb60c01b610a5f565b8091505092915050565b6000806041835103610ea25760008060006020860151925060408601519150606086015160001a9050610e96878285856110fb565b94509450505050610eab565b60006002915091505b9250929050565b60006004811115610ec657610ec5611c81565b5b816004811115610ed957610ed8611c81565b5b03156110155760016004811115610ef357610ef2611c81565b5b816004811115610f0657610f05611c81565b5b03610f46576040517f08c379a0000000000000000000000000000000000000000000000000000000008152600401610f3d90611cfc565b60405180910390fd5b60026004811115610f5a57610f59611c81565b5b816004811115610f6d57610f6c611c81565b5b03610fad576040517f08c379a0000000000000000000000000000000000000000000000000000000008152600401610fa490611d68565b60405180910390fd5b60036004811115610fc157610fc0611c81565b5b816004811115610fd457610fd3611c81565b5b03611014576040517f08c379a000000000000000000000000000000000000000000000000000000000815260040161100b90611dfa565b60405180910390fd5b5b50565b50565b600061103167082209ded9ede3e760c01b611018565b611045671628c20bdcff7e0560c01b611018565b61105967aae5e32faacba6dd60c01b611018565b61106d67fc4802cee098e52f60c01b611018565b6000801b8260a00151036110b6576040517f08c379a00000000000000000000000000000000000000000000000000000000081526004016110ad90611e66565b60405180910390fd5b6110ca6750cedbcd242ac1b960c01b611018565b6110de670527a14bc33c047660c01b611018565b6110f2671437869648329f4a60c01b611018565b60019050919050565b6000807f7fffffffffffffffffffffffffffffff5d576e7357a4501ddfe92f46681b20a08360001c11156111365760006003915091506111d4565b60006001878787876040516000815260200160405260405161115b9493929190611ea2565b6020604051602081039080840390855afa15801561117d573d6000803e3d6000fd5b505050602060405103519050600073ffffffffffffffffffffffffffffffffffffffff168173ffffffffffffffffffffffffffffffffffffffff16036111cb576000600192509250506111d4565b80600092509250505b94509492505050565b600073ffffffffffffffffffffffffffffffffffffffff82169050919050565b6000611208826111dd565b9050919050565b611218816111fd565b82525050565b6000602082019050611233600083018461120f565b92915050565b6000819050919050565b61124c81611239565b82525050565b60006020820190506112676000830184611243565b92915050565b6000819050919050565b6112808161126d565b82525050565b600060608201905061129b6000830186611243565b6112a86020830185611277565b6112b56040830184611277565b949350505050565b6000604051905090565b600080fd5b600080fd5b6112da8161126d565b81146112e557600080fd5b50565b6000813590506112f7816112d1565b92915050565b61130681611239565b811461131157600080fd5b50565b600081359050611323816112fd565b92915050565b600080fd5b600080fd5b6000601f19601f8301169050919050565b7f4e487b7100000000000000000000000000000000000000000000000000000000600052604160045260246000fd5b61137c82611333565b810181811067ffffffffffffffff8211171561139b5761139a611344565b5b80604052505050565b60006113ae6112bd565b90506113ba8282611373565b919050565b600067ffffffffffffffff8211156113da576113d9611344565b5b6113e382611333565b9050602081019050919050565b82818337600083830152505050565b600061141261140d846113bf565b6113a4565b90508281526020810184848401111561142e5761142d61132e565b5b6114398482856113f0565b509392505050565b600082601f83011261145657611455611329565b5b81356114668482602086016113ff565b91505092915050565b60008060008060808587031215611489576114886112c7565b5b6000611497878288016112e8565b94505060206114a887828801611314565b93505060406114b987828801611314565b925050606085013567ffffffffffffffff8111156114da576114d96112cc565b5b6114e687828801611441565b91505092959194509250565b60008115159050919050565b611507816114f2565b82525050565b600060208201905061152260008301846114fe565b92915050565b60006020828403121561153e5761153d6112c7565b5b600061154c848285016112e8565b91505092915050565b60006020828403121561156b5761156a6112c7565b5b600061157984828501611314565b91505092915050565b60007fffffffff0000000000000000000000000000000000000000000000000000000082169050919050565b6115b781611582565b82525050565b600060e0820190506115d2600083018a611243565b6115df602083018961120f565b6115ec6040830188611243565b6115f960608301876115ae565b611606608083018661120f565b61161360a0830185611243565b61162060c0830184611277565b98975050505050505050565b60006020820190506116416000830184611277565b92915050565b61165081611582565b811461165b57600080fd5b50565b60008135905061166d81611647565b92915050565b61167c816111fd565b811461168757600080fd5b50565b60008135905061169981611673565b92915050565b600080604083850312156116b6576116b56112c7565b5b60006116c48582860161165e565b92505060206116d58582860161168a565b9150509250929050565b600081519050919050565b600082825260208201905092915050565b60005b838110156117195780820151818401526020810190506116fe565b60008484015250505050565b6000611730826116df565b61173a81856116ea565b935061174a8185602086016116fb565b61175381611333565b840191505092915050565b600060208201905081810360008301526117788184611725565b905092915050565b7f4f7261636c653a206e6f646520756e6b6e6f776e000000000000000000000000600082015250565b60006117b66014836116ea565b91506117c182611780565b602082019050919050565b600060208201905081810360008301526117e5816117a9565b9050919050565b7f4f7261636c653a20496e76616c69642064617461000000000000000000000000600082015250565b60006118226014836116ea565b915061182d826117ec565b602082019050919050565b6000602082019050818103600083015261185181611815565b9050919050565b7f4f7261636c653a205065726d697373696f6e206e656564656420666f7220636f60008201527f6e73756d65720000000000000000000000000000000000000000000000000000602082015250565b60006118b46026836116ea565b91506118bf82611858565b604082019050919050565b600060208201905081810360008301526118e3816118a7565b9050919050565b6000819050919050565b61190561190082611239565b6118ea565b82525050565b60008160601b9050919050565b60006119238261190b565b9050919050565b600061193582611918565b9050919050565b61194d611948826111fd565b61192a565b82525050565b6000819050919050565b61196e61196982611582565b611953565b82525050565b6000819050919050565b61198f61198a8261126d565b611974565b82525050565b60006119a1828a6118f4565b6020820191506119b1828961193c565b6014820191506119c182886118f4565b6020820191506119d1828761195d565b6004820191506119e1828661193c565b6014820191506119f182856118f4565b602082019150611a01828461197e565b60208201915081905098975050505050505050565b7f4b6c61794f7261636c653a2072657175657374206e6f742066756c66696c6c6560008201527f6400000000000000000000000000000000000000000000000000000000000000602082015250565b6000611a726021836116ea565b9150611a7d82611a16565b604082019050919050565b60006020820190508181036000830152611aa181611a65565b9050919050565b7f4b6c61794f7261636c653a20636f6e73756d657220697320696e76616c696400600082015250565b6000611ade601f836116ea565b9150611ae982611aa8565b602082019050919050565b60006020820190508181036000830152611b0d81611ad1565b9050919050565b7f4b6c61794f7261636c653a2073756273637269626520746f2044500000000000600082015250565b6000611b4a601b836116ea565b9150611b5582611b14565b602082019050919050565b60006020820190508181036000830152611b7981611b3d565b9050919050565b7f4e487b7100000000000000000000000000000000000000000000000000000000600052601160045260246000fd5b6000611bba8261126d565b91507fffffffffffffffffffffffffffffffffffffffffffffffffffffffffffffffff8203611bec57611beb611b80565b5b600182019050919050565b6000611c03828561195d565b600482019150611c1382846118f4565b6020820191508190509392505050565b600081519050919050565b600081905092915050565b6000611c4482611c23565b611c4e8185611c2e565b9350611c5e8185602086016116fb565b80840191505092915050565b6000611c768284611c39565b915081905092915050565b7f4e487b7100000000000000000000000000000000000000000000000000000000600052602160045260246000fd5b7f45434453413a20696e76616c6964207369676e61747572650000000000000000600082015250565b6000611ce66018836116ea565b9150611cf182611cb0565b602082019050919050565b60006020820190508181036000830152611d1581611cd9565b9050919050565b7f45434453413a20696e76616c6964207369676e6174757265206c656e67746800600082015250565b6000611d52601f836116ea565b9150611d5d82611d1c565b602082019050919050565b60006020820190508181036000830152611d8181611d45565b9050919050565b7f45434453413a20696e76616c6964207369676e6174757265202773272076616c60008201527f7565000000000000000000000000000000000000000000000000000000000000602082015250565b6000611de46022836116ea565b9150611def82611d88565b604082019050919050565b60006020820190508181036000830152611e1381611dd7565b9050919050565b7f4b6c61794f7261636c653a206461746120697320656d70747900000000000000600082015250565b6000611e506019836116ea565b9150611e5b82611e1a565b602082019050919050565b60006020820190508181036000830152611e7f81611e43565b9050919050565b600060ff82169050919050565b611e9c81611e86565b82525050565b6000608082019050611eb76000830187611243565b611ec46020830186611e93565b611ed16040830185611243565b611ede6060830184611243565b9594505050505056fea2646970667358221220ffa035d78371c6fc2cf1c1e5623c96b886805844ba2370913e3e77214925ee1c64736f6c63430008100033","opcodes":"PUSH1 0xC0 PUSH1 0x40 MSTORE PUSH1 0x0 PUSH1 0x1 SSTORE CALLVALUE DUP1 ISZERO PUSH3 0x16 JUMPI PUSH1 0x0 DUP1 REVERT JUMPDEST POP PUSH1 0x40 MLOAD PUSH3 0x2153 CODESIZE SUB DUP1 PUSH3 0x2153 DUP4 CODECOPY DUP2 DUP2 ADD PUSH1 0x40 MSTORE DUP2 ADD SWAP1 PUSH3 0x3C SWAP2 SWAP1 PUSH3 0x19F JUMP JUMPDEST DUP2 DUP2 PUSH3 0x5A PUSH8 0x54BB6B59CBDC27A3 PUSH1 0xC0 SHL PUSH3 0xF4 PUSH1 0x20 SHL PUSH1 0x20 SHR JUMP JUMPDEST PUSH3 0x76 PUSH8 0xE8887D08308A7113 PUSH1 0xC0 SHL PUSH3 0xF4 PUSH1 0x20 SHL PUSH1 0x20 SHR JUMP JUMPDEST DUP2 PUSH20 0xFFFFFFFFFFFFFFFFFFFFFFFFFFFFFFFFFFFFFFFF AND PUSH1 0x80 DUP2 PUSH20 0xFFFFFFFFFFFFFFFFFFFFFFFFFFFFFFFFFFFFFFFF AND DUP2 MSTORE POP POP PUSH3 0xC6 PUSH8 0x828A09AB38F71C6C PUSH1 0xC0 SHL PUSH3 0xF4 PUSH1 0x20 SHL PUSH1 0x20 SHR JUMP JUMPDEST DUP1 PUSH1 0xA0 DUP2 DUP2 MSTORE POP POP POP POP PUSH3 0xEC PUSH8 0xAE13D290CF5C4EA7 PUSH1 0xC0 SHL PUSH3 0xF7 PUSH1 0x20 SHL PUSH1 0x20 SHR JUMP JUMPDEST POP POP PUSH3 0x1E6 JUMP JUMPDEST POP JUMP JUMPDEST POP JUMP JUMPDEST PUSH1 0x0 DUP1 REVERT JUMPDEST PUSH1 0x0 PUSH20 0xFFFFFFFFFFFFFFFFFFFFFFFFFFFFFFFFFFFFFFFF DUP3 AND SWAP1 POP SWAP2 SWAP1 POP JUMP JUMPDEST PUSH1 0x0 PUSH3 0x12C DUP3 PUSH3 0xFF JUMP JUMPDEST SWAP1 POP SWAP2 SWAP1 POP JUMP JUMPDEST PUSH3 0x13E DUP2 PUSH3 0x11F JUMP JUMPDEST DUP2 EQ PUSH3 0x14A JUMPI PUSH1 0x0 DUP1 REVERT JUMPDEST POP JUMP JUMPDEST PUSH1 0x0 DUP2 MLOAD SWAP1 POP PUSH3 0x15E DUP2 PUSH3 0x133 JUMP JUMPDEST SWAP3 SWAP2 POP POP JUMP JUMPDEST PUSH1 0x0 DUP2 SWAP1 POP SWAP2 SWAP1 POP JUMP JUMPDEST PUSH3 0x179 DUP2 PUSH3 0x164 JUMP JUMPDEST DUP2 EQ PUSH3 0x185 JUMPI PUSH1 0x0 DUP1 REVERT JUMPDEST POP JUMP JUMPDEST PUSH1 0x0 DUP2 MLOAD SWAP1 POP PUSH3 0x199 DUP2 PUSH3 0x16E JUMP JUMPDEST SWAP3 SWAP2 POP POP JUMP JUMPDEST PUSH1 0x0 DUP1 PUSH1 0x40 DUP4 DUP6 SUB SLT ISZERO PUSH3 0x1B9 JUMPI PUSH3 0x1B8 PUSH3 0xFA JUMP JUMPDEST JUMPDEST PUSH1 0x0 PUSH3 0x1C9 DUP6 DUP3 DUP7 ADD PUSH3 0x14D JUMP JUMPDEST SWAP3 POP POP PUSH1 0x20 PUSH3 0x1DC DUP6 DUP3 DUP7 ADD PUSH3 0x188 JUMP JUMPDEST SWAP2 POP POP SWAP3 POP SWAP3 SWAP1 POP JUMP JUMPDEST PUSH1 0x80 MLOAD PUSH1 0xA0 MLOAD PUSH2 0x1F1D PUSH3 0x236 PUSH1 0x0 CODECOPY PUSH1 0x0 DUP2 DUP2 PUSH2 0x22E ADD MSTORE DUP2 DUP2 PUSH2 0x78A ADD MSTORE PUSH2 0x856 ADD MSTORE PUSH1 0x0 DUP2 DUP2 PUSH2 0x20A ADD MSTORE DUP2 DUP2 PUSH2 0x2BC ADD MSTORE DUP2 DUP2 PUSH2 0x3D9 ADD MSTORE DUP2 DUP2 PUSH2 0x769 ADD MSTORE PUSH2 0x81A ADD MSTORE PUSH2 0x1F1D PUSH1 0x0 RETURN INVALID PUSH1 0x80 PUSH1 0x40 MSTORE CALLVALUE DUP1 ISZERO PUSH2 0x10 JUMPI PUSH1 0x0 DUP1 REVERT JUMPDEST POP PUSH1 0x4 CALLDATASIZE LT PUSH2 0xA3 JUMPI PUSH1 0x0 CALLDATALOAD PUSH1 0xE0 SHR DUP1 PUSH4 0x8C65C81F GT PUSH2 0x76 JUMPI DUP1 PUSH4 0xC5C28FD1 GT PUSH2 0x5B JUMPI DUP1 PUSH4 0xC5C28FD1 EQ PUSH2 0x19C JUMPI DUP1 PUSH4 0xEC2B83F1 EQ PUSH2 0x1BA JUMPI DUP1 PUSH4 0xFFA1AD74 EQ PUSH2 0x1EA JUMPI PUSH2 0xA3 JUMP JUMPDEST DUP1 PUSH4 0x8C65C81F EQ PUSH2 0x134 JUMPI DUP1 PUSH4 0x9D866985 EQ PUSH2 0x166 JUMPI PUSH2 0xA3 JUMP JUMPDEST DUP1 PUSH4 0x2AA8481F EQ PUSH2 0xA8 JUMPI DUP1 PUSH4 0x5FB86B01 EQ PUSH2 0xC6 JUMPI DUP1 PUSH4 0x668A0F02 EQ PUSH2 0xE4 JUMPI DUP1 PUSH4 0x77F8632F EQ PUSH2 0x104 JUMPI JUMPDEST PUSH1 0x0 DUP1 REVERT JUMPDEST PUSH2 0xB0 PUSH2 0x208 JUMP JUMPDEST PUSH1 0x40 MLOAD PUSH2 0xBD SWAP2 SWAP1 PUSH2 0x121E JUMP JUMPDEST PUSH1 0x40 MLOAD DUP1 SWAP2 SUB SWAP1 RETURN JUMPDEST PUSH2 0xCE PUSH2 0x22C JUMP JUMPDEST PUSH1 0x40 MLOAD PUSH2 0xDB SWAP2 SWAP1 PUSH2 0x1252 JUMP JUMPDEST PUSH1 0x40 MLOAD DUP1 SWAP2 SUB SWAP1 RETURN JUMPDEST PUSH2 0xEC PUSH2 0x250 JUMP JUMPDEST PUSH1 0x40 MLOAD PUSH2 0xFB SWAP4 SWAP3 SWAP2 SWAP1 PUSH2 0x1286 JUMP JUMPDEST PUSH1 0x40 MLOAD DUP1 SWAP2 SUB SWAP1 RETURN JUMPDEST PUSH2 0x11E PUSH1 0x4 DUP1 CALLDATASIZE SUB DUP2 ADD SWAP1 PUSH2 0x119 SWAP2 SWAP1 PUSH2 0x146F JUMP JUMPDEST PUSH2 0x268 JUMP JUMPDEST PUSH1 0x40 MLOAD PUSH2 0x12B SWAP2 SWAP1 PUSH2 0x150D JUMP JUMPDEST PUSH1 0x40 MLOAD DUP1 SWAP2 SUB SWAP1 RETURN JUMPDEST PUSH2 0x14E PUSH1 0x4 DUP1 CALLDATASIZE SUB DUP2 ADD SWAP1 PUSH2 0x149 SWAP2 SWAP1 PUSH2 0x1528 JUMP JUMPDEST PUSH2 0x5BD JUMP JUMPDEST PUSH1 0x40 MLOAD PUSH2 0x15D SWAP4 SWAP3 SWAP2 SWAP1 PUSH2 0x1286 JUMP JUMPDEST PUSH1 0x40 MLOAD DUP1 SWAP2 SUB SWAP1 RETURN JUMPDEST PUSH2 0x180 PUSH1 0x4 DUP1 CALLDATASIZE SUB DUP2 ADD SWAP1 PUSH2 0x17B SWAP2 SWAP1 PUSH2 0x1555 JUMP JUMPDEST PUSH2 0x5F7 JUMP JUMPDEST PUSH1 0x40 MLOAD PUSH2 0x193 SWAP8 SWAP7 SWAP6 SWAP5 SWAP4 SWAP3 SWAP2 SWAP1 PUSH2 0x15BD JUMP JUMPDEST PUSH1 0x40 MLOAD DUP1 SWAP2 SUB SWAP1 RETURN JUMPDEST PUSH2 0x1A4 PUSH2 0x686 JUMP JUMPDEST PUSH1 0x40 MLOAD PUSH2 0x1B1 SWAP2 SWAP1 PUSH2 0x162C JUMP JUMPDEST PUSH1 0x40 MLOAD DUP1 SWAP2 SUB SWAP1 RETURN JUMPDEST PUSH2 0x1D4 PUSH1 0x4 DUP1 CALLDATASIZE SUB DUP2 ADD SWAP1 PUSH2 0x1CF SWAP2 SWAP1 PUSH2 0x169F JUMP JUMPDEST PUSH2 0x68C JUMP JUMPDEST PUSH1 0x40 MLOAD PUSH2 0x1E1 SWAP2 SWAP1 PUSH2 0x150D JUMP JUMPDEST PUSH1 0x40 MLOAD DUP1 SWAP2 SUB SWAP1 RETURN JUMPDEST PUSH2 0x1F2 PUSH2 0xA26 JUMP JUMPDEST PUSH1 0x40 MLOAD PUSH2 0x1FF SWAP2 SWAP1 PUSH2 0x175E JUMP JUMPDEST PUSH1 0x40 MLOAD DUP1 SWAP2 SUB SWAP1 RETURN JUMPDEST PUSH32 0x0 DUP2 JUMP JUMPDEST PUSH32 0x0 DUP2 JUMP JUMPDEST PUSH1 0x5 DUP1 PUSH1 0x0 ADD SLOAD SWAP1 DUP1 PUSH1 0x1 ADD SLOAD SWAP1 DUP1 PUSH1 0x2 ADD SLOAD SWAP1 POP DUP4 JUMP JUMPDEST PUSH1 0x0 PUSH2 0x27E PUSH8 0xAD7775A53FE0F6A9 PUSH1 0xC0 SHL PUSH2 0xA5F JUMP JUMPDEST PUSH2 0x292 PUSH8 0x8566F12B386EAE1F PUSH1 0xC0 SHL PUSH2 0xA5F JUMP JUMPDEST PUSH2 0x2A6 PUSH8 0x766E712465820B89 PUSH1 0xC0 SHL PUSH2 0xA5F JUMP JUMPDEST PUSH2 0x2BA PUSH8 0xCF3F2C9D9C7CC147 PUSH1 0xC0 SHL PUSH2 0xA5F JUMP JUMPDEST PUSH32 0x0 PUSH20 0xFFFFFFFFFFFFFFFFFFFFFFFFFFFFFFFFFFFFFFFF AND CALLER PUSH20 0xFFFFFFFFFFFFFFFFFFFFFFFFFFFFFFFFFFFFFFFF AND EQ PUSH2 0x348 JUMPI PUSH1 0x40 MLOAD PUSH32 0x8C379A000000000000000000000000000000000000000000000000000000000 DUP2 MSTORE PUSH1 0x4 ADD PUSH2 0x33F SWAP1 PUSH2 0x17CC JUMP JUMPDEST PUSH1 0x40 MLOAD DUP1 SWAP2 SUB SWAP1 REVERT JUMPDEST PUSH2 0x35C PUSH8 0xFFF7A4A3731643C1 PUSH1 0xC0 SHL PUSH2 0xA5F JUMP JUMPDEST PUSH2 0x370 PUSH8 0x4EE06FBDEBFE1606 PUSH1 0xC0 SHL PUSH2 0xA5F JUMP JUMPDEST PUSH2 0x384 PUSH8 0x2449219BFD56CCA PUSH1 0xC0 SHL PUSH2 0xA5F JUMP JUMPDEST PUSH1 0x0 PUSH2 0x399 DUP4 DUP6 PUSH2 0xA62 SWAP1 SWAP2 SWAP1 PUSH4 0xFFFFFFFF AND JUMP JUMPDEST SWAP1 POP PUSH2 0x3AF PUSH8 0xD652638AFD57D6DA PUSH1 0xC0 SHL PUSH2 0xA5F JUMP JUMPDEST PUSH2 0x3C3 PUSH8 0xFBEEB7988A1B2A85 PUSH1 0xC0 SHL PUSH2 0xA5F JUMP JUMPDEST PUSH2 0x3D7 PUSH8 0x4E6174C9AD189092 PUSH1 0xC0 SHL PUSH2 0xA5F JUMP JUMPDEST PUSH32 0x0 PUSH20 0xFFFFFFFFFFFFFFFFFFFFFFFFFFFFFFFFFFFFFFFF AND DUP2 PUSH20 0xFFFFFFFFFFFFFFFFFFFFFFFFFFFFFFFFFFFFFFFF AND EQ PUSH2 0x465 JUMPI PUSH1 0x40 MLOAD PUSH32 0x8C379A000000000000000000000000000000000000000000000000000000000 DUP2 MSTORE PUSH1 0x4 ADD PUSH2 0x45C SWAP1 PUSH2 0x1838 JUMP JUMPDEST PUSH1 0x40 MLOAD DUP1 SWAP2 SUB SWAP1 REVERT JUMPDEST PUSH2 0x479 PUSH8 0x68F7D29C25A405DD PUSH1 0xC0 SHL PUSH2 0xA5F JUMP JUMPDEST PUSH2 0x48D PUSH8 0x246171F835003A16 PUSH1 0xC0 SHL PUSH2 0xA5F JUMP JUMPDEST PUSH2 0x4A1 PUSH8 0x3A3A55195E6613B4 PUSH1 0xC0 SHL PUSH2 0xA5F JUMP JUMPDEST PUSH1 0x0 PUSH1 0x40 MLOAD DUP1 PUSH1 0x60 ADD PUSH1 0x40 MSTORE DUP1 DUP8 DUP2 MSTORE PUSH1 0x20 ADD DUP9 DUP2 MSTORE PUSH1 0x20 ADD TIMESTAMP DUP2 MSTORE POP SWAP1 POP PUSH2 0x4D4 PUSH8 0x1CB39DD58006821D PUSH1 0xC0 SHL PUSH2 0xA5F JUMP JUMPDEST PUSH2 0x4E8 PUSH8 0x68F522A594C9BF25 PUSH1 0xC0 SHL PUSH2 0xA5F JUMP JUMPDEST PUSH1 0x4 DUP2 SWAP1 DUP1 PUSH1 0x1 DUP2 SLOAD ADD DUP1 DUP3 SSTORE DUP1 SWAP2 POP POP PUSH1 0x1 SWAP1 SUB SWAP1 PUSH1 0x0 MSTORE PUSH1 0x20 PUSH1 0x0 KECCAK256 SWAP1 PUSH1 0x3 MUL ADD PUSH1 0x0 SWAP1 SWAP2 SWAP1 SWAP2 SWAP1 SWAP2 POP PUSH1 0x0 DUP3 ADD MLOAD DUP2 PUSH1 0x0 ADD SSTORE PUSH1 0x20 DUP3 ADD MLOAD DUP2 PUSH1 0x1 ADD SSTORE PUSH1 0x40 DUP3 ADD MLOAD DUP2 PUSH1 0x2 ADD SSTORE POP POP PUSH2 0x548 PUSH8 0x217884282E61AF3B PUSH1 0xC0 SHL PUSH2 0xA5F JUMP JUMPDEST DUP1 PUSH1 0x5 PUSH1 0x0 DUP3 ADD MLOAD DUP2 PUSH1 0x0 ADD SSTORE PUSH1 0x20 DUP3 ADD MLOAD DUP2 PUSH1 0x1 ADD SSTORE PUSH1 0x40 DUP3 ADD MLOAD DUP2 PUSH1 0x2 ADD SSTORE SWAP1 POP POP PUSH2 0x580 PUSH8 0xD972D69CC79EAAE5 PUSH1 0xC0 SHL PUSH2 0xA5F JUMP JUMPDEST DUP6 PUSH1 0x2 DUP2 SWAP1 SSTORE POP PUSH2 0x59B PUSH8 0x67658EB6B6538E4B PUSH1 0xC0 SHL PUSH2 0xA5F JUMP JUMPDEST PUSH2 0x5AF PUSH8 0xDECE97D36323C94E PUSH1 0xC0 SHL PUSH2 0xA5F JUMP JUMPDEST PUSH1 0x1 SWAP3 POP POP POP SWAP5 SWAP4 POP POP POP POP JUMP JUMPDEST PUSH1 0x4 DUP2 DUP2 SLOAD DUP2 LT PUSH2 0x5CD JUMPI PUSH1 0x0 DUP1 REVERT JUMPDEST SWAP1 PUSH1 0x0 MSTORE PUSH1 0x20 PUSH1 0x0 KECCAK256 SWAP1 PUSH1 0x3 MUL ADD PUSH1 0x0 SWAP2 POP SWAP1 POP DUP1 PUSH1 0x0 ADD SLOAD SWAP1 DUP1 PUSH1 0x1 ADD SLOAD SWAP1 DUP1 PUSH1 0x2 ADD SLOAD SWAP1 POP DUP4 JUMP JUMPDEST PUSH1 0x0 PUSH1 0x20 MSTORE DUP1 PUSH1 0x0 MSTORE PUSH1 0x40 PUSH1 0x0 KECCAK256 PUSH1 0x0 SWAP2 POP SWAP1 POP DUP1 PUSH1 0x0 ADD SLOAD SWAP1 DUP1 PUSH1 0x1 ADD PUSH1 0x0 SWAP1 SLOAD SWAP1 PUSH2 0x100 EXP SWAP1 DIV PUSH20 0xFFFFFFFFFFFFFFFFFFFFFFFFFFFFFFFFFFFFFFFF AND SWAP1 DUP1 PUSH1 0x2 ADD SLOAD SWAP1 DUP1 PUSH1 0x3 ADD PUSH1 0x0 SWAP1 SLOAD SWAP1 PUSH2 0x100 EXP SWAP1 DIV PUSH1 0xE0 SHL SWAP1 DUP1 PUSH1 0x3 ADD PUSH1 0x4 SWAP1 SLOAD SWAP1 PUSH2 0x100 EXP SWAP1 DIV PUSH20 0xFFFFFFFFFFFFFFFFFFFFFFFFFFFFFFFFFFFFFFFF AND SWAP1 DUP1 PUSH1 0x4 ADD SLOAD SWAP1 DUP1 PUSH1 0x5 ADD SLOAD SWAP1 POP DUP8 JUMP JUMPDEST PUSH1 0x1 SLOAD DUP2 JUMP JUMPDEST PUSH1 0x0 PUSH2 0x6A2 PUSH8 0x166A56EA18CD6997 PUSH1 0xC0 SHL PUSH2 0xA5F JUMP JUMPDEST PUSH2 0x6B6 PUSH8 0x7F8496FD20173261 PUSH1 0xC0 SHL PUSH2 0xA5F JUMP JUMPDEST PUSH2 0x6CA PUSH8 0xFC6193001C828819 PUSH1 0xC0 SHL PUSH2 0xA5F JUMP JUMPDEST PUSH2 0x6DE PUSH8 0x9AB4BD5988D83181 PUSH1 0xC0 SHL PUSH2 0xA5F JUMP JUMPDEST PUSH2 0x6E7 CALLER PUSH2 0xA89 JUMP JUMPDEST PUSH2 0x726 JUMPI PUSH1 0x40 MLOAD PUSH32 0x8C379A000000000000000000000000000000000000000000000000000000000 DUP2 MSTORE PUSH1 0x4 ADD PUSH2 0x71D SWAP1 PUSH2 0x18CA JUMP JUMPDEST PUSH1 0x40 MLOAD DUP1 SWAP2 SUB SWAP1 REVERT JUMPDEST PUSH2 0x73A PUSH8 0xF506F8BC883D96BD PUSH1 0xC0 SHL PUSH2 0xA5F JUMP JUMPDEST PUSH2 0x74E PUSH8 0x723CF841992ADFC9 PUSH1 0xC0 SHL PUSH2 0xA5F JUMP JUMPDEST PUSH2 0x762 PUSH8 0x12FF2441354E9C5C PUSH1 0xC0 SHL PUSH2 0xA5F JUMP JUMPDEST PUSH1 0x0 PUSH1 0x3 SLOAD PUSH32 0x0 PUSH32 0x0 DUP7 DUP7 PUSH1 0x2 SLOAD TIMESTAMP PUSH1 0x40 MLOAD PUSH1 0x20 ADD PUSH2 0x7C5 SWAP8 SWAP7 SWAP6 SWAP5 SWAP4 SWAP3 SWAP2 SWAP1 PUSH2 0x1995 JUMP JUMPDEST PUSH1 0x40 MLOAD PUSH1 0x20 DUP2 DUP4 SUB SUB DUP2 MSTORE SWAP1 PUSH1 0x40 MSTORE DUP1 MLOAD SWAP1 PUSH1 0x20 ADD KECCAK256 SWAP1 POP PUSH2 0x7F1 PUSH8 0x5C33CFF9CEF7921C PUSH1 0xC0 SHL PUSH2 0xA5F JUMP JUMPDEST PUSH2 0x805 PUSH8 0x930D33680E306A83 PUSH1 0xC0 SHL PUSH2 0xA5F JUMP JUMPDEST PUSH1 0x0 PUSH1 0x40 MLOAD DUP1 PUSH1 0xE0 ADD PUSH1 0x40 MSTORE DUP1 DUP4 DUP2 MSTORE PUSH1 0x20 ADD PUSH32 0x0 PUSH20 0xFFFFFFFFFFFFFFFFFFFFFFFFFFFFFFFFFFFFFFFF AND DUP2 MSTORE PUSH1 0x20 ADD PUSH32 0x0 DUP2 MSTORE PUSH1 0x20 ADD DUP7 PUSH28 0xFFFFFFFFFFFFFFFFFFFFFFFFFFFFFFFFFFFFFFFFFFFFFFFFFFFFFFFF NOT AND DUP2 MSTORE PUSH1 0x20 ADD DUP6 PUSH20 0xFFFFFFFFFFFFFFFFFFFFFFFFFFFFFFFFFFFFFFFF AND DUP2 MSTORE PUSH1 0x20 ADD PUSH1 0x5 PUSH1 0x0 ADD SLOAD DUP2 MSTORE PUSH1 0x20 ADD TIMESTAMP DUP2 MSTORE POP SWAP1 POP PUSH2 0x8E0 PUSH8 0xDD4C326BFB73AFB PUSH1 0xC0 SHL PUSH2 0xA5F JUMP JUMPDEST PUSH2 0x8F4 PUSH8 0xEEDE3FEBF9C42513 PUSH1 0xC0 SHL PUSH2 0xA5F JUMP JUMPDEST PUSH32 0x7A6060117DB4511B5FFD88545B9B43962C0AE441D1F07D05C86B869490D88369 DUP3 PUSH1 0x40 MLOAD PUSH2 0x923 SWAP2 SWAP1 PUSH2 0x1252 JUMP JUMPDEST PUSH1 0x40 MLOAD DUP1 SWAP2 SUB SWAP1 LOG1 PUSH2 0x93F PUSH8 0x7891CC42A409D60C PUSH1 0xC0 SHL PUSH2 0xA5F JUMP JUMPDEST PUSH2 0x953 PUSH8 0x9E5A3B8C60294DE3 PUSH1 0xC0 SHL PUSH2 0xA5F JUMP JUMPDEST PUSH1 0x0 PUSH2 0x95F DUP4 DUP4 PUSH2 0xB8F JUMP JUMPDEST SWAP1 POP PUSH2 0x975 PUSH8 0xCC2922C072A5567F PUSH1 0xC0 SHL PUSH2 0xA5F JUMP JUMPDEST PUSH2 0x989 PUSH8 0x1BC7DBCE972CBAF9 PUSH1 0xC0 SHL PUSH2 0xA5F JUMP JUMPDEST PUSH2 0x99D PUSH8 0xC1206812772A75CE PUSH1 0xC0 SHL PUSH2 0xA5F JUMP JUMPDEST DUP1 PUSH2 0x9DD JUMPI PUSH1 0x40 MLOAD PUSH32 0x8C379A000000000000000000000000000000000000000000000000000000000 DUP2 MSTORE PUSH1 0x4 ADD PUSH2 0x9D4 SWAP1 PUSH2 0x1A88 JUMP JUMPDEST PUSH1 0x40 MLOAD DUP1 SWAP2 SUB SWAP1 REVERT JUMPDEST PUSH2 0x9F1 PUSH8 0x5D64DB2C17F29C3B PUSH1 0xC0 SHL PUSH2 0xA5F JUMP JUMPDEST PUSH2 0xA05 PUSH8 0xECC97A6684CB2A95 PUSH1 0xC0 SHL PUSH2 0xA5F JUMP JUMPDEST PUSH2 0xA19 PUSH8 0x57506FCE5DA81F38 PUSH1 0xC0 SHL PUSH2 0xA5F JUMP JUMPDEST PUSH1 0x1 SWAP4 POP POP POP POP SWAP3 SWAP2 POP POP JUMP JUMPDEST PUSH1 0x40 MLOAD DUP1 PUSH1 0x40 ADD PUSH1 0x40 MSTORE DUP1 PUSH1 0x6 DUP2 MSTORE PUSH1 0x20 ADD PUSH32 0x76312E302E300000000000000000000000000000000000000000000000000000 DUP2 MSTORE POP DUP2 JUMP JUMPDEST POP JUMP JUMPDEST PUSH1 0x0 DUP1 PUSH1 0x0 PUSH2 0xA71 DUP6 DUP6 PUSH2 0xE61 JUMP JUMPDEST SWAP2 POP SWAP2 POP PUSH2 0xA7E DUP2 PUSH2 0xEB2 JUMP JUMPDEST DUP2 SWAP3 POP POP POP SWAP3 SWAP2 POP POP JUMP JUMPDEST PUSH1 0x0 PUSH2 0xA9F PUSH8 0x766DE5E8F4E976C6 PUSH1 0xC0 SHL PUSH2 0x1018 JUMP JUMPDEST PUSH2 0xAB3 PUSH8 0xF8DDBD2F54DF185A PUSH1 0xC0 SHL PUSH2 0x1018 JUMP JUMPDEST PUSH2 0xAC7 PUSH8 0xED747CD5705625FE PUSH1 0xC0 SHL PUSH2 0x1018 JUMP JUMPDEST PUSH2 0xADB PUSH8 0x8952B7B66543F45 PUSH1 0xC0 SHL PUSH2 0x1018 JUMP JUMPDEST PUSH1 0x0 PUSH20 0xFFFFFFFFFFFFFFFFFFFFFFFFFFFFFFFFFFFFFFFF AND DUP3 PUSH20 0xFFFFFFFFFFFFFFFFFFFFFFFFFFFFFFFFFFFFFFFF AND SUB PUSH2 0xB4A JUMPI PUSH1 0x40 MLOAD PUSH32 0x8C379A000000000000000000000000000000000000000000000000000000000 DUP2 MSTORE PUSH1 0x4 ADD PUSH2 0xB41 SWAP1 PUSH2 0x1AF4 JUMP JUMPDEST PUSH1 0x40 MLOAD DUP1 SWAP2 SUB SWAP1 REVERT JUMPDEST PUSH2 0xB5E PUSH8 0x4B8F21D1C41397C5 PUSH1 0xC0 SHL PUSH2 0x1018 JUMP JUMPDEST PUSH2 0xB72 PUSH8 0x2C9D2DC77E403337 PUSH1 0xC0 SHL PUSH2 0x1018 JUMP JUMPDEST PUSH2 0xB86 PUSH8 0x7BA6F694C0E00D50 PUSH1 0xC0 SHL PUSH2 0x1018 JUMP JUMPDEST PUSH1 0x1 SWAP1 POP SWAP2 SWAP1 POP JUMP JUMPDEST PUSH1 0x0 PUSH2 0xBA5 PUSH8 0x609D0340E138A2B PUSH1 0xC0 SHL PUSH2 0xA5F JUMP JUMPDEST PUSH2 0xBB9 PUSH8 0x13F761B94DD8DC76 PUSH1 0xC0 SHL PUSH2 0xA5F JUMP JUMPDEST PUSH2 0xBCD PUSH8 0x9212B9728C5CDBA8 PUSH1 0xC0 SHL PUSH2 0xA5F JUMP JUMPDEST PUSH2 0xBE1 PUSH8 0xF6156BEF2F90ADA5 PUSH1 0xC0 SHL PUSH2 0xA5F JUMP JUMPDEST PUSH2 0xBEA DUP3 PUSH2 0x101B JUMP JUMPDEST PUSH2 0xC29 JUMPI PUSH1 0x40 MLOAD PUSH32 0x8C379A000000000000000000000000000000000000000000000000000000000 DUP2 MSTORE PUSH1 0x4 ADD PUSH2 0xC20 SWAP1 PUSH2 0x1B60 JUMP JUMPDEST PUSH1 0x40 MLOAD DUP1 SWAP2 SUB SWAP1 REVERT JUMPDEST PUSH2 0xC3D PUSH8 0xBC2E7B454D155B2F PUSH1 0xC0 SHL PUSH2 0xA5F JUMP JUMPDEST PUSH2 0xC51 PUSH8 0xD8851E774251E7A6 PUSH1 0xC0 SHL PUSH2 0xA5F JUMP JUMPDEST DUP2 PUSH1 0x0 DUP1 DUP6 DUP2 MSTORE PUSH1 0x20 ADD SWAP1 DUP2 MSTORE PUSH1 0x20 ADD PUSH1 0x0 KECCAK256 PUSH1 0x0 DUP3 ADD MLOAD DUP2 PUSH1 0x0 ADD SSTORE PUSH1 0x20 DUP3 ADD MLOAD DUP2 PUSH1 0x1 ADD PUSH1 0x0 PUSH2 0x100 EXP DUP2 SLOAD DUP2 PUSH20 0xFFFFFFFFFFFFFFFFFFFFFFFFFFFFFFFFFFFFFFFF MUL NOT AND SWAP1 DUP4 PUSH20 0xFFFFFFFFFFFFFFFFFFFFFFFFFFFFFFFFFFFFFFFF AND MUL OR SWAP1 SSTORE POP PUSH1 0x40 DUP3 ADD MLOAD DUP2 PUSH1 0x2 ADD SSTORE PUSH1 0x60 DUP3 ADD MLOAD DUP2 PUSH1 0x3 ADD PUSH1 0x0 PUSH2 0x100 EXP DUP2 SLOAD DUP2 PUSH4 0xFFFFFFFF MUL NOT AND SWAP1 DUP4 PUSH1 0xE0 SHR MUL OR SWAP1 SSTORE POP PUSH1 0x80 DUP3 ADD MLOAD DUP2 PUSH1 0x3 ADD PUSH1 0x4 PUSH2 0x100 EXP DUP2 SLOAD DUP2 PUSH20 0xFFFFFFFFFFFFFFFFFFFFFFFFFFFFFFFFFFFFFFFF MUL NOT AND SWAP1 DUP4 PUSH20 0xFFFFFFFFFFFFFFFFFFFFFFFFFFFFFFFFFFFFFFFF AND MUL OR SWAP1 SSTORE POP PUSH1 0xA0 DUP3 ADD MLOAD DUP2 PUSH1 0x4 ADD SSTORE PUSH1 0xC0 DUP3 ADD MLOAD DUP2 PUSH1 0x5 ADD SSTORE SWAP1 POP POP PUSH2 0xD55 PUSH8 0xE8B2D4009073C0C1 PUSH1 0xC0 SHL PUSH2 0xA5F JUMP JUMPDEST PUSH1 0x1 PUSH1 0x0 DUP2 SLOAD DUP1 SWAP3 SWAP2 SWAP1 PUSH2 0xD68 SWAP1 PUSH2 0x1BAF JUMP JUMPDEST SWAP2 SWAP1 POP SSTORE POP PUSH2 0xD81 PUSH8 0x7D8051FE12236B2F PUSH1 0xC0 SHL PUSH2 0xA5F JUMP JUMPDEST PUSH2 0xD95 PUSH8 0xC5F27E3B0F2B2FE PUSH1 0xC0 SHL PUSH2 0xA5F JUMP JUMPDEST PUSH1 0x0 DUP3 PUSH1 0x80 ADD MLOAD PUSH20 0xFFFFFFFFFFFFFFFFFFFFFFFFFFFFFFFFFFFFFFFF AND DUP4 PUSH1 0x60 ADD MLOAD DUP5 PUSH1 0xA0 ADD MLOAD PUSH1 0x40 MLOAD PUSH1 0x20 ADD PUSH2 0xDCD SWAP3 SWAP2 SWAP1 PUSH2 0x1BF7 JUMP JUMPDEST PUSH1 0x40 MLOAD PUSH1 0x20 DUP2 DUP4 SUB SUB DUP2 MSTORE SWAP1 PUSH1 0x40 MSTORE PUSH1 0x40 MLOAD PUSH2 0xDE9 SWAP2 SWAP1 PUSH2 0x1C6A JUMP JUMPDEST PUSH1 0x0 PUSH1 0x40 MLOAD DUP1 DUP4 SUB DUP2 PUSH1 0x0 DUP7 GAS CALL SWAP2 POP POP RETURNDATASIZE DUP1 PUSH1 0x0 DUP2 EQ PUSH2 0xE26 JUMPI PUSH1 0x40 MLOAD SWAP2 POP PUSH1 0x1F NOT PUSH1 0x3F RETURNDATASIZE ADD AND DUP3 ADD PUSH1 0x40 MSTORE RETURNDATASIZE DUP3 MSTORE RETURNDATASIZE PUSH1 0x0 PUSH1 0x20 DUP5 ADD RETURNDATACOPY PUSH2 0xE2B JUMP JUMPDEST PUSH1 0x60 SWAP2 POP JUMPDEST POP POP SWAP1 POP PUSH2 0xE43 PUSH8 0x6DC6CE2A396B4C6F PUSH1 0xC0 SHL PUSH2 0xA5F JUMP JUMPDEST PUSH2 0xE57 PUSH8 0x742D90E776C0E7FB PUSH1 0xC0 SHL PUSH2 0xA5F JUMP JUMPDEST DUP1 SWAP2 POP POP SWAP3 SWAP2 POP POP JUMP JUMPDEST PUSH1 0x0 DUP1 PUSH1 0x41 DUP4 MLOAD SUB PUSH2 0xEA2 JUMPI PUSH1 0x0 DUP1 PUSH1 0x0 PUSH1 0x20 DUP7 ADD MLOAD SWAP3 POP PUSH1 0x40 DUP7 ADD MLOAD SWAP2 POP PUSH1 0x60 DUP7 ADD MLOAD PUSH1 0x0 BYTE SWAP1 POP PUSH2 0xE96 DUP8 DUP3 DUP6 DUP6 PUSH2 0x10FB JUMP JUMPDEST SWAP5 POP SWAP5 POP POP POP POP PUSH2 0xEAB JUMP JUMPDEST PUSH1 0x0 PUSH1 0x2 SWAP2 POP SWAP2 POP JUMPDEST SWAP3 POP SWAP3 SWAP1 POP JUMP JUMPDEST PUSH1 0x0 PUSH1 0x4 DUP2 GT ISZERO PUSH2 0xEC6 JUMPI PUSH2 0xEC5 PUSH2 0x1C81 JUMP JUMPDEST JUMPDEST DUP2 PUSH1 0x4 DUP2 GT ISZERO PUSH2 0xED9 JUMPI PUSH2 0xED8 PUSH2 0x1C81 JUMP JUMPDEST JUMPDEST SUB ISZERO PUSH2 0x1015 JUMPI PUSH1 0x1 PUSH1 0x4 DUP2 GT ISZERO PUSH2 0xEF3 JUMPI PUSH2 0xEF2 PUSH2 0x1C81 JUMP JUMPDEST JUMPDEST DUP2 PUSH1 0x4 DUP2 GT ISZERO PUSH2 0xF06 JUMPI PUSH2 0xF05 PUSH2 0x1C81 JUMP JUMPDEST JUMPDEST SUB PUSH2 0xF46 JUMPI PUSH1 0x40 MLOAD PUSH32 0x8C379A000000000000000000000000000000000000000000000000000000000 DUP2 MSTORE PUSH1 0x4 ADD PUSH2 0xF3D SWAP1 PUSH2 0x1CFC JUMP JUMPDEST PUSH1 0x40 MLOAD DUP1 SWAP2 SUB SWAP1 REVERT JUMPDEST PUSH1 0x2 PUSH1 0x4 DUP2 GT ISZERO PUSH2 0xF5A JUMPI PUSH2 0xF59 PUSH2 0x1C81 JUMP JUMPDEST JUMPDEST DUP2 PUSH1 0x4 DUP2 GT ISZERO PUSH2 0xF6D JUMPI PUSH2 0xF6C PUSH2 0x1C81 JUMP JUMPDEST JUMPDEST SUB PUSH2 0xFAD JUMPI PUSH1 0x40 MLOAD PUSH32 0x8C379A000000000000000000000000000000000000000000000000000000000 DUP2 MSTORE PUSH1 0x4 ADD PUSH2 0xFA4 SWAP1 PUSH2 0x1D68 JUMP JUMPDEST PUSH1 0x40 MLOAD DUP1 SWAP2 SUB SWAP1 REVERT JUMPDEST PUSH1 0x3 PUSH1 0x4 DUP2 GT ISZERO PUSH2 0xFC1 JUMPI PUSH2 0xFC0 PUSH2 0x1C81 JUMP JUMPDEST JUMPDEST DUP2 PUSH1 0x4 DUP2 GT ISZERO PUSH2 0xFD4 JUMPI PUSH2 0xFD3 PUSH2 0x1C81 JUMP JUMPDEST JUMPDEST SUB PUSH2 0x1014 JUMPI PUSH1 0x40 MLOAD PUSH32 0x8C379A000000000000000000000000000000000000000000000000000000000 DUP2 MSTORE PUSH1 0x4 ADD PUSH2 0x100B SWAP1 PUSH2 0x1DFA JUMP JUMPDEST PUSH1 0x40 MLOAD DUP1 SWAP2 SUB SWAP1 REVERT JUMPDEST JUMPDEST POP JUMP JUMPDEST POP JUMP JUMPDEST PUSH1 0x0 PUSH2 0x1031 PUSH8 0x82209DED9EDE3E7 PUSH1 0xC0 SHL PUSH2 0x1018 JUMP JUMPDEST PUSH2 0x1045 PUSH8 0x1628C20BDCFF7E05 PUSH1 0xC0 SHL PUSH2 0x1018 JUMP JUMPDEST PUSH2 0x1059 PUSH8 0xAAE5E32FAACBA6DD PUSH1 0xC0 SHL PUSH2 0x1018 JUMP JUMPDEST PUSH2 0x106D PUSH8 0xFC4802CEE098E52F PUSH1 0xC0 SHL PUSH2 0x1018 JUMP JUMPDEST PUSH1 0x0 DUP1 SHL DUP3 PUSH1 0xA0 ADD MLOAD SUB PUSH2 0x10B6 JUMPI PUSH1 0x40 MLOAD PUSH32 0x8C379A000000000000000000000000000000000000000000000000000000000 DUP2 MSTORE PUSH1 0x4 ADD PUSH2 0x10AD SWAP1 PUSH2 0x1E66 JUMP JUMPDEST PUSH1 0x40 MLOAD DUP1 SWAP2 SUB SWAP1 REVERT JUMPDEST PUSH2 0x10CA PUSH8 0x50CEDBCD242AC1B9 PUSH1 0xC0 SHL PUSH2 0x1018 JUMP JUMPDEST PUSH2 0x10DE PUSH8 0x527A14BC33C0476 PUSH1 0xC0 SHL PUSH2 0x1018 JUMP JUMPDEST PUSH2 0x10F2 PUSH8 0x1437869648329F4A PUSH1 0xC0 SHL PUSH2 0x1018 JUMP JUMPDEST PUSH1 0x1 SWAP1 POP SWAP2 SWAP1 POP JUMP JUMPDEST PUSH1 0x0 DUP1 PUSH32 0x7FFFFFFFFFFFFFFFFFFFFFFFFFFFFFFF5D576E7357A4501DDFE92F46681B20A0 DUP4 PUSH1 0x0 SHR GT ISZERO PUSH2 0x1136 JUMPI PUSH1 0x0 PUSH1 0x3 SWAP2 POP SWAP2 POP PUSH2 0x11D4 JUMP JUMPDEST PUSH1 0x0 PUSH1 0x1 DUP8 DUP8 DUP8 DUP8 PUSH1 0x40 MLOAD PUSH1 0x0 DUP2 MSTORE PUSH1 0x20 ADD PUSH1 0x40 MSTORE PUSH1 0x40 MLOAD PUSH2 0x115B SWAP5 SWAP4 SWAP3 SWAP2 SWAP1 PUSH2 0x1EA2 JUMP JUMPDEST PUSH1 0x20 PUSH1 0x40 MLOAD PUSH1 0x20 DUP2 SUB SWAP1 DUP1 DUP5 SUB SWAP1 DUP6 GAS STATICCALL ISZERO DUP1 ISZERO PUSH2 0x117D JUMPI RETURNDATASIZE PUSH1 0x0 DUP1 RETURNDATACOPY RETURNDATASIZE PUSH1 0x0 REVERT JUMPDEST POP POP POP PUSH1 0x20 PUSH1 0x40 MLOAD SUB MLOAD SWAP1 POP PUSH1 0x0 PUSH20 0xFFFFFFFFFFFFFFFFFFFFFFFFFFFFFFFFFFFFFFFF AND DUP2 PUSH20 0xFFFFFFFFFFFFFFFFFFFFFFFFFFFFFFFFFFFFFFFF AND SUB PUSH2 0x11CB JUMPI PUSH1 0x0 PUSH1 0x1 SWAP3 POP SWAP3 POP POP PUSH2 0x11D4 JUMP JUMPDEST DUP1 PUSH1 0x0 SWAP3 POP SWAP3 POP POP JUMPDEST SWAP5 POP SWAP5 SWAP3 POP POP POP JUMP JUMPDEST PUSH1 0x0 PUSH20 0xFFFFFFFFFFFFFFFFFFFFFFFFFFFFFFFFFFFFFFFF DUP3 AND SWAP1 POP SWAP2 SWAP1 POP JUMP JUMPDEST PUSH1 0x0 PUSH2 0x1208 DUP3 PUSH2 0x11DD JUMP JUMPDEST SWAP1 POP SWAP2 SWAP1 POP JUMP JUMPDEST PUSH2 0x1218 DUP2 PUSH2 0x11FD JUMP JUMPDEST DUP3 MSTORE POP POP JUMP JUMPDEST PUSH1 0x0 PUSH1 0x20 DUP3 ADD SWAP1 POP PUSH2 0x1233 PUSH1 0x0 DUP4 ADD DUP5 PUSH2 0x120F JUMP JUMPDEST SWAP3 SWAP2 POP POP JUMP JUMPDEST PUSH1 0x0 DUP2 SWAP1 POP SWAP2 SWAP1 POP JUMP JUMPDEST PUSH2 0x124C DUP2 PUSH2 0x1239 JUMP JUMPDEST DUP3 MSTORE POP POP JUMP JUMPDEST PUSH1 0x0 PUSH1 0x20 DUP3 ADD SWAP1 POP PUSH2 0x1267 PUSH1 0x0 DUP4 ADD DUP5 PUSH2 0x1243 JUMP JUMPDEST SWAP3 SWAP2 POP POP JUMP JUMPDEST PUSH1 0x0 DUP2 SWAP1 POP SWAP2 SWAP1 POP JUMP JUMPDEST PUSH2 0x1280 DUP2 PUSH2 0x126D JUMP JUMPDEST DUP3 MSTORE POP POP JUMP JUMPDEST PUSH1 0x0 PUSH1 0x60 DUP3 ADD SWAP1 POP PUSH2 0x129B PUSH1 0x0 DUP4 ADD DUP7 PUSH2 0x1243 JUMP JUMPDEST PUSH2 0x12A8 PUSH1 0x20 DUP4 ADD DUP6 PUSH2 0x1277 JUMP JUMPDEST PUSH2 0x12B5 PUSH1 0x40 DUP4 ADD DUP5 PUSH2 0x1277 JUMP JUMPDEST SWAP5 SWAP4 POP POP POP POP JUMP JUMPDEST PUSH1 0x0 PUSH1 0x40 MLOAD SWAP1 POP SWAP1 JUMP JUMPDEST PUSH1 0x0 DUP1 REVERT JUMPDEST PUSH1 0x0 DUP1 REVERT JUMPDEST PUSH2 0x12DA DUP2 PUSH2 0x126D JUMP JUMPDEST DUP2 EQ PUSH2 0x12E5 JUMPI PUSH1 0x0 DUP1 REVERT JUMPDEST POP JUMP JUMPDEST PUSH1 0x0 DUP2 CALLDATALOAD SWAP1 POP PUSH2 0x12F7 DUP2 PUSH2 0x12D1 JUMP JUMPDEST SWAP3 SWAP2 POP POP JUMP JUMPDEST PUSH2 0x1306 DUP2 PUSH2 0x1239 JUMP JUMPDEST DUP2 EQ PUSH2 0x1311 JUMPI PUSH1 0x0 DUP1 REVERT JUMPDEST POP JUMP JUMPDEST PUSH1 0x0 DUP2 CALLDATALOAD SWAP1 POP PUSH2 0x1323 DUP2 PUSH2 0x12FD JUMP JUMPDEST SWAP3 SWAP2 POP POP JUMP JUMPDEST PUSH1 0x0 DUP1 REVERT JUMPDEST PUSH1 0x0 DUP1 REVERT JUMPDEST PUSH1 0x0 PUSH1 0x1F NOT PUSH1 0x1F DUP4 ADD AND SWAP1 POP SWAP2 SWAP1 POP JUMP JUMPDEST PUSH32 0x4E487B7100000000000000000000000000000000000000000000000000000000 PUSH1 0x0 MSTORE PUSH1 0x41 PUSH1 0x4 MSTORE PUSH1 0x24 PUSH1 0x0 REVERT JUMPDEST PUSH2 0x137C DUP3 PUSH2 0x1333 JUMP JUMPDEST DUP2 ADD DUP2 DUP2 LT PUSH8 0xFFFFFFFFFFFFFFFF DUP3 GT OR ISZERO PUSH2 0x139B JUMPI PUSH2 0x139A PUSH2 0x1344 JUMP JUMPDEST JUMPDEST DUP1 PUSH1 0x40 MSTORE POP POP POP JUMP JUMPDEST PUSH1 0x0 PUSH2 0x13AE PUSH2 0x12BD JUMP JUMPDEST SWAP1 POP PUSH2 0x13BA DUP3 DUP3 PUSH2 0x1373 JUMP JUMPDEST SWAP2 SWAP1 POP JUMP JUMPDEST PUSH1 0x0 PUSH8 0xFFFFFFFFFFFFFFFF DUP3 GT ISZERO PUSH2 0x13DA JUMPI PUSH2 0x13D9 PUSH2 0x1344 JUMP JUMPDEST JUMPDEST PUSH2 0x13E3 DUP3 PUSH2 0x1333 JUMP JUMPDEST SWAP1 POP PUSH1 0x20 DUP2 ADD SWAP1 POP SWAP2 SWAP1 POP JUMP JUMPDEST DUP3 DUP2 DUP4 CALLDATACOPY PUSH1 0x0 DUP4 DUP4 ADD MSTORE POP POP POP JUMP JUMPDEST PUSH1 0x0 PUSH2 0x1412 PUSH2 0x140D DUP5 PUSH2 0x13BF JUMP JUMPDEST PUSH2 0x13A4 JUMP JUMPDEST SWAP1 POP DUP3 DUP2 MSTORE PUSH1 0x20 DUP2 ADD DUP5 DUP5 DUP5 ADD GT ISZERO PUSH2 0x142E JUMPI PUSH2 0x142D PUSH2 0x132E JUMP JUMPDEST JUMPDEST PUSH2 0x1439 DUP5 DUP3 DUP6 PUSH2 0x13F0 JUMP JUMPDEST POP SWAP4 SWAP3 POP POP POP JUMP JUMPDEST PUSH1 0x0 DUP3 PUSH1 0x1F DUP4 ADD SLT PUSH2 0x1456 JUMPI PUSH2 0x1455 PUSH2 0x1329 JUMP JUMPDEST JUMPDEST DUP2 CALLDATALOAD PUSH2 0x1466 DUP5 DUP3 PUSH1 0x20 DUP7 ADD PUSH2 0x13FF JUMP JUMPDEST SWAP2 POP POP SWAP3 SWAP2 POP POP JUMP JUMPDEST PUSH1 0x0 DUP1 PUSH1 0x0 DUP1 PUSH1 0x80 DUP6 DUP8 SUB SLT ISZERO PUSH2 0x1489 JUMPI PUSH2 0x1488 PUSH2 0x12C7 JUMP JUMPDEST JUMPDEST PUSH1 0x0 PUSH2 0x1497 DUP8 DUP3 DUP9 ADD PUSH2 0x12E8 JUMP JUMPDEST SWAP5 POP POP PUSH1 0x20 PUSH2 0x14A8 DUP8 DUP3 DUP9 ADD PUSH2 0x1314 JUMP JUMPDEST SWAP4 POP POP PUSH1 0x40 PUSH2 0x14B9 DUP8 DUP3 DUP9 ADD PUSH2 0x1314 JUMP JUMPDEST SWAP3 POP POP PUSH1 0x60 DUP6 ADD CALLDATALOAD PUSH8 0xFFFFFFFFFFFFFFFF DUP2 GT ISZERO PUSH2 0x14DA JUMPI PUSH2 0x14D9 PUSH2 0x12CC JUMP JUMPDEST JUMPDEST PUSH2 0x14E6 DUP8 DUP3 DUP9 ADD PUSH2 0x1441 JUMP JUMPDEST SWAP2 POP POP SWAP3 SWAP6 SWAP2 SWAP5 POP SWAP3 POP JUMP JUMPDEST PUSH1 0x0 DUP2 ISZERO ISZERO SWAP1 POP SWAP2 SWAP1 POP JUMP JUMPDEST PUSH2 0x1507 DUP2 PUSH2 0x14F2 JUMP JUMPDEST DUP3 MSTORE POP POP JUMP JUMPDEST PUSH1 0x0 PUSH1 0x20 DUP3 ADD SWAP1 POP PUSH2 0x1522 PUSH1 0x0 DUP4 ADD DUP5 PUSH2 0x14FE JUMP JUMPDEST SWAP3 SWAP2 POP POP JUMP JUMPDEST PUSH1 0x0 PUSH1 0x20 DUP3 DUP5 SUB SLT ISZERO PUSH2 0x153E JUMPI PUSH2 0x153D PUSH2 0x12C7 JUMP JUMPDEST JUMPDEST PUSH1 0x0 PUSH2 0x154C DUP5 DUP3 DUP6 ADD PUSH2 0x12E8 JUMP JUMPDEST SWAP2 POP POP SWAP3 SWAP2 POP POP JUMP JUMPDEST PUSH1 0x0 PUSH1 0x20 DUP3 DUP5 SUB SLT ISZERO PUSH2 0x156B JUMPI PUSH2 0x156A PUSH2 0x12C7 JUMP JUMPDEST JUMPDEST PUSH1 0x0 PUSH2 0x1579 DUP5 DUP3 DUP6 ADD PUSH2 0x1314 JUMP JUMPDEST SWAP2 POP POP SWAP3 SWAP2 POP POP JUMP JUMPDEST PUSH1 0x0 PUSH32 0xFFFFFFFF00000000000000000000000000000000000000000000000000000000 DUP3 AND SWAP1 POP SWAP2 SWAP1 POP JUMP JUMPDEST PUSH2 0x15B7 DUP2 PUSH2 0x1582 JUMP JUMPDEST DUP3 MSTORE POP POP JUMP JUMPDEST PUSH1 0x0 PUSH1 0xE0 DUP3 ADD SWAP1 POP PUSH2 0x15D2 PUSH1 0x0 DUP4 ADD DUP11 PUSH2 0x1243 JUMP JUMPDEST PUSH2 0x15DF PUSH1 0x20 DUP4 ADD DUP10 PUSH2 0x120F JUMP JUMPDEST PUSH2 0x15EC PUSH1 0x40 DUP4 ADD DUP9 PUSH2 0x1243 JUMP JUMPDEST PUSH2 0x15F9 PUSH1 0x60 DUP4 ADD DUP8 PUSH2 0x15AE JUMP JUMPDEST PUSH2 0x1606 PUSH1 0x80 DUP4 ADD DUP7 PUSH2 0x120F JUMP JUMPDEST PUSH2 0x1613 PUSH1 0xA0 DUP4 ADD DUP6 PUSH2 0x1243 JUMP JUMPDEST PUSH2 0x1620 PUSH1 0xC0 DUP4 ADD DUP5 PUSH2 0x1277 JUMP JUMPDEST SWAP9 SWAP8 POP POP POP POP POP POP POP POP JUMP JUMPDEST PUSH1 0x0 PUSH1 0x20 DUP3 ADD SWAP1 POP PUSH2 0x1641 PUSH1 0x0 DUP4 ADD DUP5 PUSH2 0x1277 JUMP JUMPDEST SWAP3 SWAP2 POP POP JUMP JUMPDEST PUSH2 0x1650 DUP2 PUSH2 0x1582 JUMP JUMPDEST DUP2 EQ PUSH2 0x165B JUMPI PUSH1 0x0 DUP1 REVERT JUMPDEST POP JUMP JUMPDEST PUSH1 0x0 DUP2 CALLDATALOAD SWAP1 POP PUSH2 0x166D DUP2 PUSH2 0x1647 JUMP JUMPDEST SWAP3 SWAP2 POP POP JUMP JUMPDEST PUSH2 0x167C DUP2 PUSH2 0x11FD JUMP JUMPDEST DUP2 EQ PUSH2 0x1687 JUMPI PUSH1 0x0 DUP1 REVERT JUMPDEST POP JUMP JUMPDEST PUSH1 0x0 DUP2 CALLDATALOAD SWAP1 POP PUSH2 0x1699 DUP2 PUSH2 0x1673 JUMP JUMPDEST SWAP3 SWAP2 POP POP JUMP JUMPDEST PUSH1 0x0 DUP1 PUSH1 0x40 DUP4 DUP6 SUB SLT ISZERO PUSH2 0x16B6 JUMPI PUSH2 0x16B5 PUSH2 0x12C7 JUMP JUMPDEST JUMPDEST PUSH1 0x0 PUSH2 0x16C4 DUP6 DUP3 DUP7 ADD PUSH2 0x165E JUMP JUMPDEST SWAP3 POP POP PUSH1 0x20 PUSH2 0x16D5 DUP6 DUP3 DUP7 ADD PUSH2 0x168A JUMP JUMPDEST SWAP2 POP POP SWAP3 POP SWAP3 SWAP1 POP JUMP JUMPDEST PUSH1 0x0 DUP2 MLOAD SWAP1 POP SWAP2 SWAP1 POP JUMP JUMPDEST PUSH1 0x0 DUP3 DUP3 MSTORE PUSH1 0x20 DUP3 ADD SWAP1 POP SWAP3 SWAP2 POP POP JUMP JUMPDEST PUSH1 0x0 JUMPDEST DUP4 DUP2 LT ISZERO PUSH2 0x1719 JUMPI DUP1 DUP3 ADD MLOAD DUP2 DUP5 ADD MSTORE PUSH1 0x20 DUP2 ADD SWAP1 POP PUSH2 0x16FE JUMP JUMPDEST PUSH1 0x0 DUP5 DUP5 ADD MSTORE POP POP POP POP JUMP JUMPDEST PUSH1 0x0 PUSH2 0x1730 DUP3 PUSH2 0x16DF JUMP JUMPDEST PUSH2 0x173A DUP2 DUP6 PUSH2 0x16EA JUMP JUMPDEST SWAP4 POP PUSH2 0x174A DUP2 DUP6 PUSH1 0x20 DUP7 ADD PUSH2 0x16FB JUMP JUMPDEST PUSH2 0x1753 DUP2 PUSH2 0x1333 JUMP JUMPDEST DUP5 ADD SWAP2 POP POP SWAP3 SWAP2 POP POP JUMP JUMPDEST PUSH1 0x0 PUSH1 0x20 DUP3 ADD SWAP1 POP DUP2 DUP2 SUB PUSH1 0x0 DUP4 ADD MSTORE PUSH2 0x1778 DUP2 DUP5 PUSH2 0x1725 JUMP JUMPDEST SWAP1 POP SWAP3 SWAP2 POP POP JUMP JUMPDEST PUSH32 0x4F7261636C653A206E6F646520756E6B6E6F776E000000000000000000000000 PUSH1 0x0 DUP3 ADD MSTORE POP JUMP JUMPDEST PUSH1 0x0 PUSH2 0x17B6 PUSH1 0x14 DUP4 PUSH2 0x16EA JUMP JUMPDEST SWAP2 POP PUSH2 0x17C1 DUP3 PUSH2 0x1780 JUMP JUMPDEST PUSH1 0x20 DUP3 ADD SWAP1 POP SWAP2 SWAP1 POP JUMP JUMPDEST PUSH1 0x0 PUSH1 0x20 DUP3 ADD SWAP1 POP DUP2 DUP2 SUB PUSH1 0x0 DUP4 ADD MSTORE PUSH2 0x17E5 DUP2 PUSH2 0x17A9 JUMP JUMPDEST SWAP1 POP SWAP2 SWAP1 POP JUMP JUMPDEST PUSH32 0x4F7261636C653A20496E76616C69642064617461000000000000000000000000 PUSH1 0x0 DUP3 ADD MSTORE POP JUMP JUMPDEST PUSH1 0x0 PUSH2 0x1822 PUSH1 0x14 DUP4 PUSH2 0x16EA JUMP JUMPDEST SWAP2 POP PUSH2 0x182D DUP3 PUSH2 0x17EC JUMP JUMPDEST PUSH1 0x20 DUP3 ADD SWAP1 POP SWAP2 SWAP1 POP JUMP JUMPDEST PUSH1 0x0 PUSH1 0x20 DUP3 ADD SWAP1 POP DUP2 DUP2 SUB PUSH1 0x0 DUP4 ADD MSTORE PUSH2 0x1851 DUP2 PUSH2 0x1815 JUMP JUMPDEST SWAP1 POP SWAP2 SWAP1 POP JUMP JUMPDEST PUSH32 0x4F7261636C653A205065726D697373696F6E206E656564656420666F7220636F PUSH1 0x0 DUP3 ADD MSTORE PUSH32 0x6E73756D65720000000000000000000000000000000000000000000000000000 PUSH1 0x20 DUP3 ADD MSTORE POP JUMP JUMPDEST PUSH1 0x0 PUSH2 0x18B4 PUSH1 0x26 DUP4 PUSH2 0x16EA JUMP JUMPDEST SWAP2 POP PUSH2 0x18BF DUP3 PUSH2 0x1858 JUMP JUMPDEST PUSH1 0x40 DUP3 ADD SWAP1 POP SWAP2 SWAP1 POP JUMP JUMPDEST PUSH1 0x0 PUSH1 0x20 DUP3 ADD SWAP1 POP DUP2 DUP2 SUB PUSH1 0x0 DUP4 ADD MSTORE PUSH2 0x18E3 DUP2 PUSH2 0x18A7 JUMP JUMPDEST SWAP1 POP SWAP2 SWAP1 POP JUMP JUMPDEST PUSH1 0x0 DUP2 SWAP1 POP SWAP2 SWAP1 POP JUMP JUMPDEST PUSH2 0x1905 PUSH2 0x1900 DUP3 PUSH2 0x1239 JUMP JUMPDEST PUSH2 0x18EA JUMP JUMPDEST DUP3 MSTORE POP POP JUMP JUMPDEST PUSH1 0x0 DUP2 PUSH1 0x60 SHL SWAP1 POP SWAP2 SWAP1 POP JUMP JUMPDEST PUSH1 0x0 PUSH2 0x1923 DUP3 PUSH2 0x190B JUMP JUMPDEST SWAP1 POP SWAP2 SWAP1 POP JUMP JUMPDEST PUSH1 0x0 PUSH2 0x1935 DUP3 PUSH2 0x1918 JUMP JUMPDEST SWAP1 POP SWAP2 SWAP1 POP JUMP JUMPDEST PUSH2 0x194D PUSH2 0x1948 DUP3 PUSH2 0x11FD JUMP JUMPDEST PUSH2 0x192A JUMP JUMPDEST DUP3 MSTORE POP POP JUMP JUMPDEST PUSH1 0x0 DUP2 SWAP1 POP SWAP2 SWAP1 POP JUMP JUMPDEST PUSH2 0x196E PUSH2 0x1969 DUP3 PUSH2 0x1582 JUMP JUMPDEST PUSH2 0x1953 JUMP JUMPDEST DUP3 MSTORE POP POP JUMP JUMPDEST PUSH1 0x0 DUP2 SWAP1 POP SWAP2 SWAP1 POP JUMP JUMPDEST PUSH2 0x198F PUSH2 0x198A DUP3 PUSH2 0x126D JUMP JUMPDEST PUSH2 0x1974 JUMP JUMPDEST DUP3 MSTORE POP POP JUMP JUMPDEST PUSH1 0x0 PUSH2 0x19A1 DUP3 DUP11 PUSH2 0x18F4 JUMP JUMPDEST PUSH1 0x20 DUP3 ADD SWAP2 POP PUSH2 0x19B1 DUP3 DUP10 PUSH2 0x193C JUMP JUMPDEST PUSH1 0x14 DUP3 ADD SWAP2 POP PUSH2 0x19C1 DUP3 DUP9 PUSH2 0x18F4 JUMP JUMPDEST PUSH1 0x20 DUP3 ADD SWAP2 POP PUSH2 0x19D1 DUP3 DUP8 PUSH2 0x195D JUMP JUMPDEST PUSH1 0x4 DUP3 ADD SWAP2 POP PUSH2 0x19E1 DUP3 DUP7 PUSH2 0x193C JUMP JUMPDEST PUSH1 0x14 DUP3 ADD SWAP2 POP PUSH2 0x19F1 DUP3 DUP6 PUSH2 0x18F4 JUMP JUMPDEST PUSH1 0x20 DUP3 ADD SWAP2 POP PUSH2 0x1A01 DUP3 DUP5 PUSH2 0x197E JUMP JUMPDEST PUSH1 0x20 DUP3 ADD SWAP2 POP DUP2 SWAP1 POP SWAP9 SWAP8 POP POP POP POP POP POP POP POP JUMP JUMPDEST PUSH32 0x4B6C61794F7261636C653A2072657175657374206E6F742066756C66696C6C65 PUSH1 0x0 DUP3 ADD MSTORE PUSH32 0x6400000000000000000000000000000000000000000000000000000000000000 PUSH1 0x20 DUP3 ADD MSTORE POP JUMP JUMPDEST PUSH1 0x0 PUSH2 0x1A72 PUSH1 0x21 DUP4 PUSH2 0x16EA JUMP JUMPDEST SWAP2 POP PUSH2 0x1A7D DUP3 PUSH2 0x1A16 JUMP JUMPDEST PUSH1 0x40 DUP3 ADD SWAP1 POP SWAP2 SWAP1 POP JUMP JUMPDEST PUSH1 0x0 PUSH1 0x20 DUP3 ADD SWAP1 POP DUP2 DUP2 SUB PUSH1 0x0 DUP4 ADD MSTORE PUSH2 0x1AA1 DUP2 PUSH2 0x1A65 JUMP JUMPDEST SWAP1 POP SWAP2 SWAP1 POP JUMP JUMPDEST PUSH32 0x4B6C61794F7261636C653A20636F6E73756D657220697320696E76616C696400 PUSH1 0x0 DUP3 ADD MSTORE POP JUMP JUMPDEST PUSH1 0x0 PUSH2 0x1ADE PUSH1 0x1F DUP4 PUSH2 0x16EA JUMP JUMPDEST SWAP2 POP PUSH2 0x1AE9 DUP3 PUSH2 0x1AA8 JUMP JUMPDEST PUSH1 0x20 DUP3 ADD SWAP1 POP SWAP2 SWAP1 POP JUMP JUMPDEST PUSH1 0x0 PUSH1 0x20 DUP3 ADD SWAP1 POP DUP2 DUP2 SUB PUSH1 0x0 DUP4 ADD MSTORE PUSH2 0x1B0D DUP2 PUSH2 0x1AD1 JUMP JUMPDEST SWAP1 POP SWAP2 SWAP1 POP JUMP JUMPDEST PUSH32 0x4B6C61794F7261636C653A2073756273637269626520746F2044500000000000 PUSH1 0x0 DUP3 ADD MSTORE POP JUMP JUMPDEST PUSH1 0x0 PUSH2 0x1B4A PUSH1 0x1B DUP4 PUSH2 0x16EA JUMP JUMPDEST SWAP2 POP PUSH2 0x1B55 DUP3 PUSH2 0x1B14 JUMP JUMPDEST PUSH1 0x20 DUP3 ADD SWAP1 POP SWAP2 SWAP1 POP JUMP JUMPDEST PUSH1 0x0 PUSH1 0x20 DUP3 ADD SWAP1 POP DUP2 DUP2 SUB PUSH1 0x0 DUP4 ADD MSTORE PUSH2 0x1B79 DUP2 PUSH2 0x1B3D JUMP JUMPDEST SWAP1 POP SWAP2 SWAP1 POP JUMP JUMPDEST PUSH32 0x4E487B7100000000000000000000000000000000000000000000000000000000 PUSH1 0x0 MSTORE PUSH1 0x11 PUSH1 0x4 MSTORE PUSH1 0x24 PUSH1 0x0 REVERT JUMPDEST PUSH1 0x0 PUSH2 0x1BBA DUP3 PUSH2 0x126D JUMP JUMPDEST SWAP2 POP PUSH32 0xFFFFFFFFFFFFFFFFFFFFFFFFFFFFFFFFFFFFFFFFFFFFFFFFFFFFFFFFFFFFFFFF DUP3 SUB PUSH2 0x1BEC JUMPI PUSH2 0x1BEB PUSH2 0x1B80 JUMP JUMPDEST JUMPDEST PUSH1 0x1 DUP3 ADD SWAP1 POP SWAP2 SWAP1 POP JUMP JUMPDEST PUSH1 0x0 PUSH2 0x1C03 DUP3 DUP6 PUSH2 0x195D JUMP JUMPDEST PUSH1 0x4 DUP3 ADD SWAP2 POP PUSH2 0x1C13 DUP3 DUP5 PUSH2 0x18F4 JUMP JUMPDEST PUSH1 0x20 DUP3 ADD SWAP2 POP DUP2 SWAP1 POP SWAP4 SWAP3 POP POP POP JUMP JUMPDEST PUSH1 0x0 DUP2 MLOAD SWAP1 POP SWAP2 SWAP1 POP JUMP JUMPDEST PUSH1 0x0 DUP2 SWAP1 POP SWAP3 SWAP2 POP POP JUMP JUMPDEST PUSH1 0x0 PUSH2 0x1C44 DUP3 PUSH2 0x1C23 JUMP JUMPDEST PUSH2 0x1C4E DUP2 DUP6 PUSH2 0x1C2E JUMP JUMPDEST SWAP4 POP PUSH2 0x1C5E DUP2 DUP6 PUSH1 0x20 DUP7 ADD PUSH2 0x16FB JUMP JUMPDEST DUP1 DUP5 ADD SWAP2 POP POP SWAP3 SWAP2 POP POP JUMP JUMPDEST PUSH1 0x0 PUSH2 0x1C76 DUP3 DUP5 PUSH2 0x1C39 JUMP JUMPDEST SWAP2 POP DUP2 SWAP1 POP SWAP3 SWAP2 POP POP JUMP JUMPDEST PUSH32 0x4E487B7100000000000000000000000000000000000000000000000000000000 PUSH1 0x0 MSTORE PUSH1 0x21 PUSH1 0x4 MSTORE PUSH1 0x24 PUSH1 0x0 REVERT JUMPDEST PUSH32 0x45434453413A20696E76616C6964207369676E61747572650000000000000000 PUSH1 0x0 DUP3 ADD MSTORE POP JUMP JUMPDEST PUSH1 0x0 PUSH2 0x1CE6 PUSH1 0x18 DUP4 PUSH2 0x16EA JUMP JUMPDEST SWAP2 POP PUSH2 0x1CF1 DUP3 PUSH2 0x1CB0 JUMP JUMPDEST PUSH1 0x20 DUP3 ADD SWAP1 POP SWAP2 SWAP1 POP JUMP JUMPDEST PUSH1 0x0 PUSH1 0x20 DUP3 ADD SWAP1 POP DUP2 DUP2 SUB PUSH1 0x0 DUP4 ADD MSTORE PUSH2 0x1D15 DUP2 PUSH2 0x1CD9 JUMP JUMPDEST SWAP1 POP SWAP2 SWAP1 POP JUMP JUMPDEST PUSH32 0x45434453413A20696E76616C6964207369676E6174757265206C656E67746800 PUSH1 0x0 DUP3 ADD MSTORE POP JUMP JUMPDEST PUSH1 0x0 PUSH2 0x1D52 PUSH1 0x1F DUP4 PUSH2 0x16EA JUMP JUMPDEST SWAP2 POP PUSH2 0x1D5D DUP3 PUSH2 0x1D1C JUMP JUMPDEST PUSH1 0x20 DUP3 ADD SWAP1 POP SWAP2 SWAP1 POP JUMP JUMPDEST PUSH1 0x0 PUSH1 0x20 DUP3 ADD SWAP1 POP DUP2 DUP2 SUB PUSH1 0x0 DUP4 ADD MSTORE PUSH2 0x1D81 DUP2 PUSH2 0x1D45 JUMP JUMPDEST SWAP1 POP SWAP2 SWAP1 POP JUMP JUMPDEST PUSH32 0x45434453413A20696E76616C6964207369676E6174757265202773272076616C PUSH1 0x0 DUP3 ADD MSTORE PUSH32 0x7565000000000000000000000000000000000000000000000000000000000000 PUSH1 0x20 DUP3 ADD MSTORE POP JUMP JUMPDEST PUSH1 0x0 PUSH2 0x1DE4 PUSH1 0x22 DUP4 PUSH2 0x16EA JUMP JUMPDEST SWAP2 POP PUSH2 0x1DEF DUP3 PUSH2 0x1D88 JUMP JUMPDEST PUSH1 0x40 DUP3 ADD SWAP1 POP SWAP2 SWAP1 POP JUMP JUMPDEST PUSH1 0x0 PUSH1 0x20 DUP3 ADD SWAP1 POP DUP2 DUP2 SUB PUSH1 0x0 DUP4 ADD MSTORE PUSH2 0x1E13 DUP2 PUSH2 0x1DD7 JUMP JUMPDEST SWAP1 POP SWAP2 SWAP1 POP JUMP JUMPDEST PUSH32 0x4B6C61794F7261636C653A206461746120697320656D70747900000000000000 PUSH1 0x0 DUP3 ADD MSTORE POP JUMP JUMPDEST PUSH1 0x0 PUSH2 0x1E50 PUSH1 0x19 DUP4 PUSH2 0x16EA JUMP JUMPDEST SWAP2 POP PUSH2 0x1E5B DUP3 PUSH2 0x1E1A JUMP JUMPDEST PUSH1 0x20 DUP3 ADD SWAP1 POP SWAP2 SWAP1 POP JUMP JUMPDEST PUSH1 0x0 PUSH1 0x20 DUP3 ADD SWAP1 POP DUP2 DUP2 SUB PUSH1 0x0 DUP4 ADD MSTORE PUSH2 0x1E7F DUP2 PUSH2 0x1E43 JUMP JUMPDEST SWAP1 POP SWAP2 SWAP1 POP JUMP JUMPDEST PUSH1 0x0 PUSH1 0xFF DUP3 AND SWAP1 POP SWAP2 SWAP1 POP JUMP JUMPDEST PUSH2 0x1E9C DUP2 PUSH2 0x1E86 JUMP JUMPDEST DUP3 MSTORE POP POP JUMP JUMPDEST PUSH1 0x0 PUSH1 0x80 DUP3 ADD SWAP1 POP PUSH2 0x1EB7 PUSH1 0x0 DUP4 ADD DUP8 PUSH2 0x1243 JUMP JUMPDEST PUSH2 0x1EC4 PUSH1 0x20 DUP4 ADD DUP7 PUSH2 0x1E93 JUMP JUMPDEST PUSH2 0x1ED1 PUSH1 0x40 DUP4 ADD DUP6 PUSH2 0x1243 JUMP JUMPDEST PUSH2 0x1EDE PUSH1 0x60 DUP4 ADD DUP5 PUSH2 0x1243 JUMP JUMPDEST SWAP6 SWAP5 POP POP POP POP POP JUMP INVALID LOG2 PUSH5 0x6970667358 0x22 SLT KECCAK256 SELFDESTRUCT LOG0 CALLDATALOAD 0xD7 DUP4 PUSH18 0xC6FC2CF1C1E5623C96B886805844BA237091 RETURNDATACOPY RETURNDATACOPY PUSH24 0x214925EE1C64736F6C634300081000330000000000000000 "},"methodIdentifiers":{"VERSION()":"ffa1ad74","adapterId()":"5fb86b01","fulfilledCount()":"c5c28fd1","latestRound()":"668a0f02","newOracleRequest(bytes4,address)":"ec2b83f1","newRoundData(uint256,bytes32,bytes32,bytes)":"77f8632f","nodeAddress()":"2aa8481f","requests(bytes32)":"9d866985","rounds(uint256)":"8c65c81f"}}}}}