{"contracts/OracleProviderSample.sol":{"OracleProviderSample":{"abi":[{"inputs":[{"internalType":"address","name":"_nodeAddress","type":"address"},{"internalType":"bytes32","name":"_adapterId","type":"bytes32"}],"stateMutability":"nonpayable","type":"constructor"},{"anonymous":false,"inputs":[{"indexed":false,"internalType":"bytes32","name":"requestId","type":"bytes32"}],"name":"NewOracleRequest","type":"event"},{"inputs":[],"name":"VERSION","outputs":[{"internalType":"string","name":"","type":"string"}],"stateMutability":"view","type":"function"},{"inputs":[],"name":"adapterId","outputs":[{"internalType":"bytes32","name":"","type":"bytes32"}],"stateMutability":"view","type":"function"},{"inputs":[],"name":"fulfilledCount","outputs":[{"internalType":"uint256","name":"","type":"uint256"}],"stateMutability":"view","type":"function"},{"inputs":[],"name":"latestRound","outputs":[{"internalType":"bytes32","name":"answer","type":"bytes32"},{"internalType":"uint256","name":"roundTime","type":"uint256"},{"internalType":"uint256","name":"timestamp","type":"uint256"}],"stateMutability":"view","type":"function"},{"inputs":[{"internalType":"bytes4","name":"callbackFunctionId","type":"bytes4"},{"internalType":"address","name":"callBackContract","type":"address"}],"name":"newOracleRequest","outputs":[{"internalType":"bool","name":"","type":"bool"}],"stateMutability":"nonpayable","type":"function"},{"inputs":[{"internalType":"uint256","name":"roundTime","type":"uint256"},{"internalType":"bytes32","name":"data","type":"bytes32"},{"internalType":"bytes32","name":"dataHash","type":"bytes32"},{"internalType":"bytes","name":"signature","type":"bytes"}],"name":"newRoundData","outputs":[{"internalType":"bool","name":"","type":"bool"}],"stateMutability":"nonpayable","type":"function"},{"inputs":[],"name":"nodeAddress","outputs":[{"internalType":"address","name":"","type":"address"}],"stateMutability":"view","type":"function"},{"inputs":[{"internalType":"uint256","name":"","type":"uint256"}],"name":"rounds","outputs":[{"internalType":"bytes32","name":"answer","type":"bytes32"},{"internalType":"uint256","name":"roundTime","type":"uint256"},{"internalType":"uint256","name":"timestamp","type":"uint256"}],"stateMutability":"view","type":"function"}],"evm":{"bytecode":{"linkReferences":{},"object":"60c0604052600060015534801561001557600080fd5b50604051610e78380380610e788339810160408190526100349161004a565b6001600160a01b0390911660805260a052610084565b6000806040838503121561005d57600080fd5b82516001600160a01b038116811461007457600080fd5b6020939093015192949293505050565b60805160a051610da76100d16000396000818160d60152818161049b015261054a0152600081816092015281816101db0152818161025d0152818161046c01526105220152610da76000f3fe608060405234801561001057600080fd5b50600436106100885760003560e01c80638c65c81f1161005b5780638c65c81f14610156578063c5c28fd114610169578063ec2b83f114610172578063ffa1ad741461018557600080fd5b80632aa8481f1461008d5780635fb86b01146100d1578063668a0f021461010657806377f8632f14610133575b600080fd5b6100b47f000000000000000000000000000000000000000000000000000000000000000081565b6040516001600160a01b0390911681526020015b60405180910390f35b6100f87f000000000000000000000000000000000000000000000000000000000000000081565b6040519081526020016100c8565b60055460065460075461011892919083565b604080519384526020840192909252908201526060016100c8565b610146610141366004610b88565b6101ce565b60405190151581526020016100c8565b610118610164366004610c56565b61039a565b6100f860015481565b610146610180366004610c6f565b6103cd565b6101c16040518060400160405280600681526020017f76312e302e30000000000000000000000000000000000000000000000000000081525081565b6040516100c89190610ce5565b6000336001600160a01b037f0000000000000000000000000000000000000000000000000000000000000000161461024d5760405162461bcd60e51b815260206004820152601460248201527f4f7261636c653a206e6f646520756e6b6e6f776e00000000000000000000000060448201526064015b60405180910390fd5b60006102598484610658565b90507f00000000000000000000000000000000000000000000000000000000000000006001600160a01b0316816001600160a01b0316146102dc5760405162461bcd60e51b815260206004820152601460248201527f4f7261636c653a20496e76616c696420646174610000000000000000000000006044820152606401610244565b5050604080516060810182529384526020840194855242908401908152600480546001808201835560009290925294517f8a35acfbc15ff81a39ae7d344fd709f28e8600b4aa8c65c6b64bfe7fe36bd19b600390960295860181905595517f8a35acfbc15ff81a39ae7d344fd709f28e8600b4aa8c65c6b64bfe7fe36bd19c860181905591517f8a35acfbc15ff81a39ae7d344fd709f28e8600b4aa8c65c6b64bfe7fe36bd19d909501859055600595909555600655505060075590565b600481815481106103aa57600080fd5b600091825260209091206003909102018054600182015460029092015490925083565b60006103d83361067c565b61044a5760405162461bcd60e51b815260206004820152602660248201527f4f7261636c653a205065726d697373696f6e206e656564656420666f7220636f60448201527f6e73756d657200000000000000000000000000000000000000000000000000006064820152608401610244565b6003546002546040805160208101939093526bffffffffffffffffffffffff197f0000000000000000000000000000000000000000000000000000000000000000606090811b8216928501929092527f000000000000000000000000000000000000000000000000000000000000000060548501526001600160e01b0319871660748501529085901b166078830152608c8201524260ac82015260009060cc0160405160208183030381529060405280519060200120905061050b81610699565b6040805160e0810182528281526001600160a01b037f0000000000000000000000000000000000000000000000000000000000000000811660208301527f0000000000000000000000000000000000000000000000000000000000000000828401526001600160e01b0319871660608301528516608082015260025460a08201524260c082015290517f7a6060117db4511b5ffd88545b9b43962c0ae441d1f07d05c86b869490d88369906105c39084815260200190565b60405180910390a160006105d7838361070f565b90508061064c5760405162461bcd60e51b815260206004820152602160248201527f4b6c61794f7261636c653a2072657175657374206e6f742066756c66696c6c6560448201527f64000000000000000000000000000000000000000000000000000000000000006064820152608401610244565b50600195945050505050565b600080600061066785856108d2565b9150915061067481610917565b509392505050565b60006001600160a01b03821661069157600080fd5b506001919050565b61070c816040516024016106af91815260200190565b60408051601f198184030181529190526020810180517bffffffffffffffffffffffffffffffffffffffffffffffffffffffff167f27b7cf8500000000000000000000000000000000000000000000000000000000179052610a7c565b50565b600061071a82610a9d565b6107665760405162461bcd60e51b815260206004820152601b60248201527f4b6c61794f7261636c653a2073756273637269626520746f20445000000000006044820152606401610244565b6000838152602081815260408083208551815591850151600180840180547fffffffffffffffffffffffff0000000000000000000000000000000000000000166001600160a01b039384161790559186015160028401556060860151600384018054608089015160e09390931c7fffffffffffffffff00000000000000000000000000000000000000000000000090911617640100000000929093169190910291909117905560a0850151600483015560c085015160059092019190915580549161083083610d18565b9091555050608082015160608084015160a0850151604080516001600160e01b031990931660208401528201526000926001600160a01b0316910160408051601f198184030181529082905261088591610d3f565b6000604051808303816000865af19150503d80600081146108c2576040519150601f19603f3d011682016040523d82523d6000602084013e6108c7565b606091505b509095945050505050565b60008082516041036109085760208301516040840151606085015160001a6108fc87828585610aae565b94509450505050610910565b506000905060025b9250929050565b600081600481111561092b5761092b610d5b565b036109335750565b600181600481111561094757610947610d5b565b036109945760405162461bcd60e51b815260206004820152601860248201527f45434453413a20696e76616c6964207369676e617475726500000000000000006044820152606401610244565b60028160048111156109a8576109a8610d5b565b036109f55760405162461bcd60e51b815260206004820152601f60248201527f45434453413a20696e76616c6964207369676e6174757265206c656e677468006044820152606401610244565b6003816004811115610a0957610a09610d5b565b0361070c5760405162461bcd60e51b815260206004820152602260248201527f45434453413a20696e76616c6964207369676e6174757265202773272076616c60448201527f75650000000000000000000000000000000000000000000000000000000000006064820152608401610244565b80516a636f6e736f6c652e6c6f67602083016000808483855afa5050505050565b60a081015160009061069157600080fd5b6000807f7fffffffffffffffffffffffffffffff5d576e7357a4501ddfe92f46681b20a0831115610ae55750600090506003610b69565b6040805160008082526020820180845289905260ff881692820192909252606081018690526080810185905260019060a0016020604051602081039080840390855afa158015610b39573d6000803e3d6000fd5b5050604051601f1901519150506001600160a01b038116610b6257600060019250925050610b69565b9150600090505b94509492505050565b634e487b7160e01b600052604160045260246000fd5b60008060008060808587031215610b9e57600080fd5b843593506020850135925060408501359150606085013567ffffffffffffffff80821115610bcb57600080fd5b818701915087601f830112610bdf57600080fd5b813581811115610bf157610bf1610b72565b604051601f8201601f19908116603f01168101908382118183101715610c1957610c19610b72565b816040528281528a6020848701011115610c3257600080fd5b82602086016020830137600060208483010152809550505050505092959194509250565b600060208284031215610c6857600080fd5b5035919050565b60008060408385031215610c8257600080fd5b82356001600160e01b031981168114610c9a57600080fd5b915060208301356001600160a01b0381168114610cb657600080fd5b809150509250929050565b60005b83811015610cdc578181015183820152602001610cc4565b50506000910152565b6020815260008251806020840152610d04816040850160208701610cc1565b601f01601f19169190910160400192915050565b600060018201610d3857634e487b7160e01b600052601160045260246000fd5b5060010190565b60008251610d51818460208701610cc1565b9190910192915050565b634e487b7160e01b600052602160045260246000fdfea26469706673582212209f548b6fb8710a38e9b8a02103b1b2dcda23d032e14e9100a5d9c55d5922383c64736f6c63430008100033","opcodes":"PUSH1 0xC0 PUSH1 0x40 MSTORE PUSH1 0x0 PUSH1 0x1 SSTORE CALLVALUE DUP1 ISZERO PUSH2 0x15 JUMPI PUSH1 0x0 DUP1 REVERT JUMPDEST POP PUSH1 0x40 MLOAD PUSH2 0xE78 CODESIZE SUB DUP1 PUSH2 0xE78 DUP4 CODECOPY DUP2 ADD PUSH1 0x40 DUP2 SWAP1 MSTORE PUSH2 0x34 SWAP2 PUSH2 0x4A JUMP JUMPDEST PUSH1 0x1 PUSH1 0x1 PUSH1 0xA0 SHL SUB SWAP1 SWAP2 AND PUSH1 0x80 MSTORE PUSH1 0xA0 MSTORE PUSH2 0x84 JUMP JUMPDEST PUSH1 0x0 DUP1 PUSH1 0x40 DUP4 DUP6 SUB SLT ISZERO PUSH2 0x5D JUMPI PUSH1 0x0 DUP1 REVERT JUMPDEST DUP3 MLOAD PUSH1 0x1 PUSH1 0x1 PUSH1 0xA0 SHL SUB DUP2 AND DUP2 EQ PUSH2 0x74 JUMPI PUSH1 0x0 DUP1 REVERT JUMPDEST PUSH1 0x20 SWAP4 SWAP1 SWAP4 ADD MLOAD SWAP3 SWAP5 SWAP3 SWAP4 POP POP POP JUMP JUMPDEST PUSH1 0x80 MLOAD PUSH1 0xA0 MLOAD PUSH2 0xDA7 PUSH2 0xD1 PUSH1 0x0 CODECOPY PUSH1 0x0 DUP2 DUP2 PUSH1 0xD6 ADD MSTORE DUP2 DUP2 PUSH2 0x49B ADD MSTORE PUSH2 0x54A ADD MSTORE PUSH1 0x0 DUP2 DUP2 PUSH1 0x92 ADD MSTORE DUP2 DUP2 PUSH2 0x1DB ADD MSTORE DUP2 DUP2 PUSH2 0x25D ADD MSTORE DUP2 DUP2 PUSH2 0x46C ADD MSTORE PUSH2 0x522 ADD MSTORE PUSH2 0xDA7 PUSH1 0x0 RETURN INVALID PUSH1 0x80 PUSH1 0x40 MSTORE CALLVALUE DUP1 ISZERO PUSH2 0x10 JUMPI PUSH1 0x0 DUP1 REVERT JUMPDEST POP PUSH1 0x4 CALLDATASIZE LT PUSH2 0x88 JUMPI PUSH1 0x0 CALLDATALOAD PUSH1 0xE0 SHR DUP1 PUSH4 0x8C65C81F GT PUSH2 0x5B JUMPI DUP1 PUSH4 0x8C65C81F EQ PUSH2 0x156 JUMPI DUP1 PUSH4 0xC5C28FD1 EQ PUSH2 0x169 JUMPI DUP1 PUSH4 0xEC2B83F1 EQ PUSH2 0x172 JUMPI DUP1 PUSH4 0xFFA1AD74 EQ PUSH2 0x185 JUMPI PUSH1 0x0 DUP1 REVERT JUMPDEST DUP1 PUSH4 0x2AA8481F EQ PUSH2 0x8D JUMPI DUP1 PUSH4 0x5FB86B01 EQ PUSH2 0xD1 JUMPI DUP1 PUSH4 0x668A0F02 EQ PUSH2 0x106 JUMPI DUP1 PUSH4 0x77F8632F EQ PUSH2 0x133 JUMPI JUMPDEST PUSH1 0x0 DUP1 REVERT JUMPDEST PUSH2 0xB4 PUSH32 0x0 DUP2 JUMP JUMPDEST PUSH1 0x40 MLOAD PUSH1 0x1 PUSH1 0x1 PUSH1 0xA0 SHL SUB SWAP1 SWAP2 AND DUP2 MSTORE PUSH1 0x20 ADD JUMPDEST PUSH1 0x40 MLOAD DUP1 SWAP2 SUB SWAP1 RETURN JUMPDEST PUSH2 0xF8 PUSH32 0x0 DUP2 JUMP JUMPDEST PUSH1 0x40 MLOAD SWAP1 DUP2 MSTORE PUSH1 0x20 ADD PUSH2 0xC8 JUMP JUMPDEST PUSH1 0x5 SLOAD PUSH1 0x6 SLOAD PUSH1 0x7 SLOAD PUSH2 0x118 SWAP3 SWAP2 SWAP1 DUP4 JUMP JUMPDEST PUSH1 0x40 DUP1 MLOAD SWAP4 DUP5 MSTORE PUSH1 0x20 DUP5 ADD SWAP3 SWAP1 SWAP3 MSTORE SWAP1 DUP3 ADD MSTORE PUSH1 0x60 ADD PUSH2 0xC8 JUMP JUMPDEST PUSH2 0x146 PUSH2 0x141 CALLDATASIZE PUSH1 0x4 PUSH2 0xB88 JUMP JUMPDEST PUSH2 0x1CE JUMP JUMPDEST PUSH1 0x40 MLOAD SWAP1 ISZERO ISZERO DUP2 MSTORE PUSH1 0x20 ADD PUSH2 0xC8 JUMP JUMPDEST PUSH2 0x118 PUSH2 0x164 CALLDATASIZE PUSH1 0x4 PUSH2 0xC56 JUMP JUMPDEST PUSH2 0x39A JUMP JUMPDEST PUSH2 0xF8 PUSH1 0x1 SLOAD DUP2 JUMP JUMPDEST PUSH2 0x146 PUSH2 0x180 CALLDATASIZE PUSH1 0x4 PUSH2 0xC6F JUMP JUMPDEST PUSH2 0x3CD JUMP JUMPDEST PUSH2 0x1C1 PUSH1 0x40 MLOAD DUP1 PUSH1 0x40 ADD PUSH1 0x40 MSTORE DUP1 PUSH1 0x6 DUP2 MSTORE PUSH1 0x20 ADD PUSH32 0x76312E302E300000000000000000000000000000000000000000000000000000 DUP2 MSTORE POP DUP2 JUMP JUMPDEST PUSH1 0x40 MLOAD PUSH2 0xC8 SWAP2 SWAP1 PUSH2 0xCE5 JUMP JUMPDEST PUSH1 0x0 CALLER PUSH1 0x1 PUSH1 0x1 PUSH1 0xA0 SHL SUB PUSH32 0x0 AND EQ PUSH2 0x24D JUMPI PUSH1 0x40 MLOAD PUSH3 0x461BCD PUSH1 0xE5 SHL DUP2 MSTORE PUSH1 0x20 PUSH1 0x4 DUP3 ADD MSTORE PUSH1 0x14 PUSH1 0x24 DUP3 ADD MSTORE PUSH32 0x4F7261636C653A206E6F646520756E6B6E6F776E000000000000000000000000 PUSH1 0x44 DUP3 ADD MSTORE PUSH1 0x64 ADD JUMPDEST PUSH1 0x40 MLOAD DUP1 SWAP2 SUB SWAP1 REVERT JUMPDEST PUSH1 0x0 PUSH2 0x259 DUP5 DUP5 PUSH2 0x658 JUMP JUMPDEST SWAP1 POP PUSH32 0x0 PUSH1 0x1 PUSH1 0x1 PUSH1 0xA0 SHL SUB AND DUP2 PUSH1 0x1 PUSH1 0x1 PUSH1 0xA0 SHL SUB AND EQ PUSH2 0x2DC JUMPI PUSH1 0x40 MLOAD PUSH3 0x461BCD PUSH1 0xE5 SHL DUP2 MSTORE PUSH1 0x20 PUSH1 0x4 DUP3 ADD MSTORE PUSH1 0x14 PUSH1 0x24 DUP3 ADD MSTORE PUSH32 0x4F7261636C653A20496E76616C69642064617461000000000000000000000000 PUSH1 0x44 DUP3 ADD MSTORE PUSH1 0x64 ADD PUSH2 0x244 JUMP JUMPDEST POP POP PUSH1 0x40 DUP1 MLOAD PUSH1 0x60 DUP2 ADD DUP3 MSTORE SWAP4 DUP5 MSTORE PUSH1 0x20 DUP5 ADD SWAP5 DUP6 MSTORE TIMESTAMP SWAP1 DUP5 ADD SWAP1 DUP2 MSTORE PUSH1 0x4 DUP1 SLOAD PUSH1 0x1 DUP1 DUP3 ADD DUP4 SSTORE PUSH1 0x0 SWAP3 SWAP1 SWAP3 MSTORE SWAP5 MLOAD PUSH32 0x8A35ACFBC15FF81A39AE7D344FD709F28E8600B4AA8C65C6B64BFE7FE36BD19B PUSH1 0x3 SWAP1 SWAP7 MUL SWAP6 DUP7 ADD DUP2 SWAP1 SSTORE SWAP6 MLOAD PUSH32 0x8A35ACFBC15FF81A39AE7D344FD709F28E8600B4AA8C65C6B64BFE7FE36BD19C DUP7 ADD DUP2 SWAP1 SSTORE SWAP2 MLOAD PUSH32 0x8A35ACFBC15FF81A39AE7D344FD709F28E8600B4AA8C65C6B64BFE7FE36BD19D SWAP1 SWAP6 ADD DUP6 SWAP1 SSTORE PUSH1 0x5 SWAP6 SWAP1 SWAP6 SSTORE PUSH1 0x6 SSTORE POP POP PUSH1 0x7 SSTORE SWAP1 JUMP JUMPDEST PUSH1 0x4 DUP2 DUP2 SLOAD DUP2 LT PUSH2 0x3AA JUMPI PUSH1 0x0 DUP1 REVERT JUMPDEST PUSH1 0x0 SWAP2 DUP3 MSTORE PUSH1 0x20 SWAP1 SWAP2 KECCAK256 PUSH1 0x3 SWAP1 SWAP2 MUL ADD DUP1 SLOAD PUSH1 0x1 DUP3 ADD SLOAD PUSH1 0x2 SWAP1 SWAP3 ADD SLOAD SWAP1 SWAP3 POP DUP4 JUMP JUMPDEST PUSH1 0x0 PUSH2 0x3D8 CALLER PUSH2 0x67C JUMP JUMPDEST PUSH2 0x44A JUMPI PUSH1 0x40 MLOAD PUSH3 0x461BCD PUSH1 0xE5 SHL DUP2 MSTORE PUSH1 0x20 PUSH1 0x4 DUP3 ADD MSTORE PUSH1 0x26 PUSH1 0x24 DUP3 ADD MSTORE PUSH32 0x4F7261636C653A205065726D697373696F6E206E656564656420666F7220636F PUSH1 0x44 DUP3 ADD MSTORE PUSH32 0x6E73756D65720000000000000000000000000000000000000000000000000000 PUSH1 0x64 DUP3 ADD MSTORE PUSH1 0x84 ADD PUSH2 0x244 JUMP JUMPDEST PUSH1 0x3 SLOAD PUSH1 0x2 SLOAD PUSH1 0x40 DUP1 MLOAD PUSH1 0x20 DUP2 ADD SWAP4 SWAP1 SWAP4 MSTORE PUSH12 0xFFFFFFFFFFFFFFFFFFFFFFFF NOT PUSH32 0x0 PUSH1 0x60 SWAP1 DUP2 SHL DUP3 AND SWAP3 DUP6 ADD SWAP3 SWAP1 SWAP3 MSTORE PUSH32 0x0 PUSH1 0x54 DUP6 ADD MSTORE PUSH1 0x1 PUSH1 0x1 PUSH1 0xE0 SHL SUB NOT DUP8 AND PUSH1 0x74 DUP6 ADD MSTORE SWAP1 DUP6 SWAP1 SHL AND PUSH1 0x78 DUP4 ADD MSTORE PUSH1 0x8C DUP3 ADD MSTORE TIMESTAMP PUSH1 0xAC DUP3 ADD MSTORE PUSH1 0x0 SWAP1 PUSH1 0xCC ADD PUSH1 0x40 MLOAD PUSH1 0x20 DUP2 DUP4 SUB SUB DUP2 MSTORE SWAP1 PUSH1 0x40 MSTORE DUP1 MLOAD SWAP1 PUSH1 0x20 ADD KECCAK256 SWAP1 POP PUSH2 0x50B DUP2 PUSH2 0x699 JUMP JUMPDEST PUSH1 0x40 DUP1 MLOAD PUSH1 0xE0 DUP2 ADD DUP3 MSTORE DUP3 DUP2 MSTORE PUSH1 0x1 PUSH1 0x1 PUSH1 0xA0 SHL SUB PUSH32 0x0 DUP2 AND PUSH1 0x20 DUP4 ADD MSTORE PUSH32 0x0 DUP3 DUP5 ADD MSTORE PUSH1 0x1 PUSH1 0x1 PUSH1 0xE0 SHL SUB NOT DUP8 AND PUSH1 0x60 DUP4 ADD MSTORE DUP6 AND PUSH1 0x80 DUP3 ADD MSTORE PUSH1 0x2 SLOAD PUSH1 0xA0 DUP3 ADD MSTORE TIMESTAMP PUSH1 0xC0 DUP3 ADD MSTORE SWAP1 MLOAD PUSH32 0x7A6060117DB4511B5FFD88545B9B43962C0AE441D1F07D05C86B869490D88369 SWAP1 PUSH2 0x5C3 SWAP1 DUP5 DUP2 MSTORE PUSH1 0x20 ADD SWAP1 JUMP JUMPDEST PUSH1 0x40 MLOAD DUP1 SWAP2 SUB SWAP1 LOG1 PUSH1 0x0 PUSH2 0x5D7 DUP4 DUP4 PUSH2 0x70F JUMP JUMPDEST SWAP1 POP DUP1 PUSH2 0x64C JUMPI PUSH1 0x40 MLOAD PUSH3 0x461BCD PUSH1 0xE5 SHL DUP2 MSTORE PUSH1 0x20 PUSH1 0x4 DUP3 ADD MSTORE PUSH1 0x21 PUSH1 0x24 DUP3 ADD MSTORE PUSH32 0x4B6C61794F7261636C653A2072657175657374206E6F742066756C66696C6C65 PUSH1 0x44 DUP3 ADD MSTORE PUSH32 0x6400000000000000000000000000000000000000000000000000000000000000 PUSH1 0x64 DUP3 ADD MSTORE PUSH1 0x84 ADD PUSH2 0x244 JUMP JUMPDEST POP PUSH1 0x1 SWAP6 SWAP5 POP POP POP POP POP JUMP JUMPDEST PUSH1 0x0 DUP1 PUSH1 0x0 PUSH2 0x667 DUP6 DUP6 PUSH2 0x8D2 JUMP JUMPDEST SWAP2 POP SWAP2 POP PUSH2 0x674 DUP2 PUSH2 0x917 JUMP JUMPDEST POP SWAP4 SWAP3 POP POP POP JUMP JUMPDEST PUSH1 0x0 PUSH1 0x1 PUSH1 0x1 PUSH1 0xA0 SHL SUB DUP3 AND PUSH2 0x691 JUMPI PUSH1 0x0 DUP1 REVERT JUMPDEST POP PUSH1 0x1 SWAP2 SWAP1 POP JUMP JUMPDEST PUSH2 0x70C DUP2 PUSH1 0x40 MLOAD PUSH1 0x24 ADD PUSH2 0x6AF SWAP2 DUP2 MSTORE PUSH1 0x20 ADD SWAP1 JUMP JUMPDEST PUSH1 0x40 DUP1 MLOAD PUSH1 0x1F NOT DUP2 DUP5 SUB ADD DUP2 MSTORE SWAP2 SWAP1 MSTORE PUSH1 0x20 DUP2 ADD DUP1 MLOAD PUSH28 0xFFFFFFFFFFFFFFFFFFFFFFFFFFFFFFFFFFFFFFFFFFFFFFFFFFFFFFFF AND PUSH32 0x27B7CF8500000000000000000000000000000000000000000000000000000000 OR SWAP1 MSTORE PUSH2 0xA7C JUMP JUMPDEST POP JUMP JUMPDEST PUSH1 0x0 PUSH2 0x71A DUP3 PUSH2 0xA9D JUMP JUMPDEST PUSH2 0x766 JUMPI PUSH1 0x40 MLOAD PUSH3 0x461BCD PUSH1 0xE5 SHL DUP2 MSTORE PUSH1 0x20 PUSH1 0x4 DUP3 ADD MSTORE PUSH1 0x1B PUSH1 0x24 DUP3 ADD MSTORE PUSH32 0x4B6C61794F7261636C653A2073756273637269626520746F2044500000000000 PUSH1 0x44 DUP3 ADD MSTORE PUSH1 0x64 ADD PUSH2 0x244 JUMP JUMPDEST PUSH1 0x0 DUP4 DUP2 MSTORE PUSH1 0x20 DUP2 DUP2 MSTORE PUSH1 0x40 DUP1 DUP4 KECCAK256 DUP6 MLOAD DUP2 SSTORE SWAP2 DUP6 ADD MLOAD PUSH1 0x1 DUP1 DUP5 ADD DUP1 SLOAD PUSH32 0xFFFFFFFFFFFFFFFFFFFFFFFF0000000000000000000000000000000000000000 AND PUSH1 0x1 PUSH1 0x1 PUSH1 0xA0 SHL SUB SWAP4 DUP5 AND OR SWAP1 SSTORE SWAP2 DUP7 ADD MLOAD PUSH1 0x2 DUP5 ADD SSTORE PUSH1 0x60 DUP7 ADD MLOAD PUSH1 0x3 DUP5 ADD DUP1 SLOAD PUSH1 0x80 DUP10 ADD MLOAD PUSH1 0xE0 SWAP4 SWAP1 SWAP4 SHR PUSH32 0xFFFFFFFFFFFFFFFF000000000000000000000000000000000000000000000000 SWAP1 SWAP2 AND OR PUSH5 0x100000000 SWAP3 SWAP1 SWAP4 AND SWAP2 SWAP1 SWAP2 MUL SWAP2 SWAP1 SWAP2 OR SWAP1 SSTORE PUSH1 0xA0 DUP6 ADD MLOAD PUSH1 0x4 DUP4 ADD SSTORE PUSH1 0xC0 DUP6 ADD MLOAD PUSH1 0x5 SWAP1 SWAP3 ADD SWAP2 SWAP1 SWAP2 SSTORE DUP1 SLOAD SWAP2 PUSH2 0x830 DUP4 PUSH2 0xD18 JUMP JUMPDEST SWAP1 SWAP2 SSTORE POP POP PUSH1 0x80 DUP3 ADD MLOAD PUSH1 0x60 DUP1 DUP5 ADD MLOAD PUSH1 0xA0 DUP6 ADD MLOAD PUSH1 0x40 DUP1 MLOAD PUSH1 0x1 PUSH1 0x1 PUSH1 0xE0 SHL SUB NOT SWAP1 SWAP4 AND PUSH1 0x20 DUP5 ADD MSTORE DUP3 ADD MSTORE PUSH1 0x0 SWAP3 PUSH1 0x1 PUSH1 0x1 PUSH1 0xA0 SHL SUB AND SWAP2 ADD PUSH1 0x40 DUP1 MLOAD PUSH1 0x1F NOT DUP2 DUP5 SUB ADD DUP2 MSTORE SWAP1 DUP3 SWAP1 MSTORE PUSH2 0x885 SWAP2 PUSH2 0xD3F JUMP JUMPDEST PUSH1 0x0 PUSH1 0x40 MLOAD DUP1 DUP4 SUB DUP2 PUSH1 0x0 DUP7 GAS CALL SWAP2 POP POP RETURNDATASIZE DUP1 PUSH1 0x0 DUP2 EQ PUSH2 0x8C2 JUMPI PUSH1 0x40 MLOAD SWAP2 POP PUSH1 0x1F NOT PUSH1 0x3F RETURNDATASIZE ADD AND DUP3 ADD PUSH1 0x40 MSTORE RETURNDATASIZE DUP3 MSTORE RETURNDATASIZE PUSH1 0x0 PUSH1 0x20 DUP5 ADD RETURNDATACOPY PUSH2 0x8C7 JUMP JUMPDEST PUSH1 0x60 SWAP2 POP JUMPDEST POP SWAP1 SWAP6 SWAP5 POP POP POP POP POP JUMP JUMPDEST PUSH1 0x0 DUP1 DUP3 MLOAD PUSH1 0x41 SUB PUSH2 0x908 JUMPI PUSH1 0x20 DUP4 ADD MLOAD PUSH1 0x40 DUP5 ADD MLOAD PUSH1 0x60 DUP6 ADD MLOAD PUSH1 0x0 BYTE PUSH2 0x8FC DUP8 DUP3 DUP6 DUP6 PUSH2 0xAAE JUMP JUMPDEST SWAP5 POP SWAP5 POP POP POP POP PUSH2 0x910 JUMP JUMPDEST POP PUSH1 0x0 SWAP1 POP PUSH1 0x2 JUMPDEST SWAP3 POP SWAP3 SWAP1 POP JUMP JUMPDEST PUSH1 0x0 DUP2 PUSH1 0x4 DUP2 GT ISZERO PUSH2 0x92B JUMPI PUSH2 0x92B PUSH2 0xD5B JUMP JUMPDEST SUB PUSH2 0x933 JUMPI POP JUMP JUMPDEST PUSH1 0x1 DUP2 PUSH1 0x4 DUP2 GT ISZERO PUSH2 0x947 JUMPI PUSH2 0x947 PUSH2 0xD5B JUMP JUMPDEST SUB PUSH2 0x994 JUMPI PUSH1 0x40 MLOAD PUSH3 0x461BCD PUSH1 0xE5 SHL DUP2 MSTORE PUSH1 0x20 PUSH1 0x4 DUP3 ADD MSTORE PUSH1 0x18 PUSH1 0x24 DUP3 ADD MSTORE PUSH32 0x45434453413A20696E76616C6964207369676E61747572650000000000000000 PUSH1 0x44 DUP3 ADD MSTORE PUSH1 0x64 ADD PUSH2 0x244 JUMP JUMPDEST PUSH1 0x2 DUP2 PUSH1 0x4 DUP2 GT ISZERO PUSH2 0x9A8 JUMPI PUSH2 0x9A8 PUSH2 0xD5B JUMP JUMPDEST SUB PUSH2 0x9F5 JUMPI PUSH1 0x40 MLOAD PUSH3 0x461BCD PUSH1 0xE5 SHL DUP2 MSTORE PUSH1 0x20 PUSH1 0x4 DUP3 ADD MSTORE PUSH1 0x1F PUSH1 0x24 DUP3 ADD MSTORE PUSH32 0x45434453413A20696E76616C6964207369676E6174757265206C656E67746800 PUSH1 0x44 DUP3 ADD MSTORE PUSH1 0x64 ADD PUSH2 0x244 JUMP JUMPDEST PUSH1 0x3 DUP2 PUSH1 0x4 DUP2 GT ISZERO PUSH2 0xA09 JUMPI PUSH2 0xA09 PUSH2 0xD5B JUMP JUMPDEST SUB PUSH2 0x70C JUMPI PUSH1 0x40 MLOAD PUSH3 0x461BCD PUSH1 0xE5 SHL DUP2 MSTORE PUSH1 0x20 PUSH1 0x4 DUP3 ADD MSTORE PUSH1 0x22 PUSH1 0x24 DUP3 ADD MSTORE PUSH32 0x45434453413A20696E76616C6964207369676E6174757265202773272076616C PUSH1 0x44 DUP3 ADD MSTORE PUSH32 0x7565000000000000000000000000000000000000000000000000000000000000 PUSH1 0x64 DUP3 ADD MSTORE PUSH1 0x84 ADD PUSH2 0x244 JUMP JUMPDEST DUP1 MLOAD PUSH11 0x636F6E736F6C652E6C6F67 PUSH1 0x20 DUP4 ADD PUSH1 0x0 DUP1 DUP5 DUP4 DUP6 GAS STATICCALL POP POP POP POP POP JUMP JUMPDEST PUSH1 0xA0 DUP2 ADD MLOAD PUSH1 0x0 SWAP1 PUSH2 0x691 JUMPI PUSH1 0x0 DUP1 REVERT JUMPDEST PUSH1 0x0 DUP1 PUSH32 0x7FFFFFFFFFFFFFFFFFFFFFFFFFFFFFFF5D576E7357A4501DDFE92F46681B20A0 DUP4 GT ISZERO PUSH2 0xAE5 JUMPI POP PUSH1 0x0 SWAP1 POP PUSH1 0x3 PUSH2 0xB69 JUMP JUMPDEST PUSH1 0x40 DUP1 MLOAD PUSH1 0x0 DUP1 DUP3 MSTORE PUSH1 0x20 DUP3 ADD DUP1 DUP5 MSTORE DUP10 SWAP1 MSTORE PUSH1 0xFF DUP9 AND SWAP3 DUP3 ADD SWAP3 SWAP1 SWAP3 MSTORE PUSH1 0x60 DUP2 ADD DUP7 SWAP1 MSTORE PUSH1 0x80 DUP2 ADD DUP6 SWAP1 MSTORE PUSH1 0x1 SWAP1 PUSH1 0xA0 ADD PUSH1 0x20 PUSH1 0x40 MLOAD PUSH1 0x20 DUP2 SUB SWAP1 DUP1 DUP5 SUB SWAP1 DUP6 GAS STATICCALL ISZERO DUP1 ISZERO PUSH2 0xB39 JUMPI RETURNDATASIZE PUSH1 0x0 DUP1 RETURNDATACOPY RETURNDATASIZE PUSH1 0x0 REVERT JUMPDEST POP POP PUSH1 0x40 MLOAD PUSH1 0x1F NOT ADD MLOAD SWAP2 POP POP PUSH1 0x1 PUSH1 0x1 PUSH1 0xA0 SHL SUB DUP2 AND PUSH2 0xB62 JUMPI PUSH1 0x0 PUSH1 0x1 SWAP3 POP SWAP3 POP POP PUSH2 0xB69 JUMP JUMPDEST SWAP2 POP PUSH1 0x0 SWAP1 POP JUMPDEST SWAP5 POP SWAP5 SWAP3 POP POP POP JUMP JUMPDEST PUSH4 0x4E487B71 PUSH1 0xE0 SHL PUSH1 0x0 MSTORE PUSH1 0x41 PUSH1 0x4 MSTORE PUSH1 0x24 PUSH1 0x0 REVERT JUMPDEST PUSH1 0x0 DUP1 PUSH1 0x0 DUP1 PUSH1 0x80 DUP6 DUP8 SUB SLT ISZERO PUSH2 0xB9E JUMPI PUSH1 0x0 DUP1 REVERT JUMPDEST DUP5 CALLDATALOAD SWAP4 POP PUSH1 0x20 DUP6 ADD CALLDATALOAD SWAP3 POP PUSH1 0x40 DUP6 ADD CALLDATALOAD SWAP2 POP PUSH1 0x60 DUP6 ADD CALLDATALOAD PUSH8 0xFFFFFFFFFFFFFFFF DUP1 DUP3 GT ISZERO PUSH2 0xBCB JUMPI PUSH1 0x0 DUP1 REVERT JUMPDEST DUP2 DUP8 ADD SWAP2 POP DUP8 PUSH1 0x1F DUP4 ADD SLT PUSH2 0xBDF JUMPI PUSH1 0x0 DUP1 REVERT JUMPDEST DUP2 CALLDATALOAD DUP2 DUP2 GT ISZERO PUSH2 0xBF1 JUMPI PUSH2 0xBF1 PUSH2 0xB72 JUMP JUMPDEST PUSH1 0x40 MLOAD PUSH1 0x1F DUP3 ADD PUSH1 0x1F NOT SWAP1 DUP2 AND PUSH1 0x3F ADD AND DUP2 ADD SWAP1 DUP4 DUP3 GT DUP2 DUP4 LT OR ISZERO PUSH2 0xC19 JUMPI PUSH2 0xC19 PUSH2 0xB72 JUMP JUMPDEST DUP2 PUSH1 0x40 MSTORE DUP3 DUP2 MSTORE DUP11 PUSH1 0x20 DUP5 DUP8 ADD ADD GT ISZERO PUSH2 0xC32 JUMPI PUSH1 0x0 DUP1 REVERT JUMPDEST DUP3 PUSH1 0x20 DUP7 ADD PUSH1 0x20 DUP4 ADD CALLDATACOPY PUSH1 0x0 PUSH1 0x20 DUP5 DUP4 ADD ADD MSTORE DUP1 SWAP6 POP POP POP POP POP POP SWAP3 SWAP6 SWAP2 SWAP5 POP SWAP3 POP JUMP JUMPDEST PUSH1 0x0 PUSH1 0x20 DUP3 DUP5 SUB SLT ISZERO PUSH2 0xC68 JUMPI PUSH1 0x0 DUP1 REVERT JUMPDEST POP CALLDATALOAD SWAP2 SWAP1 POP JUMP JUMPDEST PUSH1 0x0 DUP1 PUSH1 0x40 DUP4 DUP6 SUB SLT ISZERO PUSH2 0xC82 JUMPI PUSH1 0x0 DUP1 REVERT JUMPDEST DUP3 CALLDATALOAD PUSH1 0x1 PUSH1 0x1 PUSH1 0xE0 SHL SUB NOT DUP2 AND DUP2 EQ PUSH2 0xC9A JUMPI PUSH1 0x0 DUP1 REVERT JUMPDEST SWAP2 POP PUSH1 0x20 DUP4 ADD CALLDATALOAD PUSH1 0x1 PUSH1 0x1 PUSH1 0xA0 SHL SUB DUP2 AND DUP2 EQ PUSH2 0xCB6 JUMPI PUSH1 0x0 DUP1 REVERT JUMPDEST DUP1 SWAP2 POP POP SWAP3 POP SWAP3 SWAP1 POP JUMP JUMPDEST PUSH1 0x0 JUMPDEST DUP4 DUP2 LT ISZERO PUSH2 0xCDC JUMPI DUP2 DUP2 ADD MLOAD DUP4 DUP3 ADD MSTORE PUSH1 0x20 ADD PUSH2 0xCC4 JUMP JUMPDEST POP POP PUSH1 0x0 SWAP2 ADD MSTORE JUMP JUMPDEST PUSH1 0x20 DUP2 MSTORE PUSH1 0x0 DUP3 MLOAD DUP1 PUSH1 0x20 DUP5 ADD MSTORE PUSH2 0xD04 DUP2 PUSH1 0x40 DUP6 ADD PUSH1 0x20 DUP8 ADD PUSH2 0xCC1 JUMP JUMPDEST PUSH1 0x1F ADD PUSH1 0x1F NOT AND SWAP2 SWAP1 SWAP2 ADD PUSH1 0x40 ADD SWAP3 SWAP2 POP POP JUMP JUMPDEST PUSH1 0x0 PUSH1 0x1 DUP3 ADD PUSH2 0xD38 JUMPI PUSH4 0x4E487B71 PUSH1 0xE0 SHL PUSH1 0x0 MSTORE PUSH1 0x11 PUSH1 0x4 MSTORE PUSH1 0x24 PUSH1 0x0 REVERT JUMPDEST POP PUSH1 0x1 ADD SWAP1 JUMP JUMPDEST PUSH1 0x0 DUP3 MLOAD PUSH2 0xD51 DUP2 DUP5 PUSH1 0x20 DUP8 ADD PUSH2 0xCC1 JUMP JUMPDEST SWAP2 SWAP1 SWAP2 ADD SWAP3 SWAP2 POP POP JUMP JUMPDEST PUSH4 0x4E487B71 PUSH1 0xE0 SHL PUSH1 0x0 MSTORE PUSH1 0x21 PUSH1 0x4 MSTORE PUSH1 0x24 PUSH1 0x0 REVERT INVALID LOG2 PUSH5 0x6970667358 0x22 SLT KECCAK256 SWAP16 SLOAD DUP12 PUSH16 0xB8710A38E9B8A02103B1B2DCDA23D032 0xE1 0x4E SWAP2 STOP 0xA5 0xD9 0xC5 0x5D MSIZE 0x22 CODESIZE EXTCODECOPY PUSH5 0x736F6C6343 STOP ADDMOD LT STOP CALLER "},"methodIdentifiers":{"VERSION()":"ffa1ad74","adapterId()":"5fb86b01","fulfilledCount()":"c5c28fd1","latestRound()":"668a0f02","newOracleRequest(bytes4,address)":"ec2b83f1","newRoundData(uint256,bytes32,bytes32,bytes)":"77f8632f","nodeAddress()":"2aa8481f","rounds(uint256)":"8c65c81f"}}}}}