{
  "_format": "hh-sol-artifact-1",
  "contractName": "OracleConsumer",
  "sourceName": "contracts/OracleConsumerSample.sol",
  "abi": [
    {
      "inputs": [
        {
          "internalType": "address",
          "name": "_oracleAddress",
          "type": "address"
        }
      ],
      "stateMutability": "nonpayable",
      "type": "constructor"
    },
    {
      "inputs": [],
      "name": "klayOutput",
      "outputs": [
        {
          "internalType": "uint256",
          "name": "",
          "type": "uint256"
        }
      ],
      "stateMutability": "view",
      "type": "function"
    },
    {
      "inputs": [],
      "name": "oracleAddress",
      "outputs": [
        {
          "internalType": "address",
          "name": "",
          "type": "address"
        }
      ],
      "stateMutability": "view",
      "type": "function"
    },
    {
      "inputs": [
        {
          "internalType": "uint256",
          "name": "_klayOutput",
          "type": "uint256"
        }
      ],
      "name": "swap",
      "outputs": [],
      "stateMutability": "nonpayable",
      "type": "function"
    },
    {
      "inputs": [],
      "name": "swapEthtoKlay",
      "outputs": [
        {
          "internalType": "bool",
          "name": "",
          "type": "bool"
        }
      ],
      "stateMutability": "nonpayable",
      "type": "function"
    }
  ],
  "bytecode": "0x60a060405234801561001057600080fd5b5060405161037f38038061037f83398101604081905261002f91610053565b6001600160a01b03811661004257600080fd5b6001600160a01b0316608052610083565b60006020828403121561006557600080fd5b81516001600160a01b038116811461007c57600080fd5b9392505050565b6080516102db6100a4600039600081816088015261013d01526102db6000f3fe608060405234801561001057600080fd5b506004361061004c5760003560e01c8063760b78b01461005157806394b918de1461006e578063a89ae4ba14610083578063d92a047c146100cf575b600080fd5b6100596100e6565b60405190151581526020015b60405180910390f35b61008161007c36600461026a565b6101ca565b005b6100aa7f000000000000000000000000000000000000000000000000000000000000000081565b60405173ffffffffffffffffffffffffffffffffffffffff9091168152602001610065565b6100d860005481565b604051908152602001610065565b6040517fec2b83f10000000000000000000000000000000000000000000000000000000081527f94b918de0000000000000000000000000000000000000000000000000000000060048201523060248201526000907f000000000000000000000000000000000000000000000000000000000000000090829073ffffffffffffffffffffffffffffffffffffffff83169063ec2b83f1906044016020604051808303816000875af115801561019f573d6000803e3d6000fd5b505050506040513d601f19601f820116820180604052508101906101c39190610283565b9392505050565b60008190556101d8816101db565b50565b6101d8816040516024016101f191815260200190565b60408051601f198184030181529190526020810180517bffffffffffffffffffffffffffffffffffffffffffffffffffffffff167ff82c50f10000000000000000000000000000000000000000000000000000000017905280516a636f6e736f6c652e6c6f67602083016000808483855afa5050505050565b60006020828403121561027c57600080fd5b5035919050565b60006020828403121561029557600080fd5b815180151581146101c357600080fdfea26469706673582212208c300a5444eab09a896c951299b25932ac5880e121bedfeb48b5cb6569316e8c64736f6c63430008100033",
  "linkReferences": {},
  "deployedLinkReferences": {}
}