{
  "_format": "hh-sol-artifact-1",
  "contractName": "OracleConsumerSample",
  "sourceName": "contracts/OracleConsumerSample.sol",
  "abi": [
    {
      "inputs": [
        {
          "internalType": "address",
          "name": "_oracleAddress",
          "type": "address"
        }
      ],
      "stateMutability": "nonpayable",
      "type": "constructor"
    },
    {
      "inputs": [],
      "name": "klayOutput",
      "outputs": [
        {
          "internalType": "uint256",
          "name": "",
          "type": "uint256"
        }
      ],
      "stateMutability": "view",
      "type": "function"
    },
    {
      "inputs": [],
      "name": "oracleAddress",
      "outputs": [
        {
          "internalType": "address",
          "name": "",
          "type": "address"
        }
      ],
      "stateMutability": "view",
      "type": "function"
    },
    {
      "inputs": [
        {
          "internalType": "uint256",
          "name": "_klayOutput",
          "type": "uint256"
        }
      ],
      "name": "swap",
      "outputs": [],
      "stateMutability": "nonpayable",
      "type": "function"
    },
    {
      "inputs": [],
      "name": "swapUsdtoKlay",
      "outputs": [
        {
          "internalType": "bool",
          "name": "",
          "type": "bool"
        }
      ],
      "stateMutability": "nonpayable",
      "type": "function"
    }
  ],
  "bytecode": "0x60a060405234801561001057600080fd5b5060405161038e38038061038e83398101604081905261002f91610053565b6001600160a01b03811661004257600080fd5b6001600160a01b0316608052610083565b60006020828403121561006557600080fd5b81516001600160a01b038116811461007c57600080fd5b9392505050565b6080516102e36100ab6000396000818160880152818161013d01526101e201526102e36000f3fe608060405234801561001057600080fd5b506004361061004c5760003560e01c80638fe9e70f1461005157806394b918de1461006e578063a89ae4ba14610083578063d92a047c146100cf575b600080fd5b6100596100e6565b60405190151581526020015b60405180910390f35b61008161007c366004610272565b6101ca565b005b6100aa7f000000000000000000000000000000000000000000000000000000000000000081565b60405173ffffffffffffffffffffffffffffffffffffffff9091168152602001610065565b6100d860005481565b604051908152602001610065565b6040517fec2b83f10000000000000000000000000000000000000000000000000000000081527f94b918de0000000000000000000000000000000000000000000000000000000060048201523060248201526000907f000000000000000000000000000000000000000000000000000000000000000090829073ffffffffffffffffffffffffffffffffffffffff83169063ec2b83f1906044016020604051808303816000875af115801561019f573d6000803e3d6000fd5b505050506040513d601f19601f820116820180604052508101906101c3919061028b565b9392505050565b3373ffffffffffffffffffffffffffffffffffffffff7f0000000000000000000000000000000000000000000000000000000000000000161461026d576040517f08c379a000000000000000000000000000000000000000000000000000000000815260206004820152600b60248201527f6e6f7420616c6c6f776564000000000000000000000000000000000000000000604482015260640160405180910390fd5b600055565b60006020828403121561028457600080fd5b5035919050565b60006020828403121561029d57600080fd5b815180151581146101c357600080fdfea26469706673582212209688887eb0ce931721c44962e34207262db2ab3242cea60341aea1dfa30b3dd564736f6c63430008100033",
  "linkReferences": {},
  "deployedLinkReferences": {}
}