{
  "_format": "hh-sol-artifact-1",
  "contractName": "OracleProviderSample",
  "sourceName": "contracts/OracleProviderSample.sol",
  "abi": [
    {
      "inputs": [
        {
          "internalType": "address",
          "name": "_nodeAddress",
          "type": "address"
        },
        {
          "internalType": "bytes32",
          "name": "_adapterId",
          "type": "bytes32"
        }
      ],
      "stateMutability": "nonpayable",
      "type": "constructor"
    },
    {
      "anonymous": false,
      "inputs": [
        {
          "indexed": false,
          "internalType": "bytes32",
          "name": "requestId",
          "type": "bytes32"
        }
      ],
      "name": "NewOracleRequest",
      "type": "event"
    },
    {
      "inputs": [],
      "name": "VERSION",
      "outputs": [
        {
          "internalType": "string",
          "name": "",
          "type": "string"
        }
      ],
      "stateMutability": "view",
      "type": "function"
    },
    {
      "inputs": [],
      "name": "adapterId",
      "outputs": [
        {
          "internalType": "bytes32",
          "name": "",
          "type": "bytes32"
        }
      ],
      "stateMutability": "view",
      "type": "function"
    },
    {
      "inputs": [],
      "name": "fulfilledCount",
      "outputs": [
        {
          "internalType": "uint256",
          "name": "",
          "type": "uint256"
        }
      ],
      "stateMutability": "view",
      "type": "function"
    },
    {
      "inputs": [],
      "name": "latestRound",
      "outputs": [
        {
          "internalType": "bytes32",
          "name": "answer",
          "type": "bytes32"
        },
        {
          "internalType": "uint256",
          "name": "roundTime",
          "type": "uint256"
        },
        {
          "internalType": "uint256",
          "name": "timestamp",
          "type": "uint256"
        }
      ],
      "stateMutability": "view",
      "type": "function"
    },
    {
      "inputs": [
        {
          "internalType": "bytes4",
          "name": "callbackFunctionId",
          "type": "bytes4"
        },
        {
          "internalType": "address",
          "name": "callBackContract",
          "type": "address"
        }
      ],
      "name": "newOracleRequest",
      "outputs": [
        {
          "internalType": "bool",
          "name": "",
          "type": "bool"
        }
      ],
      "stateMutability": "nonpayable",
      "type": "function"
    },
    {
      "inputs": [
        {
          "internalType": "uint256",
          "name": "roundTime",
          "type": "uint256"
        },
        {
          "internalType": "bytes32",
          "name": "data",
          "type": "bytes32"
        },
        {
          "internalType": "bytes32",
          "name": "dataHash",
          "type": "bytes32"
        },
        {
          "internalType": "bytes",
          "name": "signature",
          "type": "bytes"
        }
      ],
      "name": "newRoundData",
      "outputs": [
        {
          "internalType": "bool",
          "name": "",
          "type": "bool"
        }
      ],
      "stateMutability": "nonpayable",
      "type": "function"
    },
    {
      "inputs": [],
      "name": "nodeAddress",
      "outputs": [
        {
          "internalType": "address",
          "name": "",
          "type": "address"
        }
      ],
      "stateMutability": "view",
      "type": "function"
    },
    {
      "inputs": [
        {
          "internalType": "bytes32",
          "name": "",
          "type": "bytes32"
        }
      ],
      "name": "requests",
      "outputs": [
        {
          "internalType": "bytes32",
          "name": "requestId",
          "type": "bytes32"
        },
        {
          "internalType": "address",
          "name": "nodeAddress",
          "type": "address"
        },
        {
          "internalType": "bytes32",
          "name": "adapterId",
          "type": "bytes32"
        },
        {
          "internalType": "bytes4",
          "name": "callbackFunctionId",
          "type": "bytes4"
        },
        {
          "internalType": "address",
          "name": "callBackContract",
          "type": "address"
        },
        {
          "internalType": "bytes32",
          "name": "data",
          "type": "bytes32"
        },
        {
          "internalType": "uint256",
          "name": "timestamp",
          "type": "uint256"
        }
      ],
      "stateMutability": "view",
      "type": "function"
    },
    {
      "inputs": [
        {
          "internalType": "uint256",
          "name": "",
          "type": "uint256"
        }
      ],
      "name": "rounds",
      "outputs": [
        {
          "internalType": "bytes32",
          "name": "answer",
          "type": "bytes32"
        },
        {
          "internalType": "uint256",
          "name": "roundTime",
          "type": "uint256"
        },
        {
          "internalType": "uint256",
          "name": "timestamp",
          "type": "uint256"
        }
      ],
      "stateMutability": "view",
      "type": "function"
    }
  ],
  "bytecode": "0x60c060405260006001553480156200001657600080fd5b50604051620021533803806200215383398181016040528101906200003c91906200019f565b81816200005a6754bb6b59cbdc27a360c01b620000f460201b60201c565b6200007667e8887d08308a711360c01b620000f460201b60201c565b8173ffffffffffffffffffffffffffffffffffffffff1660808173ffffffffffffffffffffffffffffffffffffffff1681525050620000c667828a09ab38f71c6c60c01b620000f460201b60201c565b8060a081815250505050620000ec67ae13d290cf5c4ea760c01b620000f760201b60201c565b5050620001e6565b50565b50565b600080fd5b600073ffffffffffffffffffffffffffffffffffffffff82169050919050565b60006200012c82620000ff565b9050919050565b6200013e816200011f565b81146200014a57600080fd5b50565b6000815190506200015e8162000133565b92915050565b6000819050919050565b620001798162000164565b81146200018557600080fd5b50565b60008151905062000199816200016e565b92915050565b60008060408385031215620001b957620001b8620000fa565b5b6000620001c9858286016200014d565b9250506020620001dc8582860162000188565b9150509250929050565b60805160a051611f1d620002366000396000818161022e0152818161078a015261085601526000818161020a015281816102bc015281816103d901528181610769015261081a0152611f1d6000f3fe608060405234801561001057600080fd5b50600436106100a35760003560e01c80638c65c81f11610076578063c5c28fd11161005b578063c5c28fd11461019c578063ec2b83f1146101ba578063ffa1ad74146101ea576100a3565b80638c65c81f146101345780639d86698514610166576100a3565b80632aa8481f146100a85780635fb86b01146100c6578063668a0f02146100e457806377f8632f14610104575b600080fd5b6100b0610208565b6040516100bd919061121e565b60405180910390f35b6100ce61022c565b6040516100db9190611252565b60405180910390f35b6100ec610250565b6040516100fb93929190611286565b60405180910390f35b61011e6004803603810190610119919061146f565b610268565b60405161012b919061150d565b60405180910390f35b61014e60048036038101906101499190611528565b6105bd565b60405161015d93929190611286565b60405180910390f35b610180600480360381019061017b9190611555565b6105f7565b60405161019397969594939291906115bd565b60405180910390f35b6101a4610686565b6040516101b1919061162c565b60405180910390f35b6101d460048036038101906101cf919061169f565b61068c565b6040516101e1919061150d565b60405180910390f35b6101f2610a26565b6040516101ff919061175e565b60405180910390f35b7f000000000000000000000000000000000000000000000000000000000000000081565b7f000000000000000000000000000000000000000000000000000000000000000081565b60058060000154908060010154908060020154905083565b600061027e67ad7775a53fe0f6a960c01b610a5f565b610292678566f12b386eae1f60c01b610a5f565b6102a667766e712465820b8960c01b610a5f565b6102ba67cf3f2c9d9c7cc14760c01b610a5f565b7f000000000000000000000000000000000000000000000000000000000000000073ffffffffffffffffffffffffffffffffffffffff163373ffffffffffffffffffffffffffffffffffffffff1614610348576040517f08c379a000000000000000000000000000000000000000000000000000000000815260040161033f906117cc565b60405180910390fd5b61035c67fff7a4a3731643c160c01b610a5f565b610370674ee06fbdebfe160660c01b610a5f565b6103846702449219bfd56cca60c01b610a5f565b60006103998385610a6290919063ffffffff16565b90506103af67d652638afd57d6da60c01b610a5f565b6103c367fbeeb7988a1b2a8560c01b610a5f565b6103d7674e6174c9ad18909260c01b610a5f565b7f000000000000000000000000000000000000000000000000000000000000000073ffffffffffffffffffffffffffffffffffffffff168173ffffffffffffffffffffffffffffffffffffffff1614610465576040517f08c379a000000000000000000000000000000000000000000000000000000000815260040161045c90611838565b60405180910390fd5b6104796768f7d29c25a405dd60c01b610a5f565b61048d67246171f835003a1660c01b610a5f565b6104a1673a3a55195e6613b460c01b610a5f565b600060405180606001604052808781526020018881526020014281525090506104d4671cb39dd58006821d60c01b610a5f565b6104e86768f522a594c9bf2560c01b610a5f565b6004819080600181540180825580915050600190039060005260206000209060030201600090919091909150600082015181600001556020820151816001015560408201518160020155505061054867217884282e61af3b60c01b610a5f565b80600560008201518160000155602082015181600101556040820151816002015590505061058067d972d69cc79eaae560c01b610a5f565b8560028190555061059b6767658eb6b6538e4b60c01b610a5f565b6105af67dece97d36323c94e60c01b610a5f565b600192505050949350505050565b600481815481106105cd57600080fd5b90600052602060002090600302016000915090508060000154908060010154908060020154905083565b60006020528060005260406000206000915090508060000154908060010160009054906101000a900473ffffffffffffffffffffffffffffffffffffffff16908060020154908060030160009054906101000a900460e01b908060030160049054906101000a900473ffffffffffffffffffffffffffffffffffffffff16908060040154908060050154905087565b60015481565b60006106a267166a56ea18cd699760c01b610a5f565b6106b6677f8496fd2017326160c01b610a5f565b6106ca67fc6193001c82881960c01b610a5f565b6106de679ab4bd5988d8318160c01b610a5f565b6106e733610a89565b610726576040517f08c379a000000000000000000000000000000000000000000000000000000000815260040161071d906118ca565b60405180910390fd5b61073a67f506f8bc883d96bd60c01b610a5f565b61074e67723cf841992adfc960c01b610a5f565b6107626712ff2441354e9c5c60c01b610a5f565b60006003547f00000000000000000000000000000000000000000000000000000000000000007f00000000000000000000000000000000000000000000000000000000000000008686600254426040516020016107c59796959493929190611995565b6040516020818303038152906040528051906020012090506107f1675c33cff9cef7921c60c01b610a5f565b61080567930d33680e306a8360c01b610a5f565b60006040518060e001604052808381526020017f000000000000000000000000000000000000000000000000000000000000000073ffffffffffffffffffffffffffffffffffffffff1681526020017f00000000000000000000000000000000000000000000000000000000000000008152602001867bffffffffffffffffffffffffffffffffffffffffffffffffffffffff191681526020018573ffffffffffffffffffffffffffffffffffffffff16815260200160056000015481526020014281525090506108e0670dd4c326bfb73afb60c01b610a5f565b6108f467eede3febf9c4251360c01b610a5f565b7f7a6060117db4511b5ffd88545b9b43962c0ae441d1f07d05c86b869490d88369826040516109239190611252565b60405180910390a161093f677891cc42a409d60c60c01b610a5f565b610953679e5a3b8c60294de360c01b610a5f565b600061095f8383610b8f565b905061097567cc2922c072a5567f60c01b610a5f565b610989671bc7dbce972cbaf960c01b610a5f565b61099d67c1206812772a75ce60c01b610a5f565b806109dd576040517f08c379a00000000000000000000000000000000000000000000000000000000081526004016109d490611a88565b60405180910390fd5b6109f1675d64db2c17f29c3b60c01b610a5f565b610a0567ecc97a6684cb2a9560c01b610a5f565b610a196757506fce5da81f3860c01b610a5f565b6001935050505092915050565b6040518060400160405280600681526020017f76312e302e30000000000000000000000000000000000000000000000000000081525081565b50565b6000806000610a718585610e61565b91509150610a7e81610eb2565b819250505092915050565b6000610a9f67766de5e8f4e976c660c01b611018565b610ab367f8ddbd2f54df185a60c01b611018565b610ac767ed747cd5705625fe60c01b611018565b610adb6708952b7b66543f4560c01b611018565b600073ffffffffffffffffffffffffffffffffffffffff168273ffffffffffffffffffffffffffffffffffffffff1603610b4a576040517f08c379a0000000000000000000000000000000000000000000000000000000008152600401610b4190611af4565b60405180910390fd5b610b5e674b8f21d1c41397c560c01b611018565b610b72672c9d2dc77e40333760c01b611018565b610b86677ba6f694c0e00d5060c01b611018565b60019050919050565b6000610ba5670609d0340e138a2b60c01b610a5f565b610bb96713f761b94dd8dc7660c01b610a5f565b610bcd679212b9728c5cdba860c01b610a5f565b610be167f6156bef2f90ada560c01b610a5f565b610bea8261101b565b610c29576040517f08c379a0000000000000000000000000000000000000000000000000000000008152600401610c2090611b60565b60405180910390fd5b610c3d67bc2e7b454d155b2f60c01b610a5f565b610c5167d8851e774251e7a660c01b610a5f565b816000808581526020019081526020016000206000820151816000015560208201518160010160006101000a81548173ffffffffffffffffffffffffffffffffffffffff021916908373ffffffffffffffffffffffffffffffffffffffff1602179055506040820151816002015560608201518160030160006101000a81548163ffffffff021916908360e01c021790555060808201518160030160046101000a81548173ffffffffffffffffffffffffffffffffffffffff021916908373ffffffffffffffffffffffffffffffffffffffff16021790555060a0820151816004015560c08201518160050155905050610d5567e8b2d4009073c0c160c01b610a5f565b60016000815480929190610d6890611baf565b9190505550610d81677d8051fe12236b2f60c01b610a5f565b610d95670c5f27e3b0f2b2fe60c01b610a5f565b6000826080015173ffffffffffffffffffffffffffffffffffffffff1683606001518460a00151604051602001610dcd929190611bf7565b604051602081830303815290604052604051610de99190611c6a565b6000604051808303816000865af19150503d8060008114610e26576040519150601f19603f3d011682016040523d82523d6000602084013e610e2b565b606091505b50509050610e43676dc6ce2a396b4c6f60c01b610a5f565b610e5767742d90e776c0e7fb60c01b610a5f565b8091505092915050565b6000806041835103610ea25760008060006020860151925060408601519150606086015160001a9050610e96878285856110fb565b94509450505050610eab565b60006002915091505b9250929050565b60006004811115610ec657610ec5611c81565b5b816004811115610ed957610ed8611c81565b5b03156110155760016004811115610ef357610ef2611c81565b5b816004811115610f0657610f05611c81565b5b03610f46576040517f08c379a0000000000000000000000000000000000000000000000000000000008152600401610f3d90611cfc565b60405180910390fd5b60026004811115610f5a57610f59611c81565b5b816004811115610f6d57610f6c611c81565b5b03610fad576040517f08c379a0000000000000000000000000000000000000000000000000000000008152600401610fa490611d68565b60405180910390fd5b60036004811115610fc157610fc0611c81565b5b816004811115610fd457610fd3611c81565b5b03611014576040517f08c379a000000000000000000000000000000000000000000000000000000000815260040161100b90611dfa565b60405180910390fd5b5b50565b50565b600061103167082209ded9ede3e760c01b611018565b611045671628c20bdcff7e0560c01b611018565b61105967aae5e32faacba6dd60c01b611018565b61106d67fc4802cee098e52f60c01b611018565b6000801b8260a00151036110b6576040517f08c379a00000000000000000000000000000000000000000000000000000000081526004016110ad90611e66565b60405180910390fd5b6110ca6750cedbcd242ac1b960c01b611018565b6110de670527a14bc33c047660c01b611018565b6110f2671437869648329f4a60c01b611018565b60019050919050565b6000807f7fffffffffffffffffffffffffffffff5d576e7357a4501ddfe92f46681b20a08360001c11156111365760006003915091506111d4565b60006001878787876040516000815260200160405260405161115b9493929190611ea2565b6020604051602081039080840390855afa15801561117d573d6000803e3d6000fd5b505050602060405103519050600073ffffffffffffffffffffffffffffffffffffffff168173ffffffffffffffffffffffffffffffffffffffff16036111cb576000600192509250506111d4565b80600092509250505b94509492505050565b600073ffffffffffffffffffffffffffffffffffffffff82169050919050565b6000611208826111dd565b9050919050565b611218816111fd565b82525050565b6000602082019050611233600083018461120f565b92915050565b6000819050919050565b61124c81611239565b82525050565b60006020820190506112676000830184611243565b92915050565b6000819050919050565b6112808161126d565b82525050565b600060608201905061129b6000830186611243565b6112a86020830185611277565b6112b56040830184611277565b949350505050565b6000604051905090565b600080fd5b600080fd5b6112da8161126d565b81146112e557600080fd5b50565b6000813590506112f7816112d1565b92915050565b61130681611239565b811461131157600080fd5b50565b600081359050611323816112fd565b92915050565b600080fd5b600080fd5b6000601f19601f8301169050919050565b7f4e487b7100000000000000000000000000000000000000000000000000000000600052604160045260246000fd5b61137c82611333565b810181811067ffffffffffffffff8211171561139b5761139a611344565b5b80604052505050565b60006113ae6112bd565b90506113ba8282611373565b919050565b600067ffffffffffffffff8211156113da576113d9611344565b5b6113e382611333565b9050602081019050919050565b82818337600083830152505050565b600061141261140d846113bf565b6113a4565b90508281526020810184848401111561142e5761142d61132e565b5b6114398482856113f0565b509392505050565b600082601f83011261145657611455611329565b5b81356114668482602086016113ff565b91505092915050565b60008060008060808587031215611489576114886112c7565b5b6000611497878288016112e8565b94505060206114a887828801611314565b93505060406114b987828801611314565b925050606085013567ffffffffffffffff8111156114da576114d96112cc565b5b6114e687828801611441565b91505092959194509250565b60008115159050919050565b611507816114f2565b82525050565b600060208201905061152260008301846114fe565b92915050565b60006020828403121561153e5761153d6112c7565b5b600061154c848285016112e8565b91505092915050565b60006020828403121561156b5761156a6112c7565b5b600061157984828501611314565b91505092915050565b60007fffffffff0000000000000000000000000000000000000000000000000000000082169050919050565b6115b781611582565b82525050565b600060e0820190506115d2600083018a611243565b6115df602083018961120f565b6115ec6040830188611243565b6115f960608301876115ae565b611606608083018661120f565b61161360a0830185611243565b61162060c0830184611277565b98975050505050505050565b60006020820190506116416000830184611277565b92915050565b61165081611582565b811461165b57600080fd5b50565b60008135905061166d81611647565b92915050565b61167c816111fd565b811461168757600080fd5b50565b60008135905061169981611673565b92915050565b600080604083850312156116b6576116b56112c7565b5b60006116c48582860161165e565b92505060206116d58582860161168a565b9150509250929050565b600081519050919050565b600082825260208201905092915050565b60005b838110156117195780820151818401526020810190506116fe565b60008484015250505050565b6000611730826116df565b61173a81856116ea565b935061174a8185602086016116fb565b61175381611333565b840191505092915050565b600060208201905081810360008301526117788184611725565b905092915050565b7f4f7261636c653a206e6f646520756e6b6e6f776e000000000000000000000000600082015250565b60006117b66014836116ea565b91506117c182611780565b602082019050919050565b600060208201905081810360008301526117e5816117a9565b9050919050565b7f4f7261636c653a20496e76616c69642064617461000000000000000000000000600082015250565b60006118226014836116ea565b915061182d826117ec565b602082019050919050565b6000602082019050818103600083015261185181611815565b9050919050565b7f4f7261636c653a205065726d697373696f6e206e656564656420666f7220636f60008201527f6e73756d65720000000000000000000000000000000000000000000000000000602082015250565b60006118b46026836116ea565b91506118bf82611858565b604082019050919050565b600060208201905081810360008301526118e3816118a7565b9050919050565b6000819050919050565b61190561190082611239565b6118ea565b82525050565b60008160601b9050919050565b60006119238261190b565b9050919050565b600061193582611918565b9050919050565b61194d611948826111fd565b61192a565b82525050565b6000819050919050565b61196e61196982611582565b611953565b82525050565b6000819050919050565b61198f61198a8261126d565b611974565b82525050565b60006119a1828a6118f4565b6020820191506119b1828961193c565b6014820191506119c182886118f4565b6020820191506119d1828761195d565b6004820191506119e1828661193c565b6014820191506119f182856118f4565b602082019150611a01828461197e565b60208201915081905098975050505050505050565b7f4b6c61794f7261636c653a2072657175657374206e6f742066756c66696c6c6560008201527f6400000000000000000000000000000000000000000000000000000000000000602082015250565b6000611a726021836116ea565b9150611a7d82611a16565b604082019050919050565b60006020820190508181036000830152611aa181611a65565b9050919050565b7f4b6c61794f7261636c653a20636f6e73756d657220697320696e76616c696400600082015250565b6000611ade601f836116ea565b9150611ae982611aa8565b602082019050919050565b60006020820190508181036000830152611b0d81611ad1565b9050919050565b7f4b6c61794f7261636c653a2073756273637269626520746f2044500000000000600082015250565b6000611b4a601b836116ea565b9150611b5582611b14565b602082019050919050565b60006020820190508181036000830152611b7981611b3d565b9050919050565b7f4e487b7100000000000000000000000000000000000000000000000000000000600052601160045260246000fd5b6000611bba8261126d565b91507fffffffffffffffffffffffffffffffffffffffffffffffffffffffffffffffff8203611bec57611beb611b80565b5b600182019050919050565b6000611c03828561195d565b600482019150611c1382846118f4565b6020820191508190509392505050565b600081519050919050565b600081905092915050565b6000611c4482611c23565b611c4e8185611c2e565b9350611c5e8185602086016116fb565b80840191505092915050565b6000611c768284611c39565b915081905092915050565b7f4e487b7100000000000000000000000000000000000000000000000000000000600052602160045260246000fd5b7f45434453413a20696e76616c6964207369676e61747572650000000000000000600082015250565b6000611ce66018836116ea565b9150611cf182611cb0565b602082019050919050565b60006020820190508181036000830152611d1581611cd9565b9050919050565b7f45434453413a20696e76616c6964207369676e6174757265206c656e67746800600082015250565b6000611d52601f836116ea565b9150611d5d82611d1c565b602082019050919050565b60006020820190508181036000830152611d8181611d45565b9050919050565b7f45434453413a20696e76616c6964207369676e6174757265202773272076616c60008201527f7565000000000000000000000000000000000000000000000000000000000000602082015250565b6000611de46022836116ea565b9150611def82611d88565b604082019050919050565b60006020820190508181036000830152611e1381611dd7565b9050919050565b7f4b6c61794f7261636c653a206461746120697320656d70747900000000000000600082015250565b6000611e506019836116ea565b9150611e5b82611e1a565b602082019050919050565b60006020820190508181036000830152611e7f81611e43565b9050919050565b600060ff82169050919050565b611e9c81611e86565b82525050565b6000608082019050611eb76000830187611243565b611ec46020830186611e93565b611ed16040830185611243565b611ede6060830184611243565b9594505050505056fea2646970667358221220ffa035d78371c6fc2cf1c1e5623c96b886805844ba2370913e3e77214925ee1c64736f6c63430008100033",
  "linkReferences": {},
  "deployedLinkReferences": {}
}