{
  "_format": "hh-sol-artifact-1",
  "contractName": "OracleProviderSample",
  "sourceName": "contracts/OracleProviderSample.sol",
  "abi": [
    {
      "inputs": [
        {
          "internalType": "address",
          "name": "_nodeAddress",
          "type": "address"
        },
        {
          "internalType": "bytes32",
          "name": "_adapterId",
          "type": "bytes32"
        }
      ],
      "stateMutability": "nonpayable",
      "type": "constructor"
    },
    {
      "anonymous": false,
      "inputs": [
        {
          "indexed": false,
          "internalType": "bytes32",
          "name": "requestId",
          "type": "bytes32"
        }
      ],
      "name": "NewOracleRequest",
      "type": "event"
    },
    {
      "inputs": [],
      "name": "VERSION",
      "outputs": [
        {
          "internalType": "string",
          "name": "",
          "type": "string"
        }
      ],
      "stateMutability": "view",
      "type": "function"
    },
    {
      "inputs": [],
      "name": "adapterId",
      "outputs": [
        {
          "internalType": "bytes32",
          "name": "",
          "type": "bytes32"
        }
      ],
      "stateMutability": "view",
      "type": "function"
    },
    {
      "inputs": [],
      "name": "fulfilledCount",
      "outputs": [
        {
          "internalType": "uint256",
          "name": "",
          "type": "uint256"
        }
      ],
      "stateMutability": "view",
      "type": "function"
    },
    {
      "inputs": [],
      "name": "latestRound",
      "outputs": [
        {
          "internalType": "bytes32",
          "name": "answer",
          "type": "bytes32"
        },
        {
          "internalType": "uint256",
          "name": "roundTime",
          "type": "uint256"
        },
        {
          "internalType": "uint256",
          "name": "timestamp",
          "type": "uint256"
        }
      ],
      "stateMutability": "view",
      "type": "function"
    },
    {
      "inputs": [
        {
          "internalType": "bytes4",
          "name": "callbackFunctionId",
          "type": "bytes4"
        },
        {
          "internalType": "address",
          "name": "callBackContract",
          "type": "address"
        }
      ],
      "name": "newOracleRequest",
      "outputs": [
        {
          "internalType": "bool",
          "name": "",
          "type": "bool"
        }
      ],
      "stateMutability": "nonpayable",
      "type": "function"
    },
    {
      "inputs": [
        {
          "internalType": "uint256",
          "name": "roundTime",
          "type": "uint256"
        },
        {
          "internalType": "bytes32",
          "name": "data",
          "type": "bytes32"
        },
        {
          "internalType": "bytes32",
          "name": "dataHash",
          "type": "bytes32"
        },
        {
          "internalType": "bytes",
          "name": "signature",
          "type": "bytes"
        }
      ],
      "name": "newRoundData",
      "outputs": [
        {
          "internalType": "bool",
          "name": "",
          "type": "bool"
        }
      ],
      "stateMutability": "nonpayable",
      "type": "function"
    },
    {
      "inputs": [],
      "name": "nodeAddress",
      "outputs": [
        {
          "internalType": "address",
          "name": "",
          "type": "address"
        }
      ],
      "stateMutability": "view",
      "type": "function"
    },
    {
      "inputs": [
        {
          "internalType": "bytes32",
          "name": "",
          "type": "bytes32"
        }
      ],
      "name": "requests",
      "outputs": [
        {
          "internalType": "bytes32",
          "name": "requestId",
          "type": "bytes32"
        },
        {
          "internalType": "address",
          "name": "nodeAddress",
          "type": "address"
        },
        {
          "internalType": "bytes32",
          "name": "adapterId",
          "type": "bytes32"
        },
        {
          "internalType": "bytes4",
          "name": "callbackFunctionId",
          "type": "bytes4"
        },
        {
          "internalType": "address",
          "name": "callBackContract",
          "type": "address"
        },
        {
          "internalType": "bytes32",
          "name": "data",
          "type": "bytes32"
        },
        {
          "internalType": "uint256",
          "name": "timestamp",
          "type": "uint256"
        }
      ],
      "stateMutability": "view",
      "type": "function"
    },
    {
      "inputs": [
        {
          "internalType": "uint256",
          "name": "",
          "type": "uint256"
        }
      ],
      "name": "rounds",
      "outputs": [
        {
          "internalType": "bytes32",
          "name": "answer",
          "type": "bytes32"
        },
        {
          "internalType": "uint256",
          "name": "roundTime",
          "type": "uint256"
        },
        {
          "internalType": "uint256",
          "name": "timestamp",
          "type": "uint256"
        }
      ],
      "stateMutability": "view",
      "type": "function"
    }
  ],
  "bytecode": "0x60c0604052600060015534801561001557600080fd5b50604051610f21380380610f218339810160408190526100349161004a565b6001600160a01b0390911660805260a052610084565b6000806040838503121561005d57600080fd5b82516001600160a01b038116811461007457600080fd5b6020939093015192949293505050565b60805160a051610e506100d16000396000818160f101528181610564015261060501526000818160ad0152818161029e015281816103200152818161053501526105de0152610e506000f3fe608060405234801561001057600080fd5b50600436106100a35760003560e01c80638c65c81f11610076578063c5c28fd11161005b578063c5c28fd11461022c578063ec2b83f114610235578063ffa1ad741461024857600080fd5b80638c65c81f146101715780639d8669851461018457600080fd5b80632aa8481f146100a85780635fb86b01146100ec578063668a0f021461012157806377f8632f1461014e575b600080fd5b6100cf7f000000000000000000000000000000000000000000000000000000000000000081565b6040516001600160a01b0390911681526020015b60405180910390f35b6101137f000000000000000000000000000000000000000000000000000000000000000081565b6040519081526020016100e3565b60055460065460075461013392919083565b604080519384526020840192909252908201526060016100e3565b61016161015c366004610c31565b610291565b60405190151581526020016100e3565b61013361017f366004610cff565b610463565b6101e0610192366004610cff565b60006020819052908152604090208054600182015460028301546003840154600485015460059095015493946001600160a01b0393841694929360e083901b93640100000000909304169187565b604080519788526001600160a01b0396871660208901528701949094526001600160e01b0319909216606086015292909216608084015260a083019190915260c082015260e0016100e3565b61011360015481565b610161610243366004610d18565b610496565b6102846040518060400160405280600681526020017f76312e302e30000000000000000000000000000000000000000000000000000081525081565b6040516100e39190610d8e565b6000336001600160a01b037f000000000000000000000000000000000000000000000000000000000000000016146103105760405162461bcd60e51b815260206004820152601460248201527f4f7261636c653a206e6f646520756e6b6e6f776e00000000000000000000000060448201526064015b60405180910390fd5b600061031c848461070d565b90507f00000000000000000000000000000000000000000000000000000000000000006001600160a01b0316816001600160a01b03161461039f5760405162461bcd60e51b815260206004820152601460248201527f4f7261636c653a20496e76616c696420646174610000000000000000000000006044820152606401610307565b5050604080516060810182528481526020810195865242918101918252600480546001808201835560009290925291517f8a35acfbc15ff81a39ae7d344fd709f28e8600b4aa8c65c6b64bfe7fe36bd19b600390930292830181905596517f8a35acfbc15ff81a39ae7d344fd709f28e8600b4aa8c65c6b64bfe7fe36bd19c830181905592517f8a35acfbc15ff81a39ae7d344fd709f28e8600b4aa8c65c6b64bfe7fe36bd19d909201829055600596909655600691909155600755505060025590565b6004818154811061047357600080fd5b600091825260209091206003909102018054600182015460029092015490925083565b60006104a133610731565b6105135760405162461bcd60e51b815260206004820152602660248201527f4f7261636c653a205065726d697373696f6e206e656564656420666f7220636f60448201527f6e73756d657200000000000000000000000000000000000000000000000000006064820152608401610307565b6003546002546040805160208101939093526bffffffffffffffffffffffff197f0000000000000000000000000000000000000000000000000000000000000000606090811b8216928501929092527f000000000000000000000000000000000000000000000000000000000000000060548501526001600160e01b0319871660748501529085901b166078830152608c8201524260ac82015260009060cc0160408051601f19818403018152828252805160209182012060e0840183528084526001600160a01b037f00000000000000000000000000000000000000000000000000000000000000008116838601527f0000000000000000000000000000000000000000000000000000000000000000858501526001600160e01b0319891660608601528716608085015260055460a08501524260c085015291518281529193507f7a6060117db4511b5ffd88545b9b43962c0ae441d1f07d05c86b869490d88369910160405180910390a1600061068c8383610791565b9050806107015760405162461bcd60e51b815260206004820152602160248201527f4b6c61794f7261636c653a2072657175657374206e6f742066756c66696c6c6560448201527f64000000000000000000000000000000000000000000000000000000000000006064820152608401610307565b50600195945050505050565b600080600061071c8585610956565b915091506107298161099b565b509392505050565b60006001600160a01b0382166107895760405162461bcd60e51b815260206004820152601f60248201527f4b6c61794f7261636c653a20636f6e73756d657220697320696e76616c6964006044820152606401610307565b506001919050565b600061079c82610b03565b6107e85760405162461bcd60e51b815260206004820152601b60248201527f4b6c61794f7261636c653a2073756273637269626520746f20445000000000006044820152606401610307565b6000838152602081815260408083208551815591850151600180840180547fffffffffffffffffffffffff0000000000000000000000000000000000000000166001600160a01b039384161790559186015160028401556060860151600384018054608089015160e09390931c7fffffffffffffffff00000000000000000000000000000000000000000000000090911617640100000000929093169190910291909117905560a0850151600483015560c08501516005909201919091558054916108b283610dc1565b90915550506080820151606083015160a08401516040516001600160e01b0319909216602083015260248201526000916001600160a01b03169060440160408051601f198184030181529082905261090991610de8565b6000604051808303816000865af19150503d8060008114610946576040519150601f19603f3d011682016040523d82523d6000602084013e61094b565b606091505b509095945050505050565b600080825160410361098c5760208301516040840151606085015160001a61098087828585610b57565b94509450505050610994565b506000905060025b9250929050565b60008160048111156109af576109af610e04565b036109b75750565b60018160048111156109cb576109cb610e04565b03610a185760405162461bcd60e51b815260206004820152601860248201527f45434453413a20696e76616c6964207369676e617475726500000000000000006044820152606401610307565b6002816004811115610a2c57610a2c610e04565b03610a795760405162461bcd60e51b815260206004820152601f60248201527f45434453413a20696e76616c6964207369676e6174757265206c656e677468006044820152606401610307565b6003816004811115610a8d57610a8d610e04565b03610b005760405162461bcd60e51b815260206004820152602260248201527f45434453413a20696e76616c6964207369676e6174757265202773272076616c60448201527f75650000000000000000000000000000000000000000000000000000000000006064820152608401610307565b50565b60a08101516000906107895760405162461bcd60e51b815260206004820152601960248201527f4b6c61794f7261636c653a206461746120697320656d707479000000000000006044820152606401610307565b6000807f7fffffffffffffffffffffffffffffff5d576e7357a4501ddfe92f46681b20a0831115610b8e5750600090506003610c12565b6040805160008082526020820180845289905260ff881692820192909252606081018690526080810185905260019060a0016020604051602081039080840390855afa158015610be2573d6000803e3d6000fd5b5050604051601f1901519150506001600160a01b038116610c0b57600060019250925050610c12565b9150600090505b94509492505050565b634e487b7160e01b600052604160045260246000fd5b60008060008060808587031215610c4757600080fd5b843593506020850135925060408501359150606085013567ffffffffffffffff80821115610c7457600080fd5b818701915087601f830112610c8857600080fd5b813581811115610c9a57610c9a610c1b565b604051601f8201601f19908116603f01168101908382118183101715610cc257610cc2610c1b565b816040528281528a6020848701011115610cdb57600080fd5b82602086016020830137600060208483010152809550505050505092959194509250565b600060208284031215610d1157600080fd5b5035919050565b60008060408385031215610d2b57600080fd5b82356001600160e01b031981168114610d4357600080fd5b915060208301356001600160a01b0381168114610d5f57600080fd5b809150509250929050565b60005b83811015610d85578181015183820152602001610d6d565b50506000910152565b6020815260008251806020840152610dad816040850160208701610d6a565b601f01601f19169190910160400192915050565b600060018201610de157634e487b7160e01b600052601160045260246000fd5b5060010190565b60008251610dfa818460208701610d6a565b9190910192915050565b634e487b7160e01b600052602160045260246000fdfea26469706673582212200ae977d12cfaf5ac3e8c1dc2305f01fd2d0bdd0cb5f83c575a72a46a9bfb1cfc64736f6c63430008100033",
  "linkReferences": {},
  "deployedLinkReferences": {}
}