{
  "_format": "hh-sol-artifact-1",
  "contractName": "OracleProviderSample",
  "sourceName": "contracts/OracleProviderSample.sol",
  "abi": [
    {
      "inputs": [
        {
          "internalType": "address",
          "name": "_nodeAddress",
          "type": "address"
        },
        {
          "internalType": "bytes32",
          "name": "_adapterId",
          "type": "bytes32"
        }
      ],
      "stateMutability": "nonpayable",
      "type": "constructor"
    },
    {
      "anonymous": false,
      "inputs": [
        {
          "indexed": false,
          "internalType": "bytes32",
          "name": "requestId",
          "type": "bytes32"
        }
      ],
      "name": "NewOracleRequest",
      "type": "event"
    },
    {
      "inputs": [],
      "name": "VERSION",
      "outputs": [
        {
          "internalType": "string",
          "name": "",
          "type": "string"
        }
      ],
      "stateMutability": "view",
      "type": "function"
    },
    {
      "inputs": [
        {
          "internalType": "bytes32",
          "name": "_hashedMessage",
          "type": "bytes32"
        },
        {
          "internalType": "uint8",
          "name": "_v",
          "type": "uint8"
        },
        {
          "internalType": "bytes32",
          "name": "_r",
          "type": "bytes32"
        },
        {
          "internalType": "bytes32",
          "name": "_s",
          "type": "bytes32"
        }
      ],
      "name": "VerifyKlaytnMessage",
      "outputs": [
        {
          "internalType": "address",
          "name": "",
          "type": "address"
        }
      ],
      "stateMutability": "pure",
      "type": "function"
    },
    {
      "inputs": [
        {
          "internalType": "bytes32",
          "name": "roundAnswer",
          "type": "bytes32"
        },
        {
          "internalType": "uint256",
          "name": "roundTime",
          "type": "uint256"
        }
      ],
      "name": "_getHash",
      "outputs": [
        {
          "internalType": "bytes32",
          "name": "",
          "type": "bytes32"
        }
      ],
      "stateMutability": "view",
      "type": "function"
    },
    {
      "inputs": [],
      "name": "adapterId",
      "outputs": [
        {
          "internalType": "bytes32",
          "name": "",
          "type": "bytes32"
        }
      ],
      "stateMutability": "view",
      "type": "function"
    },
    {
      "inputs": [],
      "name": "fulfilledCount",
      "outputs": [
        {
          "internalType": "uint256",
          "name": "",
          "type": "uint256"
        }
      ],
      "stateMutability": "view",
      "type": "function"
    },
    {
      "inputs": [],
      "name": "latestRound",
      "outputs": [
        {
          "internalType": "bytes32",
          "name": "answer",
          "type": "bytes32"
        },
        {
          "internalType": "uint256",
          "name": "roundTime",
          "type": "uint256"
        },
        {
          "internalType": "uint256",
          "name": "timestamp",
          "type": "uint256"
        }
      ],
      "stateMutability": "view",
      "type": "function"
    },
    {
      "inputs": [
        {
          "internalType": "bytes4",
          "name": "callbackFunctionId",
          "type": "bytes4"
        },
        {
          "internalType": "address",
          "name": "callBackContract",
          "type": "address"
        }
      ],
      "name": "newOracleRequest",
      "outputs": [
        {
          "internalType": "bool",
          "name": "",
          "type": "bool"
        }
      ],
      "stateMutability": "nonpayable",
      "type": "function"
    },
    {
      "inputs": [
        {
          "internalType": "uint256",
          "name": "roundTime",
          "type": "uint256"
        },
        {
          "internalType": "bytes32",
          "name": "roundAnswer",
          "type": "bytes32"
        },
        {
          "internalType": "bytes",
          "name": "signature",
          "type": "bytes"
        }
      ],
      "name": "newRoundData",
      "outputs": [
        {
          "internalType": "bool",
          "name": "",
          "type": "bool"
        }
      ],
      "stateMutability": "nonpayable",
      "type": "function"
    },
    {
      "inputs": [],
      "name": "nodeAddress",
      "outputs": [
        {
          "internalType": "address",
          "name": "",
          "type": "address"
        }
      ],
      "stateMutability": "view",
      "type": "function"
    },
    {
      "inputs": [
        {
          "internalType": "bytes32",
          "name": "",
          "type": "bytes32"
        }
      ],
      "name": "requests",
      "outputs": [
        {
          "internalType": "bytes32",
          "name": "requestId",
          "type": "bytes32"
        },
        {
          "internalType": "address",
          "name": "nodeAddress",
          "type": "address"
        },
        {
          "internalType": "bytes32",
          "name": "adapterId",
          "type": "bytes32"
        },
        {
          "internalType": "bytes4",
          "name": "callbackFunctionId",
          "type": "bytes4"
        },
        {
          "internalType": "address",
          "name": "callBackContract",
          "type": "address"
        },
        {
          "internalType": "bytes32",
          "name": "data",
          "type": "bytes32"
        },
        {
          "internalType": "uint256",
          "name": "timestamp",
          "type": "uint256"
        }
      ],
      "stateMutability": "view",
      "type": "function"
    },
    {
      "inputs": [
        {
          "internalType": "uint256",
          "name": "",
          "type": "uint256"
        }
      ],
      "name": "rounds",
      "outputs": [
        {
          "internalType": "bytes32",
          "name": "answer",
          "type": "bytes32"
        },
        {
          "internalType": "uint256",
          "name": "roundTime",
          "type": "uint256"
        },
        {
          "internalType": "uint256",
          "name": "timestamp",
          "type": "uint256"
        }
      ],
      "stateMutability": "view",
      "type": "function"
    },
    {
      "inputs": [
        {
          "internalType": "bytes",
          "name": "sig",
          "type": "bytes"
        }
      ],
      "name": "splitSignature",
      "outputs": [
        {
          "internalType": "bytes32",
          "name": "r",
          "type": "bytes32"
        },
        {
          "internalType": "bytes32",
          "name": "s",
          "type": "bytes32"
        },
        {
          "internalType": "uint8",
          "name": "v",
          "type": "uint8"
        }
      ],
      "stateMutability": "pure",
      "type": "function"
    }
  ],
  "bytecode": "0x60c0604052600060015534801561001557600080fd5b50604051610fe0380380610fe08339810160408190526100349161004a565b6001600160a01b0390911660805260a052610084565b6000806040838503121561005d57600080fd5b82516001600160a01b038116811461007457600080fd5b6020939093015192949293505050565b60805160a051610f0d6100d360003960008181610145015281816107f9015261089a0152600081816101060152818161036e0152818161044c015281816107ca01526108730152610f0d6000f3fe608060405234801561001057600080fd5b50600436106100d45760003560e01c80639d86698511610081578063c5c28fd11161005b578063c5c28fd1146102fc578063ec2b83f114610305578063ffa1ad741461031857600080fd5b80639d86698514610210578063a7bb5803146102b8578063be2bb8cd146102e957600080fd5b8063668a0f02116100b2578063668a0f021461017557806377d3bfb9146101a25780638c65c81f146101fd57600080fd5b806309c980c1146100d95780632aa8481f146101015780635fb86b0114610140575b600080fd5b6100ec6100e7366004610cbe565b610361565b60405190151581526020015b60405180910390f35b6101287f000000000000000000000000000000000000000000000000000000000000000081565b6040516001600160a01b0390911681526020016100f8565b6101677f000000000000000000000000000000000000000000000000000000000000000081565b6040519081526020016100f8565b60055460065460075461018792919083565b604080519384526020840192909252908201526060016100f8565b6101676101b0366004610d0e565b6040516bffffffffffffffffffffffff193360601b166020820152603481018390526054810182905260009060740160405160208183030381529060405280519060200120905092915050565b61018761020b366004610d30565b610597565b61026c61021e366004610d30565b60006020819052908152604090208054600182015460028301546003840154600485015460059095015493946001600160a01b0393841694929360e083901b93640100000000909304169187565b604080519788526001600160a01b0396871660208901528701949094526001600160e01b0319909216606086015292909216608084015260a083019190915260c082015260e0016100f8565b6102cb6102c6366004610d49565b6105ca565b60408051938452602084019290925260ff16908201526060016100f8565b6101286102f7366004610d86565b610659565b61016760015481565b6100ec610313366004610dc9565b61072b565b6103546040518060400160405280600681526020017f76312e302e30000000000000000000000000000000000000000000000000000081525081565b6040516100f89190610e3f565b6000336001600160a01b037f000000000000000000000000000000000000000000000000000000000000000016146103e05760405162461bcd60e51b815260206004820152601460248201527f4f7261636c653a206e6f646520756e6b6e6f776e00000000000000000000000060448201526064015b60405180910390fd5b604080513360601b6bffffffffffffffffffffffff191660208083019190915260348201869052605480830188905283518084039091018152607490920190925280519101206000806000610434866105ca565b925092509250600061044885838686610659565b90507f00000000000000000000000000000000000000000000000000000000000000006001600160a01b0316816001600160a01b0316146104cb5760405162461bcd60e51b815260206004820152601460248201527f4f7261636c653a20496e76616c6964206461746100000000000000000000000060448201526064016103d7565b5050604080516060810182528781526020810198895242918101918252600480546001808201835560009290925291517f8a35acfbc15ff81a39ae7d344fd709f28e8600b4aa8c65c6b64bfe7fe36bd19b600390930292830181905599517f8a35acfbc15ff81a39ae7d344fd709f28e8600b4aa8c65c6b64bfe7fe36bd19c830181905592517f8a35acfbc15ff81a39ae7d344fd709f28e8600b4aa8c65c6b64bfe7fe36bd19d9092018290556005999099556006919091556007555050506002929092555090919050565b600481815481106105a757600080fd5b600091825260209091206003909102018054600182015460029092015490925083565b600080600083516041146106205760405162461bcd60e51b815260206004820152601860248201527f696e76616c6964207369676e6174757265206c656e677468000000000000000060448201526064016103d7565b505050602081015160408201516060830151600090811a908190036106435750601b5b8060ff166001036106525750601c5b9193909250565b6000806040518060400160405280601c81526020017f19457468657265756d205369676e6564204d6573736167653a0a3332000000008152509050600081876040516020016106a9929190610e72565b60408051601f198184030181528282528051602091820120600080855291840180845281905260ff8a169284019290925260608301889052608083018790529092509060019060a0016020604051602081039080840390855afa158015610714573d6000803e3d6000fd5b5050604051601f1901519998505050505050505050565b6000610736336109a2565b6107a85760405162461bcd60e51b815260206004820152602360248201527f4f7261636c653a20636f6e73756d6572206973206e6f742077686974656c697360448201527f746564000000000000000000000000000000000000000000000000000000000060648201526084016103d7565b6003546002546040805160208101939093526bffffffffffffffffffffffff197f0000000000000000000000000000000000000000000000000000000000000000606090811b8216928501929092527f000000000000000000000000000000000000000000000000000000000000000060548501526001600160e01b0319871660748501529085901b166078830152608c8201524260ac82015260009060cc0160408051601f19818403018152828252805160209182012060e0840183528084526001600160a01b037f00000000000000000000000000000000000000000000000000000000000000008116838601527f0000000000000000000000000000000000000000000000000000000000000000858501526001600160e01b0319891660608601528716608085015260055460a08501524260c085015291518281529193507f7a6060117db4511b5ffd88545b9b43962c0ae441d1f07d05c86b869490d88369910160405180910390a160006109218383610a02565b9050806109965760405162461bcd60e51b815260206004820152602160248201527f4b6c61794f7261636c653a2072657175657374206e6f742066756c66696c6c6560448201527f640000000000000000000000000000000000000000000000000000000000000060648201526084016103d7565b50600195945050505050565b60006001600160a01b0382166109fa5760405162461bcd60e51b815260206004820152601f60248201527f4b6c61794f7261636c653a20636f6e73756d657220697320696e76616c69640060448201526064016103d7565b506001919050565b6000610a0d82610bc7565b610a595760405162461bcd60e51b815260206004820152601b60248201527f4b6c61794f7261636c653a2073756273637269626520746f204450000000000060448201526064016103d7565b6000838152602081815260408083208551815591850151600180840180547fffffffffffffffffffffffff0000000000000000000000000000000000000000166001600160a01b039384161790559186015160028401556060860151600384018054608089015160e09390931c7fffffffffffffffff00000000000000000000000000000000000000000000000090911617640100000000929093169190910291909117905560a0850151600483015560c0850151600590920191909155805491610b2383610e94565b90915550506080820151606083015160a08401516040516001600160e01b0319909216602083015260248201526000916001600160a01b03169060440160408051601f1981840301815290829052610b7a91610ebb565b6000604051808303816000865af19150503d8060008114610bb7576040519150601f19603f3d011682016040523d82523d6000602084013e610bbc565b606091505b509095945050505050565b60a08101516000906109fa5760405162461bcd60e51b815260206004820152601960248201527f4b6c61794f7261636c653a206461746120697320656d7074790000000000000060448201526064016103d7565b634e487b7160e01b600052604160045260246000fd5b600082601f830112610c4257600080fd5b813567ffffffffffffffff80821115610c5d57610c5d610c1b565b604051601f8301601f19908116603f01168101908282118183101715610c8557610c85610c1b565b81604052838152866020858801011115610c9e57600080fd5b836020870160208301376000602085830101528094505050505092915050565b600080600060608486031215610cd357600080fd5b8335925060208401359150604084013567ffffffffffffffff811115610cf857600080fd5b610d0486828701610c31565b9150509250925092565b60008060408385031215610d2157600080fd5b50508035926020909101359150565b600060208284031215610d4257600080fd5b5035919050565b600060208284031215610d5b57600080fd5b813567ffffffffffffffff811115610d7257600080fd5b610d7e84828501610c31565b949350505050565b60008060008060808587031215610d9c57600080fd5b84359350602085013560ff81168114610db457600080fd5b93969395505050506040820135916060013590565b60008060408385031215610ddc57600080fd5b82356001600160e01b031981168114610df457600080fd5b915060208301356001600160a01b0381168114610e1057600080fd5b809150509250929050565b60005b83811015610e36578181015183820152602001610e1e565b50506000910152565b6020815260008251806020840152610e5e816040850160208701610e1b565b601f01601f19169190910160400192915050565b60008351610e84818460208801610e1b565b9190910191825250602001919050565b600060018201610eb457634e487b7160e01b600052601160045260246000fd5b5060010190565b60008251610ecd818460208701610e1b565b919091019291505056fea26469706673582212205c0e2716ff9058b743cced3396014e71b06cb999088b7e1d28fca4e063ac86f464736f6c63430008100033",
  "linkReferences": {},
  "deployedLinkReferences": {}
}