{
  "_format": "hh-sol-artifact-1",
  "contractName": "OracleProviderSample",
  "sourceName": "contracts/OracleProviderSample.sol",
  "abi": [
    {
      "inputs": [
        {
          "internalType": "address",
          "name": "_nodeAddress",
          "type": "address"
        },
        {
          "internalType": "bytes32",
          "name": "_adapterId",
          "type": "bytes32"
        }
      ],
      "stateMutability": "nonpayable",
      "type": "constructor"
    },
    {
      "anonymous": false,
      "inputs": [
        {
          "indexed": false,
          "internalType": "bytes32",
          "name": "requestId",
          "type": "bytes32"
        }
      ],
      "name": "NewOracleRequest",
      "type": "event"
    },
    {
      "inputs": [],
      "name": "VERSION",
      "outputs": [
        {
          "internalType": "string",
          "name": "",
          "type": "string"
        }
      ],
      "stateMutability": "view",
      "type": "function"
    },
    {
      "inputs": [],
      "name": "adapterId",
      "outputs": [
        {
          "internalType": "bytes32",
          "name": "",
          "type": "bytes32"
        }
      ],
      "stateMutability": "view",
      "type": "function"
    },
    {
      "inputs": [],
      "name": "fulfilledCount",
      "outputs": [
        {
          "internalType": "uint256",
          "name": "",
          "type": "uint256"
        }
      ],
      "stateMutability": "view",
      "type": "function"
    },
    {
      "inputs": [],
      "name": "latestRound",
      "outputs": [
        {
          "internalType": "bytes32",
          "name": "answer",
          "type": "bytes32"
        },
        {
          "internalType": "uint256",
          "name": "roundTime",
          "type": "uint256"
        },
        {
          "internalType": "uint256",
          "name": "timestamp",
          "type": "uint256"
        }
      ],
      "stateMutability": "view",
      "type": "function"
    },
    {
      "inputs": [
        {
          "internalType": "bytes4",
          "name": "callbackFunctionId",
          "type": "bytes4"
        },
        {
          "internalType": "address",
          "name": "callBackContract",
          "type": "address"
        }
      ],
      "name": "newOracleRequest",
      "outputs": [
        {
          "internalType": "bool",
          "name": "",
          "type": "bool"
        }
      ],
      "stateMutability": "nonpayable",
      "type": "function"
    },
    {
      "inputs": [
        {
          "internalType": "uint256",
          "name": "roundTime",
          "type": "uint256"
        },
        {
          "internalType": "bytes32",
          "name": "data",
          "type": "bytes32"
        },
        {
          "internalType": "bytes32",
          "name": "dataHash",
          "type": "bytes32"
        },
        {
          "internalType": "bytes",
          "name": "signature",
          "type": "bytes"
        }
      ],
      "name": "newRoundData",
      "outputs": [
        {
          "internalType": "bool",
          "name": "",
          "type": "bool"
        }
      ],
      "stateMutability": "nonpayable",
      "type": "function"
    },
    {
      "inputs": [],
      "name": "nodeAddress",
      "outputs": [
        {
          "internalType": "address",
          "name": "",
          "type": "address"
        }
      ],
      "stateMutability": "view",
      "type": "function"
    },
    {
      "inputs": [
        {
          "internalType": "uint256",
          "name": "",
          "type": "uint256"
        }
      ],
      "name": "rounds",
      "outputs": [
        {
          "internalType": "bytes32",
          "name": "answer",
          "type": "bytes32"
        },
        {
          "internalType": "uint256",
          "name": "roundTime",
          "type": "uint256"
        },
        {
          "internalType": "uint256",
          "name": "timestamp",
          "type": "uint256"
        }
      ],
      "stateMutability": "view",
      "type": "function"
    }
  ],
  "bytecode": "0x60c0604052600060015534801561001557600080fd5b50604051610e78380380610e788339810160408190526100349161004a565b6001600160a01b0390911660805260a052610084565b6000806040838503121561005d57600080fd5b82516001600160a01b038116811461007457600080fd5b6020939093015192949293505050565b60805160a051610da76100d16000396000818160d60152818161049b015261054a0152600081816092015281816101db0152818161025d0152818161046c01526105220152610da76000f3fe608060405234801561001057600080fd5b50600436106100885760003560e01c80638c65c81f1161005b5780638c65c81f14610156578063c5c28fd114610169578063ec2b83f114610172578063ffa1ad741461018557600080fd5b80632aa8481f1461008d5780635fb86b01146100d1578063668a0f021461010657806377f8632f14610133575b600080fd5b6100b47f000000000000000000000000000000000000000000000000000000000000000081565b6040516001600160a01b0390911681526020015b60405180910390f35b6100f87f000000000000000000000000000000000000000000000000000000000000000081565b6040519081526020016100c8565b60055460065460075461011892919083565b604080519384526020840192909252908201526060016100c8565b610146610141366004610b88565b6101ce565b60405190151581526020016100c8565b610118610164366004610c56565b61039a565b6100f860015481565b610146610180366004610c6f565b6103cd565b6101c16040518060400160405280600681526020017f76312e302e30000000000000000000000000000000000000000000000000000081525081565b6040516100c89190610ce5565b6000336001600160a01b037f0000000000000000000000000000000000000000000000000000000000000000161461024d5760405162461bcd60e51b815260206004820152601460248201527f4f7261636c653a206e6f646520756e6b6e6f776e00000000000000000000000060448201526064015b60405180910390fd5b60006102598484610658565b90507f00000000000000000000000000000000000000000000000000000000000000006001600160a01b0316816001600160a01b0316146102dc5760405162461bcd60e51b815260206004820152601460248201527f4f7261636c653a20496e76616c696420646174610000000000000000000000006044820152606401610244565b5050604080516060810182529384526020840194855242908401908152600480546001808201835560009290925294517f8a35acfbc15ff81a39ae7d344fd709f28e8600b4aa8c65c6b64bfe7fe36bd19b600390960295860181905595517f8a35acfbc15ff81a39ae7d344fd709f28e8600b4aa8c65c6b64bfe7fe36bd19c860181905591517f8a35acfbc15ff81a39ae7d344fd709f28e8600b4aa8c65c6b64bfe7fe36bd19d909501859055600595909555600655505060075590565b600481815481106103aa57600080fd5b600091825260209091206003909102018054600182015460029092015490925083565b60006103d83361067c565b61044a5760405162461bcd60e51b815260206004820152602660248201527f4f7261636c653a205065726d697373696f6e206e656564656420666f7220636f60448201527f6e73756d657200000000000000000000000000000000000000000000000000006064820152608401610244565b6003546002546040805160208101939093526bffffffffffffffffffffffff197f0000000000000000000000000000000000000000000000000000000000000000606090811b8216928501929092527f000000000000000000000000000000000000000000000000000000000000000060548501526001600160e01b0319871660748501529085901b166078830152608c8201524260ac82015260009060cc0160405160208183030381529060405280519060200120905061050b81610699565b6040805160e0810182528281526001600160a01b037f0000000000000000000000000000000000000000000000000000000000000000811660208301527f0000000000000000000000000000000000000000000000000000000000000000828401526001600160e01b0319871660608301528516608082015260025460a08201524260c082015290517f7a6060117db4511b5ffd88545b9b43962c0ae441d1f07d05c86b869490d88369906105c39084815260200190565b60405180910390a160006105d7838361070f565b90508061064c5760405162461bcd60e51b815260206004820152602160248201527f4b6c61794f7261636c653a2072657175657374206e6f742066756c66696c6c6560448201527f64000000000000000000000000000000000000000000000000000000000000006064820152608401610244565b50600195945050505050565b600080600061066785856108d2565b9150915061067481610917565b509392505050565b60006001600160a01b03821661069157600080fd5b506001919050565b61070c816040516024016106af91815260200190565b60408051601f198184030181529190526020810180517bffffffffffffffffffffffffffffffffffffffffffffffffffffffff167f27b7cf8500000000000000000000000000000000000000000000000000000000179052610a7c565b50565b600061071a82610a9d565b6107665760405162461bcd60e51b815260206004820152601b60248201527f4b6c61794f7261636c653a2073756273637269626520746f20445000000000006044820152606401610244565b6000838152602081815260408083208551815591850151600180840180547fffffffffffffffffffffffff0000000000000000000000000000000000000000166001600160a01b039384161790559186015160028401556060860151600384018054608089015160e09390931c7fffffffffffffffff00000000000000000000000000000000000000000000000090911617640100000000929093169190910291909117905560a0850151600483015560c085015160059092019190915580549161083083610d18565b9091555050608082015160608084015160a0850151604080516001600160e01b031990931660208401528201526000926001600160a01b0316910160408051601f198184030181529082905261088591610d3f565b6000604051808303816000865af19150503d80600081146108c2576040519150601f19603f3d011682016040523d82523d6000602084013e6108c7565b606091505b509095945050505050565b60008082516041036109085760208301516040840151606085015160001a6108fc87828585610aae565b94509450505050610910565b506000905060025b9250929050565b600081600481111561092b5761092b610d5b565b036109335750565b600181600481111561094757610947610d5b565b036109945760405162461bcd60e51b815260206004820152601860248201527f45434453413a20696e76616c6964207369676e617475726500000000000000006044820152606401610244565b60028160048111156109a8576109a8610d5b565b036109f55760405162461bcd60e51b815260206004820152601f60248201527f45434453413a20696e76616c6964207369676e6174757265206c656e677468006044820152606401610244565b6003816004811115610a0957610a09610d5b565b0361070c5760405162461bcd60e51b815260206004820152602260248201527f45434453413a20696e76616c6964207369676e6174757265202773272076616c60448201527f75650000000000000000000000000000000000000000000000000000000000006064820152608401610244565b80516a636f6e736f6c652e6c6f67602083016000808483855afa5050505050565b60a081015160009061069157600080fd5b6000807f7fffffffffffffffffffffffffffffff5d576e7357a4501ddfe92f46681b20a0831115610ae55750600090506003610b69565b6040805160008082526020820180845289905260ff881692820192909252606081018690526080810185905260019060a0016020604051602081039080840390855afa158015610b39573d6000803e3d6000fd5b5050604051601f1901519150506001600160a01b038116610b6257600060019250925050610b69565b9150600090505b94509492505050565b634e487b7160e01b600052604160045260246000fd5b60008060008060808587031215610b9e57600080fd5b843593506020850135925060408501359150606085013567ffffffffffffffff80821115610bcb57600080fd5b818701915087601f830112610bdf57600080fd5b813581811115610bf157610bf1610b72565b604051601f8201601f19908116603f01168101908382118183101715610c1957610c19610b72565b816040528281528a6020848701011115610c3257600080fd5b82602086016020830137600060208483010152809550505050505092959194509250565b600060208284031215610c6857600080fd5b5035919050565b60008060408385031215610c8257600080fd5b82356001600160e01b031981168114610c9a57600080fd5b915060208301356001600160a01b0381168114610cb657600080fd5b809150509250929050565b60005b83811015610cdc578181015183820152602001610cc4565b50506000910152565b6020815260008251806020840152610d04816040850160208701610cc1565b601f01601f19169190910160400192915050565b600060018201610d3857634e487b7160e01b600052601160045260246000fd5b5060010190565b60008251610d51818460208701610cc1565b9190910192915050565b634e487b7160e01b600052602160045260246000fdfea26469706673582212209f548b6fb8710a38e9b8a02103b1b2dcda23d032e14e9100a5d9c55d5922383c64736f6c63430008100033",
  "linkReferences": {},
  "deployedLinkReferences": {}
}